:1000000074C200009AC2000098C2000096C20000AC
:1000100094C2000092C2000090C200008EC2000094
:100020008CC200008AC2000088C2000086C20000A4
:1000300084C2000082C2000080C200007EC20000B4
:100040000C941E177AC200000C9420190C945B19B2
:1000500074C2000072C2000070C200006EC20000D4
:100060006CC200006AC200003B0D930D740E9E0D21
:10007000A10D740E740ED70D740ECC0D740E740E8B
:10008000740E180E500E740E740E580E740E630E0D
:10009000740E6D0E260D740EF30E740E740E740E27
:1000A000740E2A0D300D350D800D740E740E740E05
:1000B000740E740E740E740E740E740E740E740E30
:1000C000740E400E740E550E740E5D0E740E6B0E93
:1000D000740E6F0EDB12E012E512EA12EF12F41248
:1000E000F912FE12D515D715D915DB15DC15DE155D
:1000F000E115E0156563686F203D20006465627559
:1001000067203D2000766572626F7365203D200098
:100110007A202D2D204E56207265747269657665A1
:100120000A005A3C737472696E672076616C75655B
:100130003E202D2D204E562073746F726500563070
:10014000202D2D20736574206E6F6E2D56657262A2
:100150006F7365005631202D2D2073657420566510
:1001600072626F73650046202D2D206C616D707377
:10017000206F4666004E202D2D206C616D7073201F
:100180006F4E00456E6E6E202D2D20654C6576619C
:10019000746520746F206E6E6E2028746F70203D21
:1001A00020302900526E6E6E202D2D20526F74610A
:1001B000746520746F206E6E6E0053202D2D20729A
:1001C0006553657400436F6D6D616E64733A0A0028
:1001D000756E7265636F676E697A656420636F6DB3
:1001E0006D616E6420270020646567726565732009
:1001F00066726F6D20746F702E00456C6576617449
:100200006520746F20002066726F6D203078007258
:10021000656164200020746F2030780000000000C9
:100220006410B71DC8206E3BAC30D9269041DC76F7
:10023000F4516B6B5861B24D3C7105502083B8EDA1
:1002400044930FF0E8A3D6D68CB361CBB0C2649BC5
:10025000D4D2D38678E20AA01CF2BDBD524F545FBF
:10026000414343454C45524154494F4E203D2000A7
:10027000524F545F4D41585F5350454544203D20F7
:1002800000454C45565F414343454C455241544916
:100290004F4E203D2000454C45565F4D41585F5321
:1002A00050454544203D2000436F6E7374616E7469
:1002B000733A00646562756720203D2000766572A0
:1002C000626F7365203D20006563686F203D2000EC
:1002D000206661696C7572653A20526F7461746949
:1002E0006F6E206E6F7420686F6D65642E002066DF
:1002F00061696C7572653A20456C65766174696FE9
:100300006E206E6F7420686F6D65642E00207570AE
:100310002E00207374617274696E670030353A3450
:10032000393A35310020004A756C202038203230AF
:100330003134002C206275696C7420000A0A0A535B
:1003400075676172437562652076003A2056657262
:1003500073696F6E204F4B3A20003734384D002EB2
:100360007200696E7465726D65646961746520639D
:10037000756265486F6D65456C65766174696F6E11
:1003800028293D00667265652052414D203D2000C0
:1003900000000000240027002A00000000002500C3
:1003A00028002B0000000000230026002900040480
:1003B000040404040404020202020202030303030D
:1003C00003030102040810204080010204081020E9
:1003D00001020408102000000007000201000003D1
:1003E0000406000000000000000000407A10F35AEC
:1003F00000A0724E18090010A5D4E80000E8764865
:10040000170000E40B54020000CA9A3B000000E110
:10041000F505000080969800000040420F000000A3
:10042000A08601000000102700000000E803000083
:1004300000006400000000000A000000000001004D
:10044000000000002C76D888DC674F0823DFC1DF6E
:10045000AE59E1B1B796E5E3E453C63AE651997671
:1004600096E8E6C28426EB898C9B62ED407C6FFCAB
:10047000EFBC9C9F40F2BAA56FA5F490055A2AF7ED
:100480005C936B6CF9676DC11BFCE0E40D47FEF5F6
:1004900020E6B500D0ED902E03009435770500805E
:1004A000841E080000204E0A000000C80C333333BD
:1004B000330F986E12831141EF8D2114893BE6555D
:1004C00016CFFEE6DB18D1844B381BF77C1D901D40
:1004D000A4BBE424203284725E228100C9F124ECA2
:1004E000A1E53D277E05BF14FE1A11241FBECFEFE4
:1004F000D8E0DEBFCDBF15E0A0E0B1E0E8EAF1E46E
:1005000002C005900D92AC30B107D9F716E0ACE00F
:10051000B5E001C01D92AA36B107E1F714E0CAEEBA
:10052000D4E004C02297FE010E94B520C43ED1074A
:10053000C9F70E94931D0C94D22062CDEF92FF92D6
:100540000F931F93F22FF02E47FD02C0E4E001C08D
:10055000E4E1242F332727FD309537FF03C0309582
:1005600021953F4F4F2D512F0F2FEE2E19D08F2D4C
:10057000912F1F910F91FF90EF900895FB01DC01E7
:100580008D91019080190110D9F3990B0895FC0108
:1005900001900020E9F7809590958E0F9F1F089598
:1005A000A9E0B0E0E6EDF2E00C9480206A01122FA1
:1005B000A02EBE2C2BE3201718F42CE3922E02C0A1
:1005C000902E9394AE014F5F5F4F27E0092D49D1E4
:1005D000BC018981E82EFF24C701897090700197C2
:1005E00011F4ADE209C0B1FE02C0ABE205C0B0FC3F
:1005F00002C0A0E001C0A0E2E3FE3BC0AA2311F4C8
:1006000023E001C024E0211710F020E002C0121BFB
:10061000212FEB2CB4FE02C0322F0AC0F601322F7C
:1006200080E202C0819331503323E1F7C20ED11C26
:10063000AA2319F0F601A1936F01F6013196E2FEAB
:1006400005C09EE4D6019C9381E404C09EE6D601D9
:100650009C9381E611968C9391833296DF01832FD0
:1006600090E202C09D9381508823E1F7E30FF11DD2
:1006700040C0E2FE42C0AA2311F423E001C024E0FE
:10068000211710F020E002C0121B212FEB2CB4FE2A
:1006900002C0922F0AC0F601922F80E202C081931D
:1006A00091509923E1F7C20ED11CAA2319F0F6014B
:1006B000A1936F01F6013196E2FE08C089E4D601EC
:1006C0008C938EE411968C9386E407C089E6D6015C
:1006D0008C938EE611968C9386E681833296DF01A9
:1006E000892F20E202C02D9381508823E1F7E90F82
:1006F000F11D10822EEF3FEFAFC0161617061CF04B
:1007000041E050E003C0AB014F5F5F4FAA2019F4F6
:1007100080E090E003C08A2D90E0019620E030E078
:10072000AA2311F021E030E0240F351F280F391FD4
:10073000812F90E02817390714F020E002C0121B27
:10074000212F4B2D50E0CA0180719070B4FC0DC078
:10075000B3FC0BC0F601322F40E202C0419331508E
:100760003323E1F7C20ED11C01C0322FAA2319F0A6
:10077000F601A1936F01892B11F0132F0AC0F60126
:10078000132F80E302C0819311501123E1F7C30EB0
:10079000D11C092D060FBA8090E1892E912C8E2054
:1007A0009F20E4FE04C0F1E3BF1609F401501016C7
:1007B00014F001E003C0093008F008E09B0177FF66
:1007C00002C020E030E0CB010196821B930BFE01BA
:1007D0003196E80FF91F8EE2F82E3B01601A71087E
:1007E0008A2D90E044275527481B590B8FEF2F3F48
:1007F000380719F4D601FD926D01621773072CF0CA
:100800006216730614F4808101C080E321503040E9
:1008100031962417350724F0D6018D936D01E6CF6C
:100820002617370749F4B5E3BB1528F0BB1621F4AA
:100830008114910409F481E3F6018193D601812F9B
:1008400090E202C09C93815011968823D9F7E10F62
:10085000F11D108220E030E0C9012996EEE00C94F1
:100860009C20283008F027E03327DA01990F311D4A
:1008700087FD916000966105710539F432602E5F45
:100880003D9330E32A95E1F708959F3F30F080389B
:100890007105610509F03C5F3C5F3D93913008F0C4
:1008A0008068911DDF93CF931F930F93FF92EF9278
:1008B000192F987F9695E92F96959695E90FFF2722
:1008C000EC5BFB4F99273327EE24FF24A701E701B8
:1008D00005900894079428F4360FE71EF81E491F68
:1008E000511D660F771F881F991F0694A1F7059069
:1008F000079428F4E70EF81E491F561FC11D770FF5
:10090000881F991F661F0694A1F70590079428F485
:10091000F80E491F561FC71FD11D880F991F661F4C
:10092000771F0694A1F70590079420F4490F561FEE
:10093000C71FD81F990F661F771F881F0694A9F736
:1009400084911095177041F0D695C79557954795A6
:10095000F794E7941A95C1F7EAEEF3E068941590DE
:10096000159135916591959105907FE27395E11808
:10097000F10A430B560BC90BD009C0F7E10CF11E6D
:10098000431F561FC91FD01D7EF4703311F48A9582
:10099000E6CFE894015030F0080F0AF40027021760
:1009A00008F4202F2395022F7A3328F079E37D93E2
:1009B0002A95E9F710C07D932A9589F606949795B4
:1009C0006795379517951794E118F10A430B560B65
:1009D000C90BD00998F023957E9173957A3308F06E
:1009E00070E37C932013B8F77E9170617D9330F0B3
:1009F000839571E37D9370E32A95E1F71124EF90DD
:100A0000FF900F911F91CF91DF91992787FD9095CE
:100A10000895A2E0B0E0EFE0F5E00C948C20809126
:100A2000660690916706009711F48AE696E09E01AB
:100A30002F5F3F4F281B390BC9012296E2E00C942F
:100A4000A8200F931F93CF93DF93242F2627A22F45
:100A5000B0E0AF70B070AA0FBB1FAA0FBB1FCCE1F4
:100A6000D2E0AC0FBD1FFD01059115912591349188
:100A7000E4E09695879577956795EA95D1F70627EF
:100A800017272827392742954F70402750E04F708D
:100A90005070440F551F440F551F4C0F5D1FFA0136
:100AA00085919591A591B49144E036952795179538
:100AB00007954A95D1F7082719272A273B27B80118
:100AC000C901DF91CF911F910F910895CF93DF93CB
:100AD000EC016FEF7FEF8FEF9FEF02C02196B1DF48
:100AE00048814423D9F79B01AC012095309540956E
:100AF0005095B901CA01DF91CF91089580E195E049
:100B000060E370E041E00E94BF168CE195E068EC84
:100B100070E042E00E94BF1688E295E067E07FE067
:100B20004CE05FE00E9497108CE695E06DEF7EE070
:100B300042E05FE00C949710BC0180910D05882382
:100B400021F084E496E00C94DC1C0895BC018091B3
:100B50000D05882331F084E496E04AE050E00C94DF
:100B6000B81C08950F931F9304E416E06091AB0442
:100B70007091AC04C8010E94DC1CC8016FE573E0F1
:100B80000E94641BC8016AE573E00E94641B1F9108
:100B90000F9108950F931F9304E416E0C8016CE3CE
:100BA00073E00E94641BDEDFC80163E373E00E9410
:100BB000641BC80167E273E00E94641BC80165E220
:100BC00073E00E94641BC8016CE173E00E94641B27
:100BD0001F910F9108950F931F9304E416E0C8012D
:100BE00060E070E04AE050E00E94B81CC8016BE48D
:100BF00073E00E94641BB6DFC8010E948C1B1F912A
:100C00000F9108950F931F9304E416E0C80164E860
:100C100073E00E94641BFDDEBC01C8014AE050E0A5
:100C20000E94CA1C1F910F910895682F80910C0596
:100C3000882321F084E496E00C94841B0895EF92BD
:100C4000FF920F931F93CF93DF93EC018B017A01F7
:100C500080910D05882331F084E496E060E071E036
:100C60000E94DE1C84E496E0BE014AE050E00E944F
:100C7000B81C84E496E061E071E00E94DC1C84E42E
:100C800096E0B8010E94DC1C209729F484E496E0E9
:100C900064E071E004C084E496E068E071E00E94E2
:100CA000DC1C84E496E0B7010E94DC1C80910E05F8
:100CB000882309F0A7DF84E496E00E94AE1ACE01F3
:100CC000CDB7DEB7E6E00C94A420CF92DF92EF928E
:100CD000FF920F931F93D82EC92E7A0140E051E066
:100CE000AEDF04E416E0C8016FE071E00E94DC1C96
:100CF000C801B7010E94DE1C8D2D9C2D1F910F9104
:100D0000FF90EF90DF90CF900895AF92BF92CF9277
:100D1000DF92EF92FF920F931F93FC017B016A0118
:100D2000590104E416E0C801BF010E94DE1CC8019D
:100D3000B7010E94DE1CC801B6014AE050E00E94E3
:100D4000CA1CC801B5010E94DE1CC8010E94AE1A6F
:100D50001F910F91FF90EF90DF90CF90BF90AF90D9
:100D60000895BC0180910D05882321F084E496E06C
:100D70000C94DE1C089580910D05882339F48CE0D5
:100D800090E061E171E043E351E059CF84E496E003
:100D900068EC72E00E94641B84E496E060910C05AC
:100DA0004AE050E00E94631C84E496E06DEB72E040
:100DB0000E94641B84E496E060910D054AE050E0D7
:100DC0000E94631C84E496E063EB72E00E94641B63
:100DD00084E496E060910E054AE050E00E94631CB6
:100DE00084E496E068EA72E00E94A01B84E496E046
:100DF00066E972E00E94641B84E496E068EC70E0AF
:100E00004AE050E00E94CA1C84E496E061E872E087
:100E10000E94641B84E496E060E273E04AE050E0E4
:100E20000E94CA1C84E496E060E772E00E94641BA2
:100E300084E496E068EC70E04AE050E00E94CA1C4E
:100E400084E496E06CE572E00E94641B84E496E022
:100E500060E273E04AE050E00C94CA1CA0E0B0E00D
:100E6000E4E3F7E00C9484206C01EC01EE24FF2411
:100E70008701B4E0AB2EB12CA80EB91E11C080EBD7
:100E800095E0BE01CED7502F4F2D3E2D2227E82EC4
:100E9000FF2400E010E0E22AF32A042B152B219610
:100EA000CA15DB0561F780910E058823D9F084E42B
:100EB00096E06FE072E00E94641B84E496E0B80163
:100EC000A70120E130E00E94331C84E496E066E054
:100ED00072E00E94641B84E496E0B60140E150E0B9
:100EE0000E94CA1CB701C801CDB7DEB7EAE00C9476
:100EF000A020AFEFB0E0EFE7F7E00C94802080E0B7
:100F000090E0ACDF6D50704F8D4E9E4F29F08AE01F
:100F100090E065E371E06CC084E090E09FDF3B010E
:100F20004C018E010F5F1F4F6CE070E06B01089465
:100F3000C11CD11C80EB95E074D7F8018083882315
:100F400009F470C00F5F1F4FFBE0CF16F1E0DF0622
:100F500009F468C0B601EACF84E496E063E571E085
:100F60000E94DC1C84E496E0B8010E94DE1C84E44C
:100F700096E06BE571E00E94DC1C84E496E0B6012B
:100F8000A50120E130E00E94401CA614B704C8046B
:100F9000D90471F084E496E062E671E00E94DC1C02
:100FA00084E496E0B401A30120E130E00E94401CFB
:100FB00080910D05882399F088E090E04FDF7B0158
:100FC0008C0184E496E06EE671E00E94DC1C84E40F
:100FD00096E0B801A7012AE030E00E94A61CA61402
:100FE000B704C804D90449F08BE090E06DE771E0E4
:100FF00043E351E024DE9C010FC084E496E061E904
:1010000071E00E94DC1C84E496E0BE016F5F7F4FBC
:101010000E94DE1C20E030E0C901C150DF4FEEE04D
:101020000C949C208E010F5F1F4FC8014FDD5B01A8
:101030006C0180910E05882309F4BACF8DCFA0E012
:10104000B0E0E5E2F8E00C948620D82EC92E7A01B3
:101050008B0180910E058823E1F084E496E061EA3B
:1010600071E00E94DC1C84E496E0B801A70120E155
:1010700030E00E94331C84E496E065E172E00E9457
:10108000641B84E496E06D2D7C2D40E150E00E94CD
:10109000CA1C8D2D9C2DEC0124E0C22ED12CCC0E2F
:1010A000DD1E0EC0212F332744275527102F0F2D6B
:1010B000FE2CEE2480EB95E0BE01422FB9D621969E
:1010C000CC15DD0579F7CDB7DEB7E8E00C94A220AA
:1010D00084E496E00E944D1A892BD1F3089584E4AC
:1010E00096E00E944D1A18161906CCF784E496E093
:1010F0000C94851AEF92FF920F931F93CF93DF9377
:101100007C01EB0100E0EBDF182F8FDDF701E00F32
:10111000F11D10831A3059F01D3049F0202F2F5F38
:10112000822F90E08C179D0714F4022FECCF1082D1
:10113000802F90E0CDB7DEB7E6E00C94A420AFEFAF
:10114000B0E0E5EAF8E00C9480207E010894E11C10
:10115000F11CC7016FEF70E0CDDF8C018AEA91E0EE
:10116000EBDCC801F3DC80EB91E0E6DCC701F9DDE4
:1011700080910D05882309F045DDCE01019664EBD1
:1011800071E0FCD9892B51F580E090E040E050E01F
:1011900060E070E054DF84E090E040E050E060E028
:1011A00070E04DDF8D81813239F488E090E040E0DD
:1011B00050E060E070E043DF0CE010E080EB95E091
:1011C000B80140E035D60F5F1F4F81E00B301807A4
:1011D000A9F780E090E069EB71E048C080E090E022
:1011E0003DDE4B015C016D30E0EF7E07EDEE8E07DA
:1011F000EEEF9E0749F0611571058105910521F01B
:10120000CC24DD24760105C088E090E027DE6B0168
:101210007C018E010F5F1F4FC80158DCAB01BC0180
:1012200084E090E00CDF6CE070E03B010894611C0E
:10123000711C80EB95E0F8014081FAD5F8018081BE
:101240008823E1F00F5F1F4FFBE06F16F1E07F0690
:10125000A9F0B301EACF80E090E04DE050EF6DEEF1
:101260007EEFEDDE80E090E06DEC71E043E351E075
:10127000E6DCC150DF4FEEE00C949C200894C11CCA
:10128000D11CE11CF11C88E090E0B701A601D7DE7B
:101290008DE0881680EF98068DEEA8068EEFB806D2
:1012A000D1F6E0CF04C084E496E00E94851A84E47D
:1012B00096E00E944D1A892BB1F7089509DF84E466
:1012C00096E00E94651A0E94B920892B39F084E4C7
:1012D00096E00E94911D60930D0508C090E08091FA
:1012E0000D05882309F491E090930D0580910D057B
:1012F000882319F082EE91E01FDC80E090E06EEE32
:1013000071E043E351E09BCC1F93CF93DF93182F01
:1013100081E10E940118EC0180910E05882329F0DB
:101320008AEF91E009DCCE0111DCC55FD1401CF4ED
:10133000C2E0D0E002C0C0E0D0E0112331F0CE0125
:1013400069E072E043E351E07ADCCE01DF91CF91B6
:101350001F9108950F931F93CF93DF93182F092F99
:101360000E940118EC0180910E05882371F083E141
:1013700092E0E2DB812F902FE9DB8AE192E0DCDB77
:10138000CE01E4DB80E091E0ECDC80E0C558D340A6
:101390000CF081E0DF91CF911F910F91089580E1D2
:1013A00090E0D8CF8FE090E0D5CF1F93CF93DF931D
:1013B000182F82E190E0CEDF882319F4C9E0D0E055
:1013C00002C0C0E0D0E0112369F0209729F480E04A
:1013D00090E06FE172E003C0CE016AE272E043E3A5
:1013E00051E02DDCCE01DF91CF911F9108951F9325
:1013F0009C01162F83E0B9010E942318112339F0B4
:1014000080E090E061E472E043E351E018DC1F917A
:1014100008951F939C01162F89E0B9010E9423189B
:10142000112339F080E090E06EE472E043E351E094
:1014300006DC1F9108951F93CF93DF93C0E0D0E0A7
:101440008FE090E087DF182F8823A1F480E195E0FA
:1014500061E070E042E021E00E94EC1521968AE50F
:1014600092E06ADBCE0172DB80E091E07ADCC0388A
:10147000D10531F780E195E00E948F16112319F014
:1014800020E030E011C0C038D1051CF026E030E08B
:101490000BC08FEB94E067E672E042EA52E02AE785
:1014A00032E033DC23E630E0C901DF91CF911F91B8
:1014B00008951F93CF93DF93C0E0D0E080E190E0E8
:1014C00049DF182F8823B1F48CE195E061E070E0EA
:1014D00041E023E00E94EC15219680910E058823BF
:1014E00071F18AE592E028DBCE0130DB80E091E00B
:1014F00038DC25C06CE271E080E090E00E949A1731
:101500008CE195E00E948F16112319F020E030E065
:1015100011C0C059D1401CF023E030E00BC081ED78
:1015200094E067E672E049E752E02AE732E0EDDB5B
:1015300023E630E0C901DF91CF911F91089581E04A
:10154000C039D80709F0BACFD5CF1F93CF93DF9317
:10155000182F71DFEC0180910E05882369F084E477
:1015600096E062E673E00E94641B84E496E0BE01AC
:101570004AE050E00E94CA1C209711F49ADFEC0167
:10158000112331F0CE0160E872E043E351E057DB14
:10159000CE01DF91CF911F9108956F927F928F922C
:1015A0009F92AF92BF92CF92DF92EF92FF920F93F2
:1015B0001F937C0185E892E0BFDAC701C7DA80E9B2
:1015C00092E0BADA0027F7FC0095102FC801B701A6
:1015D0000E94A41E27E738E046E350E40E94581F0B
:1015E00020E030E040E05FE30E94A11D0E94711EF8
:1015F0005B016C017B01CB01A9DA80EA92E09CDA05
:101600000027F7FC0095102FC801B7010E94A41E07
:1016100027E738E046E350E40E94091E3B014C01F5
:101620000E94711EDC01CB0191DA85EA92E099DB20
:1016300088E295E0B801A7010E949314B3DEAB28BD
:1016400079F48823B1F488E090E06BEA72E045EC2D
:1016500052E0F5DAF0DE009761F068EC72E006C067
:10166000882339F087E090E062EE72E045EC52E0CA
:10167000E6DAB301C4011F910F91FF90EF90DF9064
:10168000CF90BF90AF909F908F907F906F90089574
:101690006F927F928F929F92AF92BF92CF92DF9282
:1016A000EF92FF920F931F937C0185E892E044DA5A
:1016B000C7014CDA80E992E03FDA0027F7FC009599
:1016C000102FC801B7010E94A41E24EE38E34EE893
:1016D0005FE30E94581F20E030E040E05FE30E949B
:1016E000A11D0E94711E5B016C017B01CB012EDAF2
:1016F00080EA92E021DA0027F7FC0095102FC8015C
:10170000B7010E94A41E24EE38E34EE85FE30E9476
:10171000091E3B014C010E94711EDC01CB0116DA4F
:1017200085EA92E01EDB8CE695E0B801A7010E94F5
:10173000931435DEAB2879F48823B1F485E090E08A
:101740006BE073E043E351E07ADAB3DE009761F0D7
:1017500063E373E006C0882339F084E090E06CE432
:1017600073E045EC52E06BDAB301C4011F910F91B5
:10177000FF90EF90DF90CF90BF90AF909F908F90B1
:101780007F906F900895892B19F08EE06FEF02C063
:101790008EE060E00C94ED181F93182F82E060E05B
:1017A0000E94ED1883E060E070E00E94231889E059
:1017B00060E070E00E942318112339F080E090E08F
:1017C00063E773E043E351E03ADA1F91089582E062
:1017D00061E070E00E94231880E096DD009719F028
:1017E0006EE773E006C080E0E0DD009729F065E970
:1017F00073E043E351E023CA80E0CEDF86E090E06F
:1018000060E007DE80E090E062EB73E043E351E0EC
:1018100016CA1F93982F162F82E0692F0E94ED1889
:10182000112339F080E090E06DEB73E043E351E089
:1018300006DA1F910895CF93DF9380E065DDEC0118
:10184000009779F480E081DEEC01009751F480E0AC
:1018500090E099DF80E0A0DF86E090E060E0D9DDF5
:1018600004C081E090E060E0D4DFCE0168EC73E07A
:1018700043E351E0E4D9DF91CF91089584E496E009
:1018800040E855E260E070E00E94C7190BDD82D9A4
:1018900084E496E062E173E00E94641B84E496E0D5
:1018A0000E94AE1A80E195E062E370E00E949F140E
:1018B0008CE195E069E170E00E949F148CE695E070
:1018C00040E050E068E473E499D48CE695E040E0B1
:1018D00050E068E474E440D788E295E040E050E0EE
:1018E00068E473E48BD488E295E040E050E068E47B
:1018F00074E432D78FE060E00E94811880E160E0FC
:101900000E94811881E160E00E94811882E160E01C
:101910000E9481188EE061E00E94811882E061E0FF
:101920000E94811883E061E00E94811889E061E0F3
:101930000E94811880E030DF86E090E060E069DDA1
:101940006AE070E080E090E00E949A1784E496E0FC
:101950006DE073E00E94A01B8EEC93E0EDD86BDF8E
:10196000892B39F58AED93E0E7D888E691E090DE9F
:1019700080E012DF86E090E060E04BDD8AE590E0F9
:101980000CDE80E090E009DE0DDD882331F484E494
:1019900096E06EEE72E00E94A01B80E090E078DEA0
:1019A000FEDC882331F484E496E060ED72E00E946E
:1019B000A01B80E0F1DE86E090E060E02ADD22D925
:1019C0003ACFABE0B0E0E7EEFCE00C9488208091E9
:1019D0000D05882351F084E496E068EE73E00E94E0
:1019E000DC1C84E496E00E94AE1A79DB182F80910B
:1019F0000E05882349F0812F90E00E94BF20892B9B
:101A000019F08BEE93E098D8812F90E00E94BF20D0
:101A1000892B59F7812F09D980910F05882321F04F
:101A20001D3511F410920F0580910F05882309F0E0
:101A3000DAC1812F90E0FC01E554F040E633F10576
:101A400008F052C1EC5CFF4F0C94B32081E080930E
:101A50000F05C9C19FD884E496E00E948C1BC3C1C6
:101A600080E091E07ED9B3DEBEC180E091E079D91B
:101A700081E09BDCB8C1DE011196EAE9F4E08BE07D
:101A800001900D928150E1F78DEE93E055D884E4FA
:101A900096E00E94911D9B01AC018B0180910D0588
:101AA000882339F084E496E0B9014AE050E00E94CE
:101AB000B81C80910D05882399F084E496E06AEFC4
:101AC00071E00E94641B84E496E0B8014AE050E0B3
:101AD0000E94B81C84E496E067EE71E00E94A01BAF
:101AE000C8015BDD48E024E07E010894E11CF11CA4
:101AF00087010E949E0280E090E060EF73E0BDC02D
:101B000080E091E02ED94EDC882329F080E090E03F
:101B100068EF73E004C088E090E068E074E043E3BD
:101B200051E08DD860C180E091E01BD980E090E069
:101B30002ADE80E090E06CE174E0F1CF81E005DD29
:101B400052C188E294E00E949C0584E496E00E94E1
:101B5000AE1A84E496E00E94911D162F072F809103
:101B60000C05882331F084E496E04AE050E00E94BE
:101B7000CA1C812F902F9C012115310511F021E005
:101B800030E0122FC901FFDD105D1093350480E0B5
:101B900090E06AE274E0C3CF80E091E0E2D881E0B7
:101BA00090E0F1DD80E090E068E374E0B8CF83E49A
:101BB00094E00E949C0593DA90E00E94C720182FC1
:101BC000823539F0873429F0823419F0EE24FF246D
:101BD00009C084E496E00E94911DDC01CB017C01E8
:101BE0000E94A605173479F0183420F4123409F055
:101BF000FAC012C01F34C9F0123509F0F4C0C70191
:101C000061E007DEF0C0C701893C910514F088EC63
:101C100090E061E0ECDBE7C0C701893C910514F07E
:101C200088EC90E061E0F5DBDEC081E0B5DDDBC093
:101C3000DE011196EAE9F4E08BE001900D9281500B
:101C4000E1F78DEE93E00E949C0584E496E00E940B
:101C5000911D7B018C01CB010E94A605C70118DDF7
:101C600048E024E07E010894E11CF11C87010E94F9
:101C70009E0280E090E06BE474E0A70126D8B3C038
:101C800080E091E06ED88BDB882329F080E090E043
:101C900062E574E044CF85E090E061E674E03FCF18
:101CA00080E091E05ED8C7DD9EC081E02DDB9BC067
:101CB00080E091E056D802DB96C080E091E051D8F8
:101CC0000E94EB0590C080E091E04BD880E090E06E
:101CD00064E774E024CF4FD886C031DA84C080E056
:101CE00091E03FD806D97FC080E091E03AD81F3319
:101CF000A1F0183691F084E496E060ED71E00E9466
:101D0000641B84E496E0612F0E94841B84E496E0C7
:101D100060E874E00E94DE1C66C084E496E065EC36
:101D200071E00E94A01B84E496E06AEB71E00E94DF
:101D3000A01B84E496E064EA71E00E94A01B84E4A6
:101D400096E063E871E00E94A01B84E496E065E7FA
:101D500071E00E94A01B84E496E066E671E00E94B8
:101D6000A01B84E496E064E571E00E94A01B84E47B
:101D700096E06EE371E00E94A01B84E496E062E2CC
:101D800071E00E94A01B84E496E060E171E00E9493
:101D9000A01B84E496E065E071E00E94641B84E48B
:101DA00096E060910D054AE050E00E94631C84E4D7
:101DB00096E06CEF70E00E94641B84E496E0609112
:101DC0000E054AE050E00E94631C84E496E064EF54
:101DD00070E00E94641B84E496E060910C054AE088
:101DE00050E00E94631C61E070E080E090E00E949F
:101DF0009A172B96E6E00C94A4208CE195E062E023
:101E000043E006C68CE195E061E043E001C680E175
:101E100095E061E043E0FCC580E195E062E043E0ED
:101E2000F7C5F999FECF72BD61BDF89A80B50895E6
:101E3000F999FECF1FBA72BD61BD40BD0FB6F894CF
:101E4000FA9AF99A0FBE0895FC01278530894189D5
:101E5000528983859485A585B685281B390B4A0B45
:101E60005B0BB901CA010895A0E0B0E0EAE3FFE02E
:101E70000C948020EC01E8DF5B016C012B893C892C
:101E80004D895E89CA01B9010E94581F7B018C01EE
:101E90002B8D3C8D4D8D5E8DCA01B9010E94A11D17
:101EA0009B01AC01C801B7010E94091E0E94711E6E
:101EB0009B01AC01A114B104C104D104B9F4623096
:101EC0007105810591050CF085C01BA21CA21DA205
:101ED0001EA280E090E0A0E0B0E08B8B9C8BAD8BED
:101EE000BE8B1BAA1CAA1DAA1EAA0BC1EBA8FCA88C
:101EF0000DA91EA91A141B041C041D0444F51E146C
:101F00001F041006110674F46A157B058C059D05E7
:101F1000B4F5CD5BDF4F8881C354D040882309F0EE
:101F200059C02DC0E114F1040105110509F452C096
:101F30006A157B058C059D050CF04CC0CD5BDF4F11
:101F40008881C354D040813009F044C038C01E1489
:101F50001F0410061106DCF488279927DC018A1972
:101F60009B09AC09BD09281739074A075B073CF4F0
:101F7000CD5BDF4F8881C354D040813059F588272D
:101F80009927DC01821B930BA40BB50B1FC0E11436
:101F9000F10401051105F1F088279927DC018A1960
:101FA0009B09AC09BD09281739074A075B0794F458
:101FB000CD5BDF4F8881C354D040882359F48827F4
:101FC0009927DC018E199F09A00BB10B8BAB9CAB41
:101FD000ADABBEAB6BA87CA88DA89EA861147104A4
:101FE00081049104A9F48FA998ADA9ADBAAD8BAFC6
:101FF0009CAFADAFBEAFFE01ED5BFF4F10821A1478
:102000001B041C041D040CF049C081E0808346C001
:10201000ABACBCACCDACDEACC601B50120E030E071
:1020200040E050EC0E94581F7B018C01C401B301B9
:102030000E94A41E20E030E040E850E40E94581FB7
:1020400020E030E040E85FE30E94A11D9B01AC016D
:10205000C801B7010E94091E9B01AC01C601B50170
:102060000E94A11D7B018C016BAF7CAF8DAF9EAF39
:10207000EF96A880B980CA80DB80EF979501A60112
:102080000E94541F181624F4D801C70157016D018E
:10209000C501D6018BAF9CAFADAFBEAF8BA99CA9DC
:1020A000ADA9BEA90196A11DB11D8BAB9CABADAB7B
:1020B000BEAB6BAD7CAD8DAD9EAD0E94761E6BA3AD
:1020C0007CA38DA39EA360E074E284E799E42BAD2A
:1020D0003CAD4DAD5EAD0E94091E9B01AC016B8B0A
:1020E0007C8B8D8B9E8BCD5BDF4F8881C354D04022
:1020F000882339F4DA01C901B0588B8B9C8BAD8BE6
:10210000BE8BCDB7DEB7EEE00C949C20FC0187853A
:102110009089A189B28984179507A607B70731F07E
:102120004787508B618B728BCF019ECE0895CF92E3
:10213000DF92EF92FF920F931F93FC0186EE94E0E3
:1021400091838083128213861486158616861786DD
:10215000108A118A128A0F2EF0E0CF2EF0E0DF2EC7
:10216000F0E0EF2EF0E0FF2EF02DC38AD48AE58A4E
:10217000F68A00E010E020E83FE3078B108F218F04
:10218000328F038F148F258F368F078F10A321A3D3
:1021900032A313A214A215A216A281E090E094A784
:1021A00083A78FEF86A717A210A611A612A61382E7
:1021B00014821582168270AB67A752AB41AB13AA8B
:1021C00014AA15AA16AAC7AAD0AEE1AEF2AEC3AE43
:1021D000D4AEE5AEF6AEFF96019311932193319301
:1021E0001082E354F04017821086118612861F91E8
:1021F0000F91FF90EF90DF90CF900895EF92FF92B4
:102200000F931F93CF93DF93EC017A018B016F89BA
:10221000788D898D9A8DA80197010E94051E8823CB
:10222000D9F1EF8AF88E098F1A8FEF9660E074E289
:1022300084E799E4A80197010E94091E68837983C5
:102240008A839B83EF978BA99CA9ADA9BEA9181679
:1022500019061A061B0604F52B893C894D895E89EF
:10226000CA01B9010E94581F7B018C012B8D3C8D46
:102270004D8D5E8DCA01B9010E94A11D9B01AC016B
:10228000C801B7010E94091E0E94711E6BAB7CAB96
:102290008DAB9EABCE01E8DDCDB7DEB7E6E00C94AA
:1022A000A420DC0112968C911297833001F18430C6
:1022B00040F4813089F0ED91FC911197823098F4CF
:1022C00007C0863011F1883049F1843079F516C0A5
:1022D0000084F185E02D1FC0ED91FC9111970284DF
:1022E000F385E02D18C00484F585E02D14C0ED9130
:1022F000FC9111970684F785E02D0DC0ED91FC91BE
:1023000011970088F189E02D06C0ED91FC9111979D
:102310000288F389E02DCD0109950895ED91FC9196
:1023200011970488F589E02DCD0109950895CF9383
:10233000DF93EC016B897C898D899E8920E030E0F8
:1023400040E050E00E94541F18161CF4EFA5F8A9B5
:1023500002C0E9A9FAA90995DF91CF910895DC019E
:1023600043705070607070704130510561057105A7
:10237000F1F0423051056105710534F44115510504
:102380006105710561F008954230510561057105DF
:10239000B1F0433051056105710501F518C0ED91AB
:1023A000FC9111970480F581E02D62E00EC0ED9163
:1023B000FC9111970480F581E02D63E006C0ED915A
:1023C000FC910480F581E02D61E009950895ED917F
:1023D000FC910480F581E02D60E009950895CF938C
:1023E000DF93EC01CB01BA0123E030E040E050E0A4
:1023F0000E946120613071058105910591F0623084
:10240000710581059105A9F0611571058105910599
:10241000C1F4E881F9810480F581E02DCE0164E00A
:102420000FC0E881F9810480F581E02DCE0161E0E3
:1024300007C0E881F9810480F581E02DCE0162E0DA
:102440000995DF91CF910895DC0143705070607061
:1024500070704130510561057105F1F04230510550
:102460006105710534F4411551056105710561F08F
:1024700008954230510561057105B1F043305105B1
:102480006105710501F518C0ED91FC91119704806B
:10249000F581E02D65E00EC0ED91FC91119704806F
:1024A000F581E02D66E006C0ED91FC910480F58198
:1024B000E02D6AE009950895ED91FC910480F58185
:1024C000E02D69E009950895CF93DF93EC01CB01EE
:1024D000BA0126E030E040E050E00E946120623026
:1024E00071058105910589F16330710581059105BB
:1024F00064F46115710581059105B9F061307105CC
:102500008105910509F041C018C06430710581054D
:10251000910559F16430710581059105F4F065303C
:1025200071058105910589F528C0E881F98104804C
:10253000F581E02DCE0164E027C0E881F9810480B7
:10254000F581E02DCE0165E01FC0E881F9810480AE
:10255000F581E02DCE0161E017C0E881F9810480AA
:10256000F581E02DCE0163E00FC0E881F9810480A0
:10257000F581E02DCE0162E007C0E881F981048099
:10258000F581E02DCE0166E00995DF91CF910895A8
:10259000CF93DF93DC014770507060707070CA0198
:1025A0004830510580F586599F4FCD91DC911197A8
:1025B000FC010C94B320EC81FD81CD0161E022C0CF
:1025C000EC81FD81CD0165E01DC0EC81FD81CD0177
:1025D00064E018C0EC81FD81CD0166E013C0EC81A0
:1025E000FD81CD0162E00EC0EC81FD81CD016AE08C
:1025F00009C0EC81FD81CD0168E004C0EC81FD8162
:10260000CD0169E00995DF91CF910895CF93DF93D4
:10261000EC018A818823D9F08B8161E072D58C81AD
:1026200061E06FD58A81843011F0883031F48D817A
:1026300061E067D58E8161E064D58EA58F3F39F06A
:1026400061E05FD56DA581E068278EA5C6D5DF91D5
:10265000CF910895CF93DF93EC018A81882369F0AD
:10266000E881F9810480F581E02DCE0160E00995D3
:102670008EA58F3F11F06DA5B0D5DF91CF91089554
:10268000A0E0B0E0E6E4F3E10C948620FC012281B6
:10269000243029F0283019F092E0D92E02C084E0CD
:1026A000D82E8F01C0E0D0E0E62EFF24CC24C394C6
:1026B000F8012381C7010C2E02C0959587950A94D5
:1026C000E2F7678180FD6C25822F87D521960F5F09
:1026D0001F4FCD1568F3CDB7DEB7E8E00C94A2200C
:1026E000CF93DF93EC01E881F9810480F581E02D3F
:1026F000CD5BDF4F8881C354D040882311F460E064
:1027000001C062E0CE010995E881F9810480F5817C
:10271000E02DCD5BDF4F8881C354D040882311F476
:1027200061E001C063E0CE0109958BA59CA524D48E
:10273000E881F9810480F581E02DCD5BDF4F888150
:10274000C354D040882311F460E001C062E0CE01A0
:102750000995DF91CF910895A0E0B0E0E2EBF3E1BD
:102760000C948020EC013A014B01CB01BA0120E02E
:1027700030E040E050E00E94051E882309F440C08C
:10278000AB8CBC8CCD8CDE8CC601B501A401930151
:102790000E94051E8823A1F16BA97CA98DA99EA981
:1027A0000E94A41E7B018C01C601B501A401930106
:1027B0000E94091E9B01AC01C801B7010E94581F6D
:1027C0000E94711E6BAB7CAB8DAB9EAB60E070E08A
:1027D00080E090E4A40193010E94091E0E94BF1FA3
:1027E00020E034E244E759E40E94581F6FAB78AF11
:1027F00089AF9AAF6B8E7C8E8D8E9E8ECE0134DB30
:10280000CDB7DEB7EEE00C949C20EF92FF920F93D1
:102810001F93CF93DF93EC018BA19CA1ADA1BEA12F
:102820000097A105B10509F44DC05ED37B018C0171
:102830002FA138A549A55AA58BA19CA1ADA1BEA1E8
:10284000820F931FA41FB51F82179307A407B50714
:1028500030F0E816F9060A071B0758F405C0E81619
:10286000F9060A071B0770F1E216F30604071507BD
:1028700048F5CD5BDF4F8881C354D0402B853C8524
:102880004D855E85813029F42F5F3F4F4F4F5F4F5D
:1028900004C021503040404050402B873C874D873A
:1028A0005E87E881F9814B855C856D857E85068034
:1028B000F781E02DCE010995EFA2F8A609A71AA786
:1028C00081E001C080E0CDB7DEB7E6E00C94A42043
:1028D000CF93DF93EC0199DF882311F0CE01C4DAA6
:1028E0006B897C898D899E8920E030E040E050E052
:1028F0000E94051E882341F4CE01A6DA20E061156E
:1029000071058105910509F021E0822FDF91CF91BA
:102910000895CF93DF93EC01CE01DADF8823E1F74E
:10292000DF91CF9108950F931F938C01EFDBC801C6
:10293000F0DF1F910F910895FC01108208950F930D
:102940001F938C0180E090E0F8012081318140E00C
:1029500050E00E9420209B01AC0160E077E883E911
:1029600093E00E943F20F8012383348345835683FC
:1029700017821086118612861F910F91089581EBA0
:1029800095E0DACFE0EBF0E0908193689083877078
:102990008093B1001092B3008BE061E0B2C3E0EB32
:1029A000F0E090819362908387708093B1001092E1
:1029B000B40083E061E0A5C3CF93DF938CE060E0D7
:1029C0000CD488E060E009D4C7E0D0E084E060E0A7
:1029D00004D48091B20590E00C2E02C095958795A5
:1029E0000A94E2F780FF03C088E061E002C088E05B
:1029F00060E0F3D384E061E0F0D321978FEFCF3F25
:102A0000D80721F78CE061E0E8D3DF91CF910895FA
:102A10001F93CF93DF93EC018A81813029F414E076
:102A200072E058E030E108C0823011F080E0D0C0A0
:102A300010E271E050E830E4413041F49B85892F89
:102A400086958695869580FF10C009C04230A1F416
:102A50009B85892F86958695869580FD06C0613079
:102A600011F4985F05C0985003C0613019F4905F6D
:102A70009B8752C09051FCCF433041F48B8561302D
:102A800011F4885F01C088508B8746C0443009F03C
:102A900043C08B85613011F48F5F01C081508B87FB
:102AA000AB85AF73AB87A03148F4B0E0EDEBF4E059
:102AB000EA1BFB0B2081A355BB4F19C08A2F805105
:102AC000803148F48A2F90E0FC01E356FB4F2081CF
:102AD000EDECF4E01DC08A2F8052803150F4B0E05C
:102AE000EDEDF4E0EA1BFB0B2081A357BB4F8C916B
:102AF00015C08A2F8053803118F080E020E00EC08E
:102B00008A2F90E0FC01E358FB4F2081EDEEF4E0CA
:102B1000E81BF90B808102C08FEF2FEFEB85EF737D
:102B2000EB879A81913029F42093B3008093B4000D
:102B300004C0923011F427BD88BD272F212B932F7D
:102B4000952B922B90958091B20598239093B20586
:102B5000443019F5E03118F4922B9093B2058E2F82
:102B60008051803130F4752B8091B205872B809392
:102B7000B2058E2F8052803130F4532B8091B205F4
:102B8000852B8093B205E053E031F0F4312B809136
:102B9000B205832B8093B20517C0E695E695E695BE
:102BA000F0E0EE58FF4F0C94B320912B0BC0922B0A
:102BB00009C0972B07C0572B952B04C0352B01C09C
:102BC000312B932B9093B20581EB95E0F5DE8B854D
:102BD000DF91CF911F910895A0E0B0E0E2EFF5E121
:102BE0000C947F20EC016B01542EA22EEB80FC8014
:102BF0000D811E8123E0A216D1F416950795F79456
:102C0000E794C801B70128EE33E040E050E00E94AD
:102C10003F2039014A01C801B70128EE33E040E006
:102C200050E00E943F207B018C01BB243DC084E02A
:102C3000A81639F794E016950795F794E7949A95B6
:102C4000D1F784E0CC0CDD1C8A95E1F7DACFCE0118
:102C5000652D4A2DDDDEB82EB301C4016BD18F8105
:102C60009885A985BA858E0D9F1DA01FB11F8F83E2
:102C70009887A987BA87885E9340A040B04088F0C3
:102C800061E070E080E090E055D18F819885A98562
:102C9000BA85885E9340A040B0408F839887A9870B
:102CA000BA870894C108D108C114D10481F684E020
:102CB000A81681F52AC0CE01652D44E0A9DEB82E04
:102CC000B301C40137D18F819885A985BA858E0D4E
:102CD0009F1DA01FB11F8F839887A987BA87885E21
:102CE0009340A040B04088F061E070E080E090E068
:102CF00021D18F819885A985BA85885E9340A040AF
:102D0000B0408F839887A987BA87BB2019F080E1EC
:102D1000B81689F6CDB7DEB7EFE00C949B20FC0126
:102D20008281813041F48091B205817E8093B20529
:102D300081EB95E041CE823041F48091B2058E71F5
:102D40008093B20581EB95E037CE08950F931F93E2
:102D50008C018CE061E0D5D187E061E0D2D188E0E0
:102D600061E0CFD184E061E0CCD11092B205C8011E
:102D700023DE87E060E031D21F910F910895DF924A
:102D8000EF92FF920F931F938C017B01D42E81EB66
:102D900095E0DCDFF801F182E082D2821386F1E077
:102DA000DF16F1F48091B205817E8093B20581EB4C
:102DB00095E002DE8BE061E0A4D183E061E0A1D187
:102DC0008BE061E00AD283E061E007D281E0DADDE6
:102DD00081E0E5DD8FEF8093B3008093B40028C0DD
:102DE00082E0D81629F58091B2058E718093B205E4
:102DF00081EB95E0E1DD85E061E083D186E061E093
:102E000080D185E061E0E9D186E061E0E6D184B57A
:102E1000836884BD17BC86E061E073D184B58362AA
:102E200084BD18BC85E061E06CD18FEF87BD88BDA3
:102E30001F910F91FF90EF90DF9008951F920F92D6
:102E40000FB60F9211242F933F938F939F93AF93BD
:102E5000BF938091B7059091B805A091B905B09145
:102E6000BA053091BB050196A11DB11D232F2D5F21
:102E70002D3720F02D570196A11DB11D2093BB05C4
:102E80008093B7059093B805A093B905B093BA05A0
:102E90008091B3059091B405A091B505B091B605A8
:102EA0000196A11DB11D8093B3059093B405A09325
:102EB000B505B093B605BF91AF919F918F913F91AA
:102EC0002F910F900FBE0F901F9018958FB7F89409
:102ED0002091B7053091B8054091B9055091BA05D8
:102EE0008FBFB901CA0108959FB7F8942091B30527
:102EF0003091B4054091B5055091B60586B5A89BB3
:102F000006C08F3F21F02F5F3F4F4F4F5F4F9FBF56
:102F1000542F432F322F2227280F311D411D511DC1
:102F200082E0220F331F441F551F8A95D1F7B90144
:102F3000CA010895EF92FF920F931F93CF93DF93EF
:102F40007B018C01D1DFEB010DC0CEDF6C1B7D0B53
:102F5000685E7340D0F30894E108F1080109110993
:102F6000C851DC4FE114F1040105110571F7CDB72B
:102F7000DEB7E6E00C94A420019739F0880F991F82
:102F8000880F991F02970197F1F70895789484B5F7
:102F9000826084BD84B5816084BD85B5826085BD55
:102FA00085B5816085BDEEE6F0E08081816080833B
:102FB000E1E8F0E01082808182608083808181601E
:102FC0008083E0E8F0E0808181608083E1EBF0E0E5
:102FD000808184608083E0EBF0E080818160808389
:102FE000EAE7F0E080818460808380818260808372
:102FF0008081816080838081806880831092C1009D
:103000000895982F8E3008F09E5097708091BE04DE
:103010008295880F880F807C892B80937C0080911B
:103020007A00806480937A0080917A0086FDFCCFDC
:103030002091780040917900942F80E030E0282B97
:10304000392BC90108951F93CF93DF93182FEB01FC
:1030500061E057D0209709F44AC0CF3FD10509F469
:1030600049C0E12FF0E0EA52FC4F84918330C1F077
:10307000843028F4813051F08230B1F50CC08630B4
:1030800019F1873049F1843079F514C084B580682E
:1030900084BDC7BD32C084B5806284BDC8BD2DC0AB
:1030A00080918000806880938000D0938900C093D5
:1030B000880023C080918000806280938000D0933C
:1030C0008B00C0938A0019C08091B0008068809303
:1030D000B000C093B30011C08091B00080628093B3
:1030E000B000C093B40009C0C038D1051CF4812FD2
:1030F00060E002C0812F61E070D0DF91CF911F911D
:103100000895CF93DF93482F50E0CA018E539C4F10
:10311000FC01349142555C4FFA018491882369F196
:1031200090E0880F991FFC01E057FC4FA591B491E6
:10313000FC01E656FC4FC591D491662351F42FB79C
:10314000F8948C91932F909589238C93888189236F
:103150000BC0623061F42FB7F8948C91932F909547
:1031600089238C938881832B88832FBF06C09FB7C8
:10317000F8948C91832B8C939FBFDF91CF9108950E
:10318000833071F0843028F48130A1F0823021F551
:1031900014C08630B1F08730D1F08430E9F404C037
:1031A000809180008F7703C0809180008F7D809315
:1031B0008000089584B58F7702C084B58F7D84BD6B
:1031C00008958091B0008F778093B000089580912A
:1031D000B0008F7D8093B0000895FF920F931F93EE
:1031E000F62E482F50E0CA018A529C4FFC012491D0
:1031F000CA018E539C4FFC01149142555C4FFA0159
:1032000004910023C1F0222311F0822FB9DFE02FB7
:10321000F0E0EE0FFF1FE656FC4FA591B4919FB76B
:10322000F894FF2021F48C911095812302C08C9199
:10323000812B8C939FBF1F910F91FF90089508954C
:103240001F920F920FB60F9211242F933F934F931B
:103250008F939F93EF93FF938091C00082FD1DC0D9
:103260004091C6002091FC053091FD052F5F3F4F36
:103270002F7330708091FE059091FF052817390754
:1032800071F0E091FC05F091FD05E454FA4F4083A4
:103290003093FD052093FC0502C08091C600FF918C
:1032A000EF919F918F914F913F912F910F900FBE72
:1032B0000F901F9018951F920F920FB60F92112426
:1032C0002F933F938F939F93EF93FF93209140060B
:1032D00030914106809142069091430628173907A4
:1032E00031F48091C1008F7D8093C10014C0E091C2
:1032F0004206F0914306E050FA4F20818091420649
:103300009091430601968F7390709093430680933B
:1033100042062093C600FF91EF919F918F913F91BC
:103320002F910F900FBE0F901F901895A0E0B0E066
:10333000EBE9F9E1E7C6FC011382128288EE93E023
:10334000A0E0B0E084839583A683B78380E095E016
:10335000918380837587648757874687318B208B5D
:10336000138B028BF58AE48AD78AC68AB18EA08E27
:10337000938E828E8F85848F8889858F8989868FA9
:103380008A89878F8B8980A32096ECE0D7C6AF927D
:10339000BF92DF92EF92FF920F931F93CF93DF9331
:1033A000EC017A018B01DD24403081EE580780E08A
:1033B000680780E0780711F0DD24D39491E0A92E0E
:1033C000B12CEC89FD89DD2069F0C50108A002C09F
:1033D000880F991F0A94E2F7808360E079E08DE31B
:1033E00090E005C0108260E874E88EE190E0A801EA
:1033F000970145D621503040404050405695479562
:103400003795279580E12030380720F0DD2011F036
:10341000DD24D7CFE889F9893083EA89FB892083C5
:1034200019A2EE89FF89408121E030E0C9010C8CAE
:1034300002C0880F991F0A94E2F7482B4083EE8957
:10344000FF894081C9010D8C02C0880F991F0A9421
:10345000E2F7482B4083EE89FF894081C9010E8C39
:1034600002C0880F991F0A94E2F7482B4083EE8927
:10347000FF8980810F8C02C0220F331F0A94E2F76C
:10348000209528232083DF91CF911F910F91FF90EA
:10349000EF90DF90BF90AF900895DC011C96ED9106
:1034A000FC911D97E05CFF4F2191319180819181CA
:1034B000281B390B2F733070C901089584E496E0FE
:1034C000ECDF892B09F0BBCE0895DC011C96ED9151
:1034D000FC911D97E05CFF4F20813181E054F0406A
:1034E000DF01AE5BBF4F8D919C9111972817390773
:1034F00019F42FEF3FEF07C08D919C91E80FF91F52
:103500008081282F30E0C9010895DC011C96ED91DF
:10351000FC911D97E05CFF4F20813181E054F04029
:10352000DF01AE5BBF4F8D919C9111972817390732
:1035300019F42FEF3FEF10C08D919C911197E80F78
:10354000F91F20818D919C91119701968F73907036
:1035500011969C938E9330E0C9010895DC019196F9
:103560008C919197882339F05496ED91FC91559761
:10357000808186FFF9CF91961C920895CF93DF93B7
:10358000EC01EE85FF85E05CFF4F20813181E05446
:10359000F0402F5F3F4F2F733070DF01AE5BBF4FA6
:1035A0008D919C91119728173907D1F3E05CFF4F5B
:1035B00080819181E054F040E80FF91F6083EE852F
:1035C000FF85E05CFF4F31832083EE89FF892081F6
:1035D00081E090E00F8C02C0880F991F0A94E2F7F7
:1035E000282B208381E089A3EC89FD898081806478
:1035F000808381E090E0DF91CF9108958F929F9238
:10360000AF92BF92CF92DF92EF92FF920F931F93F0
:1036100000D000D00F92EDB7FEB7319684E0ADB781
:10362000BEB711968C9383E0818387E0828385E027
:10363000838381E0848384E496E06CEB75E040E072
:1036400056E025EC30E004EC10E0B0ECEB2EF12C71
:10365000A1ECCA2ED12CF2ECAF2EB12CE6EC8E2EC2
:10366000912C64DE0F900F900F900F900F901F9190
:103670000F91FF90EF90DF90CF90BF90AF909F9011
:103680008F900895A0E0B0E0E7E4FBE13FC57C0146
:103690006B018A01C0E0D0E00FC0D6016D916D01D1
:1036A000D701ED91FC910190F081E02DC7010995C2
:1036B000C80FD91F015010400115110571F7CE0137
:1036C000CDB7DEB7E8E03EC5EF92FF920F931F93B0
:1036D000CF93DF937C018B01C0E0D0E0F8010F5F56
:1036E0001F4F6491662359F0D701ED91FC91019031
:1036F000F081E02DC7010995C80FD91FEFCFCE018A
:10370000CDB7DEB7E6E020C5DC01ED91FC9101907C
:10371000F081E02D09950895EF92FF920F931F938A
:103720008C016DE0F1DF7C01C8016AE0EDDF9C01F6
:103730002E0D3F1DC9011F910F91FF90EF9008952D
:10374000EF92FF920F931F937C01BEDF8C01C701A4
:10375000E3DF9C01200F311FC9011F910F91FF90E2
:10376000EF9008950F931F93CF93DF938C01EB019C
:103770006115710519F420E030E00EC0CB010E9404
:10378000C702AC01D801ED91FC910280F381E02DDC
:10379000C801BE0109959C01C901DF91CF911F911C
:1037A0000F9108954F925F927F928F929F92AF9266
:1037B000BF92CF92DF92EF92FF920F931F93DF930E
:1037C000CF93CDB7DEB7A1970FB6F894DEBF0FBE8B
:1037D000CDBF2C01742ECB01223008F42AE019A2AF
:1037E00031E2C32ED12CCC0EDD1E822E9924AA24C8
:1037F000BB24672D752FA501940141D479018A015D
:10380000C801B701A50194011BD4472D461B08949C
:10381000C108D1084A3010F4405D01C0495CF6018E
:103820004083E114F1040105110521F07E2C5F2D88
:10383000C801DFCFC201B60195DFA1960FB6F8949B
:10384000DEBF0FBECDBFCF91DF911F910F91FF90D3
:10385000EF90DF90CF90BF90AF909F908F907F9030
:103860005F904F900895DC012115310541F4ED91F1
:10387000FC910190F081E02D642F0995089592CF7D
:10388000EF92FF920F931F937C01EDDF8C01C70134
:1038900043DF9C01200F311FC9011F910F91FF9041
:1038A000EF900895EF92FF920F931F939A01E62EE7
:1038B000FF2400E010E0B801A701D5DF1F910F91B0
:1038C000FF90EF900895EF92FF920F931F937C016A
:1038D000E9DF8C01C70120DF9C01200F311FC901E6
:1038E0001F910F91FF90EF900895A0E0B0E0EAE7FC
:1038F000FCE10CC4EC016A017B012115310541F4A6
:10390000E881F9810190F081E02D642F099518C0BC
:103910002A303105A1F477FF11C06DE2F5DE8C018C
:1039200044275527BA014C195D096E097F09CE015C
:103930002AE038DF9C01200F311F03C02AE032DF6C
:103940009C01C901CDB7DEB7E8E0FCC3EF92FF925E
:103950000F931F937C01C9DF8C01C701DDDE9C0141
:10396000200F311FC9011F910F91FF90EF90089513
:10397000EF92FF920F931F937B019A010027F7FCB0
:103980000095102FB801A701B0DF1F910F91FF9094
:10399000EF900895EF92FF920F931F937C01E8DF61
:1039A0008C01C701B9DE9C01200F311FC9011F9195
:1039B0000F91FF90EF900895D5CE0895EF92FF926A
:1039C0000F931F937C01F8DF8C01C701A5DE9C01DA
:1039D000200F311FC9011F910F91FF90EF900895A3
:1039E000CF93DF93EC0172DA688779878A879B87A8
:1039F000E881F9810084F185E02DCE0109959C01D3
:103A000097FF14C063DA288539854A855B85621B78
:103A1000730B840B950B2C813D814E815F81621766
:103A200073078407950720F32FEF3FEFC901DF915C
:103A3000CF910895CF93DF93EC01CE01D1DF9C01AC
:103A400097FD0EC08D32910559F0C0970A9740F04E
:103A5000E881F9810680F781E02DCE010995EDCF4F
:103A6000C901DF91CF910895A0E0B0E0E9E3FDE165
:103A70004AC36C01B62EDEDFEC0197FF04C0EE24D2
:103A8000FF24870148C09924EE24FF248701AB2C32
:103A9000BB24CA15DB0521F1CD32D10519F49924D7
:103AA00093941EC0CE01C0970A97D0F4C801B70105
:103AB0002AE030E040E050E0C3D27B018C01CE012F
:103AC000AA2797FDA095BA2FE80EF91E0A1F1B1F03
:103AD00080ED9FEFAFEFBFEFE80EF91E0A1F1B1F2F
:103AE000D601ED91FC910680F781E02DC601099584
:103AF000C60176DFEC01C0970A9758F2CA15DB05BC
:103B000041F2992041F010950095F094E094E11C69
:103B1000F11C011D111DB701C801CDB7DEB7EBE0E7
:103B20000EC361E0A1CFCF93DF9330DA0E943E0C49
:103B3000CEE5DAE10E94E10C2097E1F3BFDCFACF99
:103B40005058BB27AA270ED075C166D130F06BD173
:103B500020F031F49F3F11F41EF45BC10EF4E095A8
:103B6000E7FB51C1E92F77D180F3BA1762077307DA
:103B70008407950718F071F49EF58FC10EF4E09557
:103B80000B2EBA2FA02D0B01B90190010C01CA0117
:103B9000A0011124FF27591B99F0593F50F4503EC2
:103BA00068F11A16F040A22F232F342F4427585FB4
:103BB000F3CF469537952795A795F0405395C9F7CC
:103BC0007EF41F16BA0B620B730B840BBAF0915084
:103BD000A1F0FF0FBB1F661F771F881FC2F70EC023
:103BE000BA0F621F731F841F48F4879577956795F6
:103BF000B795F7959E3F08F0B3CF9395880F08F0DF
:103C00009927EE0F979587950895D9D008F481E00C
:103C100008950CD00FC107D140F0FED030F021F450
:103C20005F3F19F0F0C0511139C1F3C014D198F3BE
:103C30009923C9F35523B1F3951B550BBB27AA272D
:103C400062177307840738F09F5F5F4F220F331F9F
:103C5000441FAA1FA9F333D00E2E3AF0E0E830D06B
:103C600091505040E695001CCAF729D0FE2F27D06E
:103C7000660F771F881FBB1F261737074807AB073C
:103C8000B0E809F0BB0B802DBF01FF2793585F4FB1
:103C90002AF09E3F510568F0B6C000C15F3FECF3CB
:103CA000983EDCF3869577956795B795F7959F5F76
:103CB000C9F7880F911D9695879597F90895E1E0CA
:103CC000660F771F881FBB1F621773078407BA0729
:103CD00020F0621B730B840BBA0BEE1F88F7E09584
:103CE000089504D06894B111D9C00895BCD088F06B
:103CF0009F5790F0B92F9927B751A0F0D1F0660FD8
:103D0000771F881F991F1AF0BA95C9F712C0B130F2
:103D100081F0C3D0B1E00895C0C0672F782F882705
:103D2000B85F39F0B93FCCF3869577956795B39531
:103D3000D9F73EF490958095709561957F4F8F4FA0
:103D40009F4F0895E89409C097FB3EF490958095A5
:103D5000709561957F4F8F4F9F4F9923A9F0F92F51
:103D600096E9BB279395F695879577956795B795CF
:103D7000F111F8CFFAF4BB0F11F460FF1BC06F5FB5
:103D80007F4F8F4F9F4F16C0882311F096E911C0C7
:103D9000772321F09EE8872F762F05C0662371F0E8
:103DA00096E8862F70E060E02AF09A95660F771FFC
:103DB000881FDAF7880F9695879597F90895990FD8
:103DC0000008550FAA0BE0E8FEEF16161706E807E5
:103DD000F907C0F012161306E407F50798F0621B06
:103DE000730B840B950B39F40A2661F0232B242BDB
:103DF000252B21F408950A2609F4A140A6958FEFFA
:103E0000811D811D089597F99F6780E870E060E04B
:103E100008959FEF80EC089500240A941616170663
:103E200018060906089500240A94121613061406AB
:103E300005060895092E0394000C11F4882352F00E
:103E4000BB0F40F4BF2B11F460FF04C06F5F7F4FC6
:103E50008F4F9F4F089557FD9058440F551F59F0AD
:103E60005F3F71F04795880F97FB991F61F09F3F67
:103E700079F087950895121613061406551FF2CF90
:103E80004695F1DF08C0161617061806991FF1CFE0
:103E900086957105610508940895E894BB27662707
:103EA0007727CB0197F908958ADF08F48FEF0895FB
:103EB0000BD0C0CFB1DF28F0B6DF18F0952309F0A2
:103EC000A2CFA7CF1124EACFC6DFA0F3959FD1F3ED
:103ED000950F50E0551F629FF001729FBB27F00DB8
:103EE000B11D639FAA27F00DB11DAA1F649F66270D
:103EF000B00DA11D661F829F2227B00DA11D621F5C
:103F0000739FB00DA11D621F839FA00D611D221F15
:103F1000749F3327A00D611D231F849F600D211DF9
:103F2000822F762F6A2F11249F5750408AF0E1F09C
:103F300088234AF0EE0FFF1FBB1F661F771F881FE5
:103F400091505040A9F79E3F510570F05CCFA6CF2D
:103F50005F3FECF3983EDCF3869577956795B795D0
:103F6000F795E7959F5FC1F7FE2B880F911D9695FA
:103F7000879597F9089511F40EF44BCF4AC073DF7B
:103F8000D0F39923D9F3CEF39F57550B87FF51D028
:103F900056959795B0E020F4660F771F881FBB1FDA
:103FA0001F930F9300249001A0018001F001A0E86D
:103FB0000E0F1F1F0A1E511D601B710B8009B50BD0
:103FC00048F4600F711F801DB51F0E1B1F0B0A0ADE
:103FD000510907C02E0F3F1F4A1F0E0F1F1F0A1E39
:103FE000511D660F771F881FBB1FA695F795E79594
:103FF000F8F60617170708065B07211D311D411D3E
:104000000F911F91B901842F9158880F969587952C
:1040100008959F3F49F0915028F4869577956795CC
:10402000B7959F5F80389F4F880F9695879597F932
:10403000089591505040660F771F881FD2F708955A
:10404000629FD001739FF001829FE00DF11D649F7C
:10405000E00DF11D929FF00D839FF00D749FF00D08
:10406000659FF00D9927729FB00DE11DF91F639FA9
:10407000B00DE11DF91FBD01CF0111240895A1E28A
:104080001A2EAA1BBB1BFD010DC0AA1FBB1FEE1FD2
:10409000FF1FA217B307E407F50720F0A21BB30B1D
:1040A000E40BF50B661F771F881F991F1A9469F799
:1040B00060957095809590959B01AC01BD01CF01F5
:1040C000089597FB092E05260ED057FD04D0D7DFA3
:1040D0000AD0001C38F450954095309521953F4FFB
:1040E0004F4F5F4F0895F6F79095809570956195C5
:1040F0007F4F8F4F9F4F08952F923F924F925F9225
:104100006F927F928F929F92AF92BF92CF92DF92E7
:10411000EF92FF920F931F93CF93DF93CDB7DEB74C
:10412000CA1BDB0B0FB6F894DEBF0FBECDBF0994E0
:104130002A88398848885F846E847D848C849B8437
:10414000AA84B984C884DF80EE80FD800C811B8145
:10415000AA81B981CE0FD11D0FB6F894DEBF0FBE74
:10416000CDBFED010895EE0FFF1F0590F491E02DF6
:104170000994911114C080538A50E0F70895911169
:104180000EC0803219F089508550D0F708959111F2
:10419000089581568A5108F48052855808959927C8
:0841A00088270895F894FFCF71
:1041A800003A2000204F4B00204572726F72003A8F
:1041B800005265706F7274205661726961626C6535
:1041C800733A20566572626F7365204E6F74205380
:1041D8006574000A00476574446174613A20556E3D
:1041E800696E697469616C697A65642045455052E5
:1041F8004F4D006C696E65203D2000637263203D61
:1042080020007265616420637263203D200077722C
:1042180069746520636F756E74203D20004765746E
:10422800446174613A2020435243204572726F7290
:1042380000303A2047657444617461204F4B3A203E
:10424800007772697465203078006C696E652800A3
:10425800293A20007A65726F0057726974652045A3
:104268004550524F4D205A65726F65640057726908
:10427800746520454550524F4D000A27003C3D00CB
:104288002700566572626F7365206F6E2E00536546
:104298007420566572626F736500706F776572205F
:1042A8006C6576656C203D200053746174757331BC
:1042B80032760073656E7365280029203D2000530F
:1042C8007461747573446F6F72005374617475739D
:1042D800446F6F7220447261776572204F70656E0B
:1042E800005365744C454420477265656E005365FC
:1042F800744C454420426C75650073746570436F57
:10430800756E74203D2000536F756E644669744D58
:104318006963726F582E696E6F0066616C73650011
:10432800486F6D650072657175657374656420000A
:104338002064656772656573202873746570200052
:104348002069732000206465672900456C657661E3
:1043580074696F6E20686F6D65206E6F7420736569
:104368006E73656400202000556E61626C65207470
:104378006F207A65726F20656C65766174696F6EFF
:104388002E0053656E736F72207361797320656CAC
:1043980065766174696F6E20686F6D6520756E65EE
:1043A800787065637465646C792E006578706563F0
:1043B80074656420726F746174696F6E20686F6DC4
:1043C800652073656E736F722061742073746570F5
:1043D800203000556E61626C6520746F207A6572BA
:1043E8006F20726F746174696F6E2E0053656E73FF
:1043F8006F72207361797320726F746174656420C1
:10440800686F6D6520756E65787065637465646C3A
:10441800792E005365744C4544204F666600436806
:1044280065636B5265616479203132762066616913
:104438006C75726500436865636B526561647920C9
:10444800446F6F72204F70656E206661696C75727B
:104458006500436865636B526561647900536574F0
:104468004C4544205265640052657365740052657A
:1044780073657474696E672E200043616C6962729B
:104488006174696E672E20003E20002E003F2000D8
:10449800456C657661746500456C65766174696F15
:1044A8006E20486F6D656400456C65766174696F50
:1044B8006E206E6F7420486F6D656400496D61678A
:1044C800696E67204F6666003F00536574496D61E9
:1044D80067696E6728582900496D6167696E6720AA
:1044E8004F6E005B5247424F5D3F00526F746174DC
:1044F8006500526F746174696F6E20486F6D6564F2
:1045080000526F746174696F6E206E6F7420486F0B
:104518006D6564004D61796265206C617465720037
:10452800272E202054797065203F20666F72206DF9
:104538006F726520696E666F2E007878782E7979AB
:104548007979202000322E30356300A50400193215
:104558004A62788DA2B4C5D4E1ECF4FAFDFF016398
:10456800756265486F6D65456C65766174696F6ED7
:104578000063756265486F6D65526F746174696F29
:104588006E00000000002A13061340135111971102
:104598007013AF11EF1124126412C812000000004A
:0C45A800BE1A421B4D1A851A651AAE1A85
:00000001FF
