:1000000076C200009CC200009AC2000098C20000A4
:1000100096C2000094C2000092C2000090C200008C
:100020008EC200008CC200008AC2000088C200009C
:1000300086C2000084C2000082C2000080C20000AC
:100040000C94CF167CC200000C94D1180C940C199F
:1000500076C2000074C2000072C2000070C20000CC
:100060006EC200006CC20000EF0C470D250E520D51
:10007000550D250E250E8A0D250E7F0D250E250EFC
:10008000250EC90D010E250E250E090E250E140E86
:10009000250E1E0EDA0C250EA40E250E250E250E9D
:1000A000250EDE0CE40CE90C340D250E250E250E74
:1000B000250E250E250E250E250E250E250E250EA8
:1000C000250EF10D250E060E250E0E0E250E1C0E0C
:1000D000250E200E8C12911296129B12A012A512C0
:1000E000AA12AF12861588158A158C158D158F15D5
:1000F000921591156563686F203D200064656275F7
:1001000067203D2000766572626F7365203D200098
:100110007A202D2D204E56207265747269657665A1
:100120000A005A3C737472696E672076616C75655B
:100130003E202D2D204E562073746F726500563070
:10014000202D2D20736574206E6F6E2D56657262A2
:100150006F7365005631202D2D2073657420566510
:1001600072626F73650046202D2D206C616D707377
:10017000206F4666004E202D2D206C616D7073201F
:100180006F4E00456E6E6E202D2D20654C6576619C
:10019000746520746F206E6E6E2028746F70203D21
:1001A00020302900526E6E6E202D2D20526F74610A
:1001B000746520746F206E6E6E0053202D2D20729A
:1001C0006553657400436F6D6D616E64733A0A0028
:1001D000756E7265636F676E697A656420636F6DB3
:1001E0006D616E6420270020646567726565732009
:1001F00066726F6D20746F702E00456C6576617449
:100200006520746F20002066726F6D203078007258
:10021000656164200020746F2030780000000000C9
:100220006410B71DC8206E3BAC30D9269041DC76F7
:10023000F4516B6B5861B24D3C7105502083B8EDA1
:1002400044930FF0E8A3D6D68CB361CBB0C2649BC5
:10025000D4D2D38678E20AA01CF2BDBD524F545FBF
:10026000414343454C45524154494F4E203D2000A7
:10027000524F545F4D41585F5350454544203D20F7
:1002800000454C45565F414343454C455241544916
:100290004F4E203D2000454C45565F4D41585F5321
:1002A00050454544203D2000436F6E7374616E7469
:1002B000733A00646562756720203D2000766572A0
:1002C000626F7365203D20006563686F203D2000EC
:1002D000206275742057686F612E2020526F746100
:1002E00074696F6E206E6F7420686F6D65642E0088
:1002F000206275742057686F612E2020456C6576EA
:100300006174696F6E206E6F7420686F6D65642E06
:10031000002075702E00207374617274696E67001E
:1003200031383A33363A34380020004A756E20317D
:10033000392032303134002C206275696C74200011
:100340000A0A0A5375676172437562652076003A3E
:100350002056657273696F6E204F4B3A200037321A
:10036000344D002E7200696E7465726D656469614A
:1003700074652063756265486F6D65456C6576616F
:1003800074696F6E28293D00667265652052414D83
:10039000203D200000000000240027002A0000006B
:1003A0000000250028002B0000000000230026008C
:1003B00029000404040404040404020202020202E8
:1003C0000303030303030102040810204080010219
:1003D0000408102001020408102000000007000299
:1003E00001000003040600000000000000000040BF
:1003F0007A10F35A00A0724E18090010A5D4E80034
:1004000000E87648170000E40B54020000CA9A3B4B
:10041000000000E1F50500008096980000004042D1
:100420000F000000A086010000001027000000005F
:10043000E803000000006400000000000A00000063
:1004400000000100000000002C76D888DC674F080F
:1004500023DFC1DFAE59E1B1B796E5E3E453C63A15
:10046000E651997696E8E6C28426EB898C9B62ED8C
:10047000407C6FFCEFBC9C9F40F2BAA56FA5F49046
:10048000055A2AF75C936B6CF9676DC11BFCE0E4BD
:100490000D47FEF520E6B500D0ED902E0300943513
:1004A00077050080841E080000204E0A000000C866
:1004B0000C333333330F986E12831141EF8D2114B7
:1004C000893BE65516CFFEE6DB18D1844B381BF787
:1004D0007C1D901DA4BBE424203284725E22810026
:1004E000C9F124ECA1E53D2780057014AF1A112451
:1004F0001FBECFEFD8E0DEBFCDBF14E0A0E0B1E07B
:10050000EAE0F1E402C005900D92A434B107D9F7F6
:1005100015E0A4E4B4E001C01D92A23AB107E1F7EE
:1005200014E0CEEED4E004C02297FE010E946620C3
:10053000C83ED107C9F70E94441D0C94832060CDAA
:10054000EF92FF920F931F93F22FF02E47FD02C000
:10055000E4E001C0E4E1242F332727FD309537FF85
:1005600003C0309521953F4F4F2D512F0F2FEE2E69
:1005700019D08F2D912F1F910F91FF90EF9008951B
:10058000FB01DC018D91019080190110D9F3990BC9
:100590000895FC0101900020E9F7809590958E0F59
:1005A0009F1F0895A9E0B0E0E8EDF2E00C9431203F
:1005B0006A01122FA02EBE2C2BE3201718F42CE377
:1005C000922E02C0902E9394AE014F5F5F4F27E0B2
:1005D000092D49D1BC018981E82EFF24C70189700A
:1005E0009070019711F4ADE209C0B1FE02C0ABE218
:1005F00005C0B0FC02C0A0E001C0A0E2E3FE3BC029
:10060000AA2311F423E001C024E0211710F020E018
:1006100002C0121B212FEB2CB4FE02C0322F0AC0E5
:10062000F601322F80E202C0819331503323E1F78B
:10063000C20ED11CAA2319F0F601A1936F01F60195
:100640003196E2FE05C09EE4D6019C9381E404C08D
:100650009EE6D6019C9381E611968C939183329607
:10066000DF01832F90E202C09D9381508823E1F740
:10067000E30FF11D40C0E2FE42C0AA2311F423E0C3
:1006800001C024E0211710F020E002C0121B212F2E
:10069000EB2CB4FE02C0922F0AC0F601922F80E22A
:1006A00002C0819391509923E1F7C20ED11CAA2375
:1006B00019F0F601A1936F01F6013196E2FE08C030
:1006C00089E4D6018C938EE411968C9386E407C05E
:1006D00089E6D6018C938EE611968C9386E681830B
:1006E0003296DF01892F20E202C02D9381508823AA
:1006F000E1F7E90FF11D10822EEF3FEFAFC01616A4
:1007000017061CF041E050E003C0AB014F5F5F4FA4
:10071000AA2019F480E090E003C08A2D90E00196B1
:1007200020E030E0AA2311F021E030E0240F351F53
:10073000280F391F812F90E02817390714F020E087
:1007400002C0121B212F4B2D50E0CA018071907006
:10075000B4FC0DC0B3FC0BC0F601322F40E202C066
:10076000419331503323E1F7C20ED11C01C0322F27
:10077000AA2319F0F601A1936F01892B11F0132F11
:100780000AC0F601132F80E302C081931150112398
:10079000E1F7C30ED11C092D060FBA8090E1892E16
:1007A000912C8E209F20E4FE04C0F1E3BF1609F4D3
:1007B0000150101614F001E003C0093008F008E001
:1007C0009B0177FF02C020E030E0CB010196821B45
:1007D000930BFE013196E80FF91F8EE2F82E3B01D4
:1007E000601A71088A2D90E044275527481B590B41
:1007F0008FEF2F3F380719F4D601FD926D01621774
:1008000073072CF06216730614F4808101C080E334
:100810002150304031962417350724F0D6018D93AE
:100820006D01E6CF2617370749F4B5E3BB1528F06D
:10083000BB1621F48114910409F481E3F60181933C
:10084000D601812F90E202C09C938150119688239B
:10085000D9F7E10FF11D108220E030E0C90129969F
:10086000EEE00C944D20283008F027E03327DA0121
:10087000990F311D87FD916000966105710539F46E
:1008800032602E5F3D9330E32A95E1F708959F3F54
:1008900030F080387105610509F03C5F3C5F3D93A5
:1008A000913008F08068911DDF93CF931F930F93D1
:1008B000FF92EF92192F987F9695E92F969596952E
:1008C000E90FFF27E85BFB4F99273327EE24FF242E
:1008D000A701E70105900894079428F4360FE71E56
:1008E000F81E491F511D660F771F881F991F069418
:1008F000A1F70590079428F4E70EF81E491F561F2C
:10090000C11D770F881F991F661F0694A1F70590D8
:10091000079428F4F80E491F561FC71FD11D880FD2
:10092000991F661F771F0694A1F70590079420F47E
:10093000490F561FC71FD81F990F661F771F881FA3
:100940000694A9F784911095177041F0D695C79534
:1009500057954795F794E7941A95C1F7EEEEF3E0B3
:1009600068941590159135916591959105907FE268
:100970007395E118F10A430B560BC90BD009C0F768
:10098000E10CF11E431F561FC91FD01D7EF47033AA
:1009900011F48A95E6CFE894015030F0080F0AF47C
:1009A0000027021708F4202F2395022F7A3328F00E
:1009B00079E37D932A95E9F710C07D932A9589F60E
:1009C000069497956795379517951794E118F10A4E
:1009D000430B560BC90BD00998F023957E91739564
:1009E0007A3308F070E37C932013B8F77E9170613E
:1009F0007D9330F0839571E37D9370E32A95E1F761
:100A00001124EF90FF900F911F91CF91DF919927C3
:100A100087FD90950895A2E0B0E0E1E1F5E00C9447
:100A20003D2080919E0590919F05009711F482EAE8
:100A300095E09E012F5F3F4F281B390BC90122967D
:100A4000E2E00C9459200F931F93CF93DF93242F50
:100A50002627A22FB0E0AF70B070AA0FBB1FAA0F5D
:100A6000BB1FCCE1D2E0AC0FBD1FFD01059115917C
:100A700025913491E4E09695879577956795EA9569
:100A8000D1F7062717272827392742954F70402787
:100A900050E04F705070440F551F440F551F4C0FBE
:100AA0005D1FFA0185919591A591B49144E0369529
:100AB0002795179507954A95D1F7082719272A27CB
:100AC0003B27B801C901DF91CF911F910F91089584
:100AD000CF93DF93EC016FEF7FEF8FEF9FEF02C0BB
:100AE0002196B1DF48814423D9F79B01AC012095C1
:100AF000309540955095B901CA01DF91CF91089585
:100B000088E494E060E370E041E00E94701684E5C0
:100B100094E068EC70E042E00E94701680E694E099
:100B200068EB7EE04DEB5EE00E94481084EA94E0C2
:100B30006EEA7EE043EB5EE00C944810BC018091CD
:100B40004504882321F08CE795E00C948D1C0895D2
:100B5000BC0180914504882331F08CE795E04AE0A0
:100B600050E00C94691C08950F931F930CE715E057
:100B70006091E3037091E403C8010E948D1CC801D9
:100B800063E673E00E94151BC8016EE573E00E94E6
:100B9000151B1F910F9108950F931F930CE715E0FC
:100BA000C80160E473E00E94151BDEDFC80167E343
:100BB00073E00E94151BC8016BE273E00E94151BD5
:100BC000C80169E273E00E94151BC80160E273E08E
:100BD0000E94151B1F910F9108950F931F930CE70F
:100BE00015E0C80160E070E04AE050E00E94691C36
:100BF000C8016FE473E00E94151BB6DFC8010E94B4
:100C00003D1B1F910F9108950F931F930CE715E063
:100C1000C80168E873E00E94151BFDDEBC01C80135
:100C20004AE050E00E947B1C1F910F910895682FAD
:100C300080914404882321F08CE795E00C94351BC7
:100C40000895EF92FF920F931F93CF93DF93EC01E0
:100C50008B017A0180914504882331F08CE795E07F
:100C600060E071E00E948F1C8CE795E0BE014AE0D5
:100C700050E00E94691C8CE795E061E071E00E9401
:100C80008D1C8CE795E0B8010E948D1C209729F4FB
:100C90008CE795E064E071E004C08CE795E068E0E3
:100CA00071E00E948D1C8CE795E0B7010E948D1CBD
:100CB00080914604882309F0A7DF8CE795E00E9425
:100CC0005F1ACE01CDB7DEB7E6E00C945520CF9287
:100CD000DF92EF92FF920F931F93D82EC92E7A01C5
:100CE00040E051E0AEDF0CE715E0C8016FE071E0D5
:100CF0000E948D1CC801B7010E948F1C8D2D9C2D58
:100D00001F910F91FF90EF90DF90CF900895AF92D9
:100D1000BF92CF92DF92EF92FF920F931F93FC014D
:100D20007B016A0159010CE715E0C801BF010E946F
:100D30008F1CC801B7010E948F1CC801B6014AE090
:100D400050E00E947B1CC801B5010E948F1CC801A5
:100D50000E945F1A1F910F91FF90EF90DF90CF904C
:100D6000BF90AF900895BC0180914504882321F085
:100D70008CE795E00C948F1C08958091450488239E
:100D800039F48CE090E061E171E043E351E059CF48
:100D90008CE795E068EC72E00E94151B8CE795E00B
:100DA000609144044AE050E00E94141C8CE795E0F6
:100DB0006DEB72E00E94151B8CE795E06091450495
:100DC0004AE050E00E94141C8CE795E063EB72E06F
:100DD0000E94151B8CE795E0609146044AE050E0C4
:100DE0000E94141C8CE795E068EA72E00E94511B97
:100DF0008CE795E066E972E00E94151B8CE795E0B0
:100E000068EC70E04AE050E00E947B1C8CE795E0C3
:100E100061E872E00E94151B8CE795E060E273E0E8
:100E20004AE050E00E947B1C8CE795E060E772E0AE
:100E30000E94151B8CE795E068EC70E04AE050E0FA
:100E40000E947B1C8CE795E06CE572E00E94151B0C
:100E50008CE795E060E273E04AE050E00C947B1C84
:100E6000A0E0B0E0E6E3F7E00C9435206C01EC0183
:100E7000EE24FF248701B4E0AB2EB12CA80EB91EDE
:100E800011C088EE94E0BE017DD7502F4F2D3E2D2E
:100E90002227E82EFF2400E010E0E22AF32A042BA8
:100EA000152B2196CA15DB0561F78091460488232E
:100EB000D9F08CE795E06FE072E00E94151B8CE79B
:100EC00095E0B801A70120E130E00E94E41B8CE727
:100ED00095E066E072E00E94151B8CE795E0B60194
:100EE00040E150E00E947B1CB701C801CDB7DEB7DE
:100EF000EAE00C945120AFEFB0E0E1E8F7E00C94A9
:100F0000312080E090E0ACDF6D50704F8D4E9E4FF1
:100F100029F08AE090E065E371E06CC084E090E045
:100F20009FDF3B014C018E010F5F1F4F6CE070E0B3
:100F30006B010894C11CD11C88EE94E023D7F80102
:100F40008083882309F470C00F5F1F4FFBE0CF162A
:100F5000F1E0DF0609F468C0B601EACF8CE795E05E
:100F600063E571E00E948D1C8CE795E0B8010E945A
:100F70008F1C8CE795E06BE571E00E948D1C8CE77F
:100F800095E0B601A50120E130E00E94F11BA61416
:100F9000B704C804D90471F08CE795E062E671E00B
:100FA0000E948D1C8CE795E0B401A30120E130E0A4
:100FB0000E94F11B80914504882399F088E090E01D
:100FC0004FDF7B018C018CE795E06EE671E00E94BB
:100FD0008D1C8CE795E0B801A7012AE030E00E9463
:100FE000571CA614B704C804D90449F08BE090E05C
:100FF0006DE771E043E351E024DE9C010FC08CE714
:1010000095E061E971E00E948D1C8CE795E0BE01DE
:101010006F5F7F4F0E948F1C20E030E0C901C150FC
:10102000DF4FEEE00C944D208E010F5F1F4FC80183
:101030004FDD5B016C0180914604882309F4BACF2F
:101040008DCFA0E0B0E0E7E2F8E00C943720D82E96
:10105000C92E7A018B01809146048823E1F08CE748
:1010600095E061EA71E00E948D1C8CE795E0B80183
:10107000A70120E130E00E94E41B8CE795E065E1E8
:1010800072E00E94151B8CE795E06D2D7C2D40E1F0
:1010900050E00E947B1C8D2D9C2DEC0124E0C22E83
:1010A000D12CCC0EDD1E0EC0212F3327442755270F
:1010B000102F0F2DFE2CEE2488EE94E0BE01422F5F
:1010C00068D62196CC15DD0579F7CDB7DEB7E8E017
:1010D0000C9453208CE795E00E94FE19892BD1F3E4
:1010E00008958CE795E00E94FE1918161906CCF7B2
:1010F0008CE795E00C94361AEF92FF920F931F93B2
:10110000CF93DF937C01EB0100E0EBDF182F8FDD45
:10111000F701E00FF11D10831A3059F01D3049F02E
:10112000202F2F5F822F90E08C179D0714F4022F41
:10113000ECCF1082802F90E0CDB7DEB7E6E00C94C4
:101140005520AFEFB0E0E7EAF8E00C9431207E01E3
:101150000894E11CF11CC7016FEF70E0CDDF8C013A
:101160008AEA91E0EBDCC801F3DC80EB91E0E6DC9D
:10117000C701F9DD80914504882309F045DDCE01E2
:10118000019664EB71E0FCD9892B51F580E090E089
:1011900040E050E060E070E054DF84E090E040E048
:1011A00050E060E070E04DDF8D81813239F488E0FD
:1011B00090E040E050E060E070E043DF0CE010E0E1
:1011C00088EE94E0B80140E0E4D50F5F1F4F81E066
:1011D0000B301807A9F780E090E069EB71E048C098
:1011E00080E090E03DDE4B015C016D30E0EF7E077A
:1011F000EDEE8E07EEEF9E0749F061157105810552
:10120000910521F0CC24DD24760105C088E090E032
:1012100027DE6B017C018E010F5F1F4FC80158DC78
:10122000AB01BC0184E090E00CDF6CE070E03B01BE
:101230000894611C711C88EE94E0F8014081A9D5E6
:10124000F80180818823E1F00F5F1F4FFBE06F16EC
:10125000F1E07F06A9F0B301EACF80E090E04DE035
:1012600050EF6DEE7EEFEDDE80E090E06DEC71E032
:1012700043E351E0E6DCC150DF4FEEE00C944D203B
:101280000894C11CD11CE11CF11C88E090E0B7015E
:10129000A601D7DE8DE0881680EF98068DEEA806B1
:1012A0008EEFB806D1F6E0CF04C08CE795E00E943F
:1012B000361A8CE795E00E94FE19892BB1F7089544
:1012C00009DF8CE795E00E94161A0E946A20892B9C
:1012D00039F08CE795E00E94421D6093450408C0F8
:1012E00090E080914504882309F491E090934504AF
:1012F00080914504882319F082EE91E01FDC80E0A4
:1013000090E06EEE71E043E351E09BCC1F93CF93EE
:10131000DF93182F81E10E94B217EC0180914604FF
:10132000882329F08AEF91E009DCCE0111DCC55F4A
:10133000D1401CF4C2E0D0E002C0C0E0D0E01123F4
:1013400031F0CE0169E072E043E351E07ADCCE0196
:10135000DF91CF911F9108950F931F93CF93DF9348
:10136000182F092F0E94B217EC01809146048823A0
:1013700071F083E192E0E2DB812F902FE9DB8AE1DB
:1013800092E0DCDBCE01E4DB80E091E0ECDC80E0AD
:10139000C558D3400CF081E0DF91CF911F910F91A0
:1013A000089580E190E0D8CF8FE090E0D5CF1F93F3
:1013B000CF93DF93182F82E190E0CEDF882319F4DA
:1013C000C9E0D0E002C0C0E0D0E0112369F020976E
:1013D00029F480E090E06FE172E003C0CE016AE2A0
:1013E00072E043E351E02DDCCE01DF91CF911F91FC
:1013F00008951F939C01162F83E0B9010E94D41712
:10140000112339F080E090E061E472E043E351E0C1
:1014100018DC1F9108951F939C01162F89E0B901D4
:101420000E94D417112339F080E090E06EE472E05E
:1014300043E351E006DC1F9108951F93CF93DF93A0
:10144000C0E0D0E08FE090E087DF182F8823A1F480
:1014500088E494E061E070E042E021E00E949D15A4
:1014600021968AE592E06ADBCE0172DB80E091E0B2
:101470007ADCC038D10531F788E494E00E94401648
:10148000112319F020E030E011C0C038D1051CF064
:1014900026E030E00BC087EF93E067E672E04CE7B0
:1014A00052E02AE732E033DC23E630E0C901DF9185
:1014B000CF911F9108951F93CF93DF93C0E0D0E0A9
:1014C00080E190E049DF182F8823B1F484E594E0AF
:1014D00061E070E041E023E00E949D15219680913B
:1014E0004604882341F18AE592E028DBCE0130DB17
:1014F00080E091E038DC1FC084E594E00E94401653
:10150000112319F020E030E011C0C059D1401CF087
:1015100023E030E00BC089E094E067E672E043E549
:1015200052E02AE732E0F3DB23E630E0C901DF9145
:10153000CF911F91089581E0C039D80709F0C0CF3D
:10154000DBCF1F93CF93DF93182F77DFEC018091D0
:101550004604882369F08CE795E066E673E00E9414
:10156000151B8CE795E0BE014AE050E00E947B1C11
:10157000209711F4A0DFEC01112331F0CE0160E8D7
:1015800072E043E351E05DDBCE01DF91CF911F912B
:101590000895AF92BF92CF92DF92EF92FF920F9396
:1015A0001F937C0185E892E0C9DAC701D1DA80E9AE
:1015B00092E0C4DA0027F7FC0095102FC801B701AC
:1015C0000E94551E27E738E046E350E40E94091FB9
:1015D00020E030E040E05FE30E94521D0E94221EA6
:1015E000DC01CB015C01B4DA80EA92E0A7DACC241A
:1015F000B7FCC094DC2CC601B5010E94551E27E73C
:1016000038E046E350E40E94BA1D7B018C010E9441
:10161000221EDC01CB019CDA85EA92E0A4DB80E6A5
:1016200094E0B601A5010E944414B701C8011F91BE
:101630000F91FF90EF90DF90CF90BF90AF90089503
:10164000AF92BF92CF92DF92EF92FF920F931F93D0
:101650007C0185E892E072DAC7017ADA80E992E0EB
:101660006DDA0027F7FC0095102FC801B7010E9422
:10167000551E24EE38E34EE85FE30E94091F20E088
:1016800030E040E05FE30E94521D0E94221EDC0118
:10169000CB015C015DDA80EA92E050DACC24B7FC41
:1016A000C094DC2CC601B5010E94551E24EE38E31F
:1016B0004EE85FE30E94BA1D7B018C010E94221E4E
:1016C000DC01CB0145DA85EA92E04DDB84EA94E067
:1016D000B601A5010E944414B701C8011F910F91E2
:1016E000FF90EF90DF90CF90BF90AF900895892B3F
:1016F00019F08EE06FEF02C08EE060E00C949E184F
:101700001F93182F82E060E00E949E1883E060E043
:1017100070E00E94D41789E060E070E00E94D41766
:10172000112339F080E090E06BEA72E043E351E08E
:1017300088DA1F91089582E061E070E00E94D4177A
:1017400080E0E4DD009719F066EB72E006C080E00F
:101750002EDE009729F06DEC72E043E351E071CA90
:1017600080E0CEDF86E090E060E055DE80E090E053
:101770006AEE72E043E351E064CA1F93982F162F7C
:1017800082E0692F0E949E18112339F080E090E0DA
:1017900065EF72E043E351E054DA1F910895CF936F
:1017A000DF9380E0B3DDEC01009779F480E0C9DEDF
:1017B000EC01009751F480E090E099DF80E0A0DF39
:1017C00086E090E060E027DE04C081E090E060E029
:1017D000D4DFCE0160E073E043E351E032DADF9121
:1017E000CF9108958CE795E040E855E260E070E025
:1017F0000E94781959DDD0D98CE795E066E173E055
:101800000E94151B8CE795E00E945F1A88E494E023
:1018100062E370E00E94501484E594E069E170E0B6
:101820000E94501484EA94E040E050E068E473E4DD
:1018300096D484EA94E040E050E068E474E43DD754
:1018400080E694E040E050E068E473E488D480E609
:1018500094E040E050E068E474E42FD78FE060E06B
:101860000E94321880E160E00E94321881E160E05D
:101870000E94321882E160E00E9432188EE061E03E
:101880000E94321882E061E00E94321883E061E039
:101890000E94321889E061E00E94321880E030DF57
:1018A00086E090E060E0B7DD6AE070E080E090E024
:1018B0000E944B178CE795E061E173E00E94511B99
:1018C00086E093E03BD96BDF892B39F582E193E029
:1018D00035D988E691E0B4DE80E012DF86E090E062
:1018E00060E099DD8AE590E054DE80E090E051DE32
:1018F0005BDD882331F48CE795E060EF72E00E94B5
:10190000511B80E090E09CDE4CDD882331F48CE7B5
:1019100095E060ED72E00E94511B80E0F1DE86E010
:1019200090E060E078DD70D93ACFABE0B0E0EBE971
:10193000FCE00C94392080914504882351F08CE719
:1019400095E060E273E00E948D1C8CE795E00E94B8
:101950005F1AC7DB182F80914604882349F0812F36
:1019600090E00E947020892B19F083E293E0E6D882
:10197000812F90E00E947020892B59F7812F57D931
:1019800080914704882321F01D3511F410924704FB
:1019900080914704882309F0D7C1812F90E0FC0192
:1019A000E554F040E633F10508F04FC1EC5CFF4F21
:1019B0000C94642081E080934704C6C1EDD88CE785
:1019C00095E00E943D1BC0C180E091E0CCD9B3DE20
:1019D000BBC180E091E0C7D981E0E9DCB5C1DE019F
:1019E0001196E2EDF3E08BE001900D928150E1F76A
:1019F00085E293E0A3D88CE795E00E94421D9B010D
:101A0000AC018B0180914504882339F08CE795E087
:101A1000B9014AE050E00E94691C80914504882386
:101A200099F08CE795E06AEF71E00E94151B8CE756
:101A300095E0B8014AE050E00E94691C8CE795E00F
:101A400067EE71E00E94511BC801A3DD48E024E06D
:101A50007E010894E11CF11C87010E94A00280E035
:101A600090E068E273E0BAC080E091E07CD99CDC51
:101A7000882329F080E090E060E373E004C088E010
:101A800090E060E473E043E351E0DBD85DC180E0C7
:101A900091E069D980E090E02ADE80E090E064E5A2
:101AA00073E0F1CF81E04DDD4FC180E693E046D891
:101AB0008CE795E00E945F1A8CE795E00E94421D3A
:101AC000162F072F80914404882331F08CE795E08E
:101AD0004AE050E00E947B1C812F902F9C01211531
:101AE000310511F021E030E0122FC90100DE105D58
:101AF00010936D0380E090E062E673E0C4CF80E075
:101B000091E031D981E090E0F2DD80E090E060E7A3
:101B100073E0B9CF8BE793E011D8E3DA90E00E944D
:101B20007820182F823539F0873429F0823419F063
:101B3000EE24FF2408C08CE795E00E94421DDC01E2
:101B4000CB017C0105D8173479F0183420F4123415
:101B500009F0FAC012C01F34C9F0123509F0F4C000
:101B6000C70161E00ADEF0C0C701893C910514F0AD
:101B700088EC90E061E03DDCE7C0C701893C91055D
:101B800014F088EC90E061E046DCDEC081E0B8DD76
:101B9000DBC0DE011196E2EDF3E08BE001900D92E7
:101BA0008150E1F785E293E00E949E058CE795E085
:101BB0000E94421D7B018C01CB010E94A805C70138
:101BC0003FDD48E024E07E010894E11CF11C870120
:101BD0000E94A00280E090E063E873E0A70177D85C
:101BE000B3C080E091E0BFD8DCDB882329F080E03F
:101BF00090E06AE873E047CF85E090E069E973E040
:101C000042CF80E091E0AFD8CADD9EC081E07EDBAC
:101C10009BC080E091E0A7D853DB96C080E091E0C4
:101C2000A2D80E94ED0590C080E091E09CD880E0B1
:101C300090E06CEA73E027CFA0D886C082DA84C037
:101C400080E091E090D857D97FC080E091E08BD8B8
:101C50001F33A1F0183691F08CE795E060ED71E04C
:101C60000E94151B8CE795E0612F0E94351B8CE7C5
:101C700095E068EB73E00E948F1C66C08CE795E0EE
:101C800065EC71E00E94511B8CE795E06AEB71E016
:101C90000E94511B8CE795E064EA71E00E94511BA1
:101CA0008CE795E063E871E00E94511B8CE795E0BA
:101CB00065E771E00E94511B8CE795E066E671E0F4
:101CC0000E94511B8CE795E064E571E00E94511B76
:101CD0008CE795E06EE371E00E94511B8CE795E084
:101CE00062E271E00E94511B8CE795E060E171E0D7
:101CF0000E94511B8CE795E065E071E00E94151B86
:101D00008CE795E0609145044AE050E00E94141C85
:101D10008CE795E06CEF70E00E94151B8CE795E076
:101D2000609146044AE050E00E94141C8CE795E064
:101D300064EF70E00E94151B8CE795E0609144040D
:101D40004AE050E00E94141C61E070E080E090E006
:101D50000E944B172B96E6E00C94552084E594E006
:101D600062E043E006C684E594E061E043E001C63A
:101D700088E494E061E043E0FCC588E494E062E03C
:101D800043E0F7C5F999FECF72BD61BDF89A80B501
:101D90000895F999FECF1FBA72BD61BD40BD0FB65F
:101DA000F894FA9AF99A0FBE0895FC0127853089B4
:101DB0004189528983859485A585B685281B390B71
:101DC0004A0B5B0BB901CA010895A0E0B0E0EBEE4D
:101DD000FEE00C943120EC01E8DF5B016C012B8903
:101DE0003C894D895E89CA01B9010E94091F7B01A6
:101DF0008C012B8D3C8D4D8D5E8DCA01B9010E94E9
:101E0000521D9B01AC01C801B7010E94BA1D0E947E
:101E1000221E9B01AC01A114B104C104D104B9F488
:101E200062307105810591050CF085C01BA21CA2D2
:101E30001DA21EA280E090E0A0E0B0E08B8B9C8B06
:101E4000AD8BBE8B1BAA1CAA1DAA1EAA0BC1EBA898
:101E5000FCA80DA91EA91A141B041C041D0444F59A
:101E60001E141F041006110674F46A157B058C05F8
:101E70009D05B4F5CD5BDF4F8881C354D0408823E6
:101E800009F059C02DC0E114F1040105110509F450
:101E900052C06A157B058C059D050CF04CC0CD5BCE
:101EA000DF4F8881C354D040813009F044C038C02E
:101EB0001E141F0410061106DCF488279927DC0184
:101EC0008A199B09AC09BD09281739074A075B071E
:101ED0003CF4CD5BDF4F8881C354D040813059F54D
:101EE00088279927DC01821B930BA40BB50B1FC01D
:101EF000E114F10401051105F1F088279927DC01AF
:101F00008A199B09AC09BD09281739074A075B07DD
:101F100094F4CD5BDF4F8881C354D040882359F4BB
:101F200088279927DC018E199F09A00BB10B8BAB79
:101F30009CABADABBEAB6BA87CA88DA89EA8611472
:101F4000710481049104A9F48FA998ADA9ADBAAD2B
:101F50008BAF9CAFADAFBEAFFE01ED5BFF4F10820C
:101F60001A141B041C041D040CF049C081E080837A
:101F700046C0ABACBCACCDACDEACC601B50120E01C
:101F800030E040E050EC0E94091F7B018C01C4014D
:101F9000B3010E94551E20E030E040E850E40E946A
:101FA000091F20E030E040E85FE30E94521D9B01E2
:101FB000AC01C801B7010E94BA1D9B01AC01C6016A
:101FC000B5010E94521D7B018C016BAF7CAF8DAFC0
:101FD0009EAFEF96A880B980CA80DB80EF9795010D
:101FE000A6010E94051F181624F4D801C701570145
:101FF0006D01C501D6018BAF9CAFADAFBEAF8BA954
:102000009CA9ADA9BEA90196A11DB11D8BAB9CAB2E
:10201000ADABBEAB6BAD7CAD8DAD9EAD0E94271E52
:102020006BA37CA38DA39EA360E074E284E799E494
:102030002BAD3CAD4DAD5EAD0E94BA1D9B01AC0118
:102040006B8B7C8B8D8B9E8BCD5BDF4F8881C354DC
:10205000D040882339F4DA01C901B0588B8B9C8BAE
:10206000AD8BBE8BCDB7DEB7EEE00C944D20FC01FE
:1020700087859089A189B28984179507A607B70734
:1020800031F04787508B618B728BCF019ECE0895C4
:10209000CF92DF92EF92FF920F931F93FC018EE19C
:1020A00094E09183808312821386148615861686A7
:1020B0001786108A118A128A0F2EF0E0CF2EF0E0D8
:1020C000DF2EF0E0EF2EF0E0FF2EF02DC38AD48A51
:1020D000E58AF68A00E010E020E83FE3078B108FE6
:1020E000218F328F038F148F258F368F078F10A388
:1020F00021A332A313A214A215A216A281E090E09C
:1021000094A783A78FEF86A717A210A611A612A6E1
:10211000138214821582168270AB67A752AB41AB53
:1021200013AA14AA15AA16AAC7AAD0AEE1AEF2AE97
:10213000C3AED4AEE5AEF6AEFF96019311932193F4
:1021400031931082E354F040178210861186128674
:102150001F910F91FF90EF90DF90CF900895EF9235
:10216000FF920F931F93CF93DF93EC017A018B01C2
:102170006F89788D898D9A8DA80197010E94B61D6F
:102180008823D9F1EF8AF88E098F1A8FEF9660E0D5
:1021900074E284E799E4A80197010E94BA1D68835C
:1021A00079838A839B83EF978BA99CA9ADA9BEA94C
:1021B000181619061A061B0604F52B893C894D8949
:1021C0005E89CA01B9010E94091F7B018C012B8D18
:1021D0003C8D4D8D5E8DCA01B9010E94521D9B013F
:1021E000AC01C801B7010E94BA1D0E94221E6BAB50
:1021F0007CAB8DAB9EABCE01E8DDCDB7DEB7E6E0C4
:102200000C945520DC0112968C911297833001F1C9
:10221000843040F4813089F0ED91FC911197823047
:1022200098F407C0863011F1883049F1843079F58F
:1022300016C00084F185E02D1FC0ED91FC9111972F
:102240000284F385E02D18C00484F585E02D14C0C8
:10225000ED91FC9111970684F785E02D0DC0ED916D
:10226000FC9111970088F189E02D06C0ED91FC9159
:1022700011970288F389E02DCD0109950895ED911C
:10228000FC9111970488F589E02DCD0109950895F9
:10229000CF93DF93EC016B897C898D899E8920E047
:1022A00030E040E050E00E94051F18161CF4EFA536
:1022B000F8A902C0E9A9FAA90995DF91CF9108957B
:1022C000DC014370507060707070413051056105E1
:1022D0007105F1F0423051056105710534F4411585
:1022E00051056105710561F00895423051056105A0
:1022F0007105B1F0433051056105710501F518C054
:10230000ED91FC9111970480F581E02D62E00EC003
:10231000ED91FC9111970480F581E02D63E006C0FA
:10232000ED91FC910480F581E02D61E0099508951F
:10233000ED91FC910480F581E02D60E00995089510
:10234000CF93DF93EC01CB01BA0123E030E040E012
:1023500050E00E941220613071058105910591F0D5
:102360006230710581059105A9F06115710581053E
:102370009105C1F4E881F9810480F581E02DCE0159
:1023800064E00FC0E881F9810480F581E02DCE0181
:1023900061E007C0E881F9810480F581E02DCE017C
:1023A00062E00995DF91CF910895DC014370507090
:1023B000607070704130510561057105F1F0423077
:1023C00051056105710534F441155105610571052B
:1023D00061F008954230510561057105B1F0433057
:1023E00051056105710501F518C0ED91FC9111973A
:1023F0000480F581E02D65E00EC0ED91FC91119710
:102400000480F581E02D66E006C0ED91FC9104802A
:10241000F581E02D6AE009950895ED91FC91048025
:10242000F581E02D69E009950895CF93DF93EC01E4
:10243000CB01BA0126E030E040E050E00E941220DB
:10244000623071058105910589F16330710581055F
:10245000910564F46115710581059105B9F061304C
:1024600071058105910509F041C018C064307105FE
:102470008105910559F16430710581059105F4F0EC
:10248000653071058105910589F528C0E881F981DC
:102490000480F581E02DCE0164E027C0E881F98158
:1024A0000480F581E02DCE0165E01FC0E881F9814F
:1024B0000480F581E02DCE0161E017C0E881F9814B
:1024C0000480F581E02DCE0163E00FC0E881F98141
:1024D0000480F581E02DCE0162E007C0E881F9813A
:1024E0000480F581E02DCE0166E00995DF91CF9162
:1024F0000895CF93DF93DC01477050706070707067
:10250000CA014830510580F586599F4FCD91DC9125
:102510001197FC010C946420EC81FD81CD0161E0F8
:1025200022C0EC81FD81CD0165E01DC0EC81FD8103
:10253000CD0164E018C0EC81FD81CD0166E013C0DF
:10254000EC81FD81CD0162E00EC0EC81FD81CD0109
:102550006AE009C0EC81FD81CD0168E004C0EC8136
:10256000FD81CD0169E00995DF91CF910895CF9369
:10257000DF93EC018A818823D9F08B8161E072D5E9
:102580008C8161E06FD58A81843011F0883031F41C
:102590008D8161E067D58E8161E064D58EA58F3F26
:1025A00039F061E05FD56DA581E068278EA5C6D5BD
:1025B000DF91CF910895CF93DF93EC018A81882337
:1025C00069F0E881F9810480F581E02DCE0160E0B9
:1025D00009958EA58F3F11F06DA5B0D5DF91CF91F4
:1025E0000895A0E0B0E0E7EFF2E10C943720FC01A1
:1025F0002281243029F0283019F092E0D92E02C02F
:1026000084E0D82E8F01C0E0D0E0E62EFF24CC2459
:10261000C394F8012381C7010C2E02C095958795BC
:102620000A94E2F7678180FD6C25822F87D5219679
:102630000F5F1F4FCD1568F3CDB7DEB7E8E00C9400
:102640005320CF93DF93EC01E881F9810480F58179
:10265000E02DCD5BDF4F8881C354D040882311F437
:1026600060E001C062E0CE010995E881F981048053
:10267000F581E02DCD5BDF4F8881C354D0408823A6
:1026800011F461E001C063E0CE0109958BA59CA522
:1026900024D4E881F9810480F581E02DCD5BDF4F02
:1026A0008881C354D040882311F460E001C062E007
:1026B000CE010995DF91CF910895A0E0B0E0E3E667
:1026C000F3E10C943120EC013A014B01CB01BA014A
:1026D00020E030E040E050E00E94B61D882309F47D
:1026E00040C0AB8CBC8CCD8CDE8CC601B501A40186
:1026F00093010E94B61D8823A1F16BA97CA98DA925
:102700009EA90E94551E7B018C01C601B501A40142
:1027100093010E94BA1D9B01AC01C801B7010E9440
:10272000091F0E94221E6BAB7CAB8DAB9EAB60E0A1
:1027300070E080E090E4A40193010E94BA1D0E9421
:10274000701F20E034E244E759E40E94091F6FAB98
:1027500078AF89AF9AAF6B8E7C8E8D8E9E8ECE01B8
:1027600034DBCDB7DEB7EEE00C944D20EF92FF9254
:102770000F931F93CF93DF93EC018BA19CA1ADA18D
:10278000BEA10097A105B10509F44DC05ED37B0140
:102790008C012FA138A549A55AA58BA19CA1ADA15B
:1027A000BEA1820F931FA41FB51F82179307A40712
:1027B000B50730F0E816F9060A071B0758F405C0FC
:1027C000E816F9060A071B0770F1E216F30604077C
:1027D000150748F5CD5BDF4F8881C354D0402B856A
:1027E0003C854D855E85813029F42F5F3F4F4F4FEB
:1027F0005F4F04C021503040404050402B873C8701
:102800004D875E87E881F9814B855C856D857E8586
:102810000680F781E02DCE010995EFA2F8A609A761
:102820001AA781E001C080E0CDB7DEB7E6E00C94E6
:102830005520CF93DF93EC0199DF882311F0CE016F
:10284000C4DA6B897C898D899E8920E030E040E084
:1028500050E00E94B61D882341F4CE01A6DA20E0A4
:10286000611571058105910509F021E0822FDF9145
:10287000CF910895CF93DF93EC01CE01DADF882367
:10288000E1F7DF91CF9108950F931F938C01EFDB58
:10289000C801F0DF1F910F910895FC011082089587
:1028A0000F931F938C0180E090E0F801208131812B
:1028B00040E050E00E94D11F9B01AC0160E077E84E
:1028C00083E993E00E94F01FF8012383348345835A
:1028D000568317821086118612861F910F910895D4
:1028E00089EE94E0DACFE0EBF0E09081936890839A
:1028F00087708093B1001092B3008BE061E0B2C3A7
:10290000E0EBF0E090819362908387708093B10058
:102910001092B40083E061E0A5C3CF93DF938CE015
:1029200060E00CD488E060E009D4C7E0D0E084E047
:1029300060E004D48091EA0490E00C2E02C09595EA
:1029400087950A94E2F780FF03C088E061E002C047
:1029500088E060E0F3D384E061E0F0D321978FEF6B
:10296000CF3FD80721F78CE061E0E8D3DF91CF912A
:1029700008951F93CF93DF93EC018A81813029F46E
:1029800014E072E058E030E108C0823011F080E0DD
:10299000D0C010E271E050E830E4413041F49B8552
:1029A000892F86958695869580FF10C009C0423094
:1029B000A1F49B85892F86958695869580FD06C016
:1029C000613011F4985F05C0985003C0613019F46C
:1029D000905F9B8752C09051FCCF433041F48B8570
:1029E000613011F4885F01C088508B8746C0443045
:1029F00009F043C08B85613011F48F5F01C08150B5
:102A00008B87AB85AF73AB87A03148F4B0E0E5EFBF
:102A1000F3E0EA1BFB0B2081AB51BC4F19C08A2F9E
:102A20008051803148F48A2F90E0FC01EB52FC4F3A
:102A30002081E5E0F4E01DC08A2F8052803150F4FF
:102A4000B0E0E5E1F4E0EA1BFB0B2081AB53BC4FA7
:102A50008C9115C08A2F8053803118F080E020E0DF
:102A60000EC08A2F90E0FC01EB54FC4F2081E5E280
:102A7000F4E0E81BF90B808102C08FEF2FEFEB85AC
:102A8000EF73EB879A81913029F42093B300809300
:102A9000B40004C0923011F427BD88BD272F212B2C
:102AA000932F952B922B90958091EA0498239093E5
:102AB000EA04443019F5E03118F4922B9093EA04BB
:102AC0008E2F8051803130F4752B8091EA04872B52
:102AD0008093EA048E2F8052803130F4532B809102
:102AE000EA04852B8093EA04E053E031F0F4312BC3
:102AF0008091EA04832B8093EA0417C0E695E6955B
:102B0000E695F0E0EE58FF4F0C946420912B0BC03B
:102B1000922B09C0972B07C0572B952B04C0352B40
:102B200001C0312B932B9093EA0489EE94E0F5DEFB
:102B30008B85DF91CF911F910895A0E0B0E0E3EA8B
:102B4000F5E10C943020EC016B01542EA22EEB80A9
:102B5000FC800D811E8123E0A216D1F41695079505
:102B6000F794E794C801B70128EE33E040E050E065
:102B70000E94F01F39014A01C801B70128EE33E075
:102B800040E050E00E94F01F7B018C01BB243DC05F
:102B900084E0A81639F794E016950795F794E79422
:102BA0009A95D1F784E0CC0CDD1C8A95E1F7DACF59
:102BB000CE01652D4A2DDDDEB82EB301C4016BD1E7
:102BC0008F819885A985BA858E0D9F1DA01FB11F85
:102BD0008F839887A987BA87885E9340A040B040CA
:102BE00088F061E070E080E090E055D18F819885B9
:102BF000A985BA85885E9340A040B0408F839887AE
:102C0000A987BA870894C108D108C114D10481F6F4
:102C100084E0A81681F52AC0CE01652D44E0A9DE26
:102C2000B82EB301C40137D18F819885A985BA85A3
:102C30008E0D9F1DA01FB11F8F839887A987BA870C
:102C4000885E9340A040B04088F061E070E080E092
:102C500090E021D18F819885A985BA85885E9340BF
:102C6000A040B0408F839887A987BA87BB2019F00E
:102C700080E1B81689F6CDB7DEB7EFE00C944C20B2
:102C8000FC018281813041F48091EA04817E80934D
:102C9000EA0489EE94E041CE823041F48091EA0466
:102CA0008E718093EA0489EE94E037CE08950F93F5
:102CB0001F938C018CE061E0D5D187E061E0D2D137
:102CC00088E061E0CFD184E061E0CCD11092EA04E9
:102CD000C80123DE87E060E031D21F910F91089593
:102CE000DF92EF92FF920F931F938C017B01D42E02
:102CF00089EE94E0DCDFF801F182E082D282138673
:102D0000F1E0DF16F1F48091EA04817E8093EA0419
:102D100089EE94E002DE8BE061E0A4D183E061E023
:102D2000A1D18BE061E00AD283E061E007D281E0CB
:102D3000DADD81E0E5DD8FEF8093B3008093B400AE
:102D400028C082E0D81629F58091EA048E7180931C
:102D5000EA0489EE94E0E1DD85E061E083D186E07C
:102D600061E080D185E061E0E9D186E061E0E6D113
:102D700084B5836884BD17BC86E061E073D184B5F7
:102D8000836284BD18BC85E061E06CD18FEF87BDA4
:102D900088BD1F910F91FF90EF90DF9008951F92D3
:102DA0000F920FB60F9211242F933F938F939F93FF
:102DB000AF93BF938091EF049091F004A091F10440
:102DC000B091F2043091F3040196A11DB11D232F9F
:102DD0002D5F2D3720F02D570196A11DB11D209399
:102DE000F3048093EF049093F004A093F104B09364
:102DF000F2048091EB049091EC04A091ED04B09169
:102E0000EE040196A11DB11D8093EB049093EC0498
:102E1000A093ED04B093EE04BF91AF919F918F9179
:102E20003F912F910F900FBE0F901F9018958FB765
:102E3000F8942091EF043091F0044091F104509106
:102E4000F2048FBFB901CA0108959FB7F894209189
:102E5000EB043091EC044091ED045091EE0486B502
:102E6000A89B06C08F3F21F02F5F3F4F4F4F5F4F12
:102E70009FBF542F432F322F2227280F311D411D72
:102E8000511D82E0220F331F441F551F8A95D1F731
:102E9000B901CA010895EF92FF920F931F93CF9348
:102EA000DF937B018C01D1DFEB010DC0CEDF6C1B0A
:102EB0007D0B685E7340D0F30894E108F1080109C6
:102EC0001109C851DC4FE114F1040105110571F736
:102ED000CDB7DEB7E6E00C945520019739F0880FA6
:102EE000991F880F991F02970197F1F70895789419
:102EF00084B5826084BD84B5816084BD85B58260FF
:102F000085BD85B5816085BDEEE6F0E0808181609C
:102F10008083E1E8F0E0108280818260808380819C
:102F200081608083E0E8F0E0808181608083E1EB74
:102F3000F0E0808184608083E0EBF0E0808181605C
:102F40008083EAE7F0E08081846080838081826012
:102F500080838081816080838081806880831092FB
:102F6000C1000895982F8E3008F09E509770809180
:102F7000F6038295880F880F807C892B80937C00D4
:102F800080917A00806480937A0080917A0086FD37
:102F9000FCCF2091780040917900942F80E030E0C0
:102FA000282B392BC90108951F93CF93DF93182F36
:102FB000EB0161E057D0209709F44AC0CF3FD1051B
:102FC00009F449C0E12FF0E0E652FC4F84918330D0
:102FD000C1F0843028F4813051F08230B1F50CC05A
:102FE000863019F1873049F1843079F514C084B501
:102FF000806884BDC7BD32C084B5806284BDC8BD51
:103000002DC080918000806880938000D0938900DB
:10301000C093880023C080918000806280938000EC
:10302000D0938B00C0938A0019C08091B000806853
:103030008093B000C093B30011C08091B000806253
:103040008093B000C093B40009C0C038D1051CF40F
:10305000812F60E002C0812F61E070D0DF91CF91BD
:103060001F910895CF93DF93482F50E0CA018A53F0
:103070009C4FFC0134914E545C4FFA01849188239B
:1030800069F190E0880F991FFC01EC56FC4FA59167
:10309000B491FC01E256FC4FC591D491662351F4E2
:1030A0002FB7F8948C91932F909589238C938881D6
:1030B00089230BC0623061F42FB7F8948C91932F61
:1030C000909589238C938881832B88832FBF06C09A
:1030D0009FB7F8948C91832B8C939FBFDF91CF91F6
:1030E0000895833071F0843028F48130A1F082306B
:1030F00021F514C08630B1F08730D1F08430E9F486
:1031000004C0809180008F7703C0809180008F7D04
:1031100080938000089584B58F7702C084B58F7D39
:1031200084BD08958091B0008F778093B00008959A
:103130008091B0008F7D8093B0000895FF920F932F
:103140001F93F62E482F50E0CA0186529C4FFC0177
:103150002491CA018A539C4FFC0114914E545C4F38
:10316000FA0104910023C1F0222311F0822FB9DF6C
:10317000E02FF0E0EE0FFF1FE256FC4FA591B49157
:103180009FB7F894FF2021F48C911095812302C001
:103190008C91812B8C939FBF1F910F91FF9008956D
:1031A00008951F920F920FB60F9211242F933F9301
:1031B0004F938F939F93EF93FF938091C00082FD75
:1031C0001DC04091C60020913405309135052F5F18
:1031D0003F4F2F7330708091360590913705281737
:1031E000390771F0E0913405F0913505EC50FB4F53
:1031F0004083309335052093340502C08091C6008A
:10320000FF91EF919F918F914F913F912F910F904F
:103210000FBE0F901F9018951F920F920FB60F922E
:1032200011242F933F938F939F93EF93FF932091BC
:1032300078053091790580917A0590917B05281762
:10324000390731F48091C1008F7D8093C10014C093
:10325000E0917A05F0917B05E85CFA4F208180913E
:103260007A0590917B0501968F73907090937B0502
:1032700080937A052093C600FF91EF919F918F91E3
:103280003F912F910F900FBE0F901F901895A0E0C7
:10329000B0E0ECE4F9E1E7C6FC011382128288EEAB
:1032A00093E0A0E0B0E084839583A683B78388E3AE
:1032B00094E0918380837587648757874687318B35
:1032C000208B138B028BF58AE48AD78AC68AB18E4B
:1032D000A08E938E828E8F85848F8889858F898931
:1032E000868F8A89878F8B8980A32096ECE0D7C64A
:1032F000AF92BF92DF92EF92FF920F931F93CF9303
:10330000DF93EC017A018B01DD24403081EE580718
:1033100080E0680780E0780711F0DD24D39491E025
:10332000A92EB12CEC89FD89DD2069F0C50108A02A
:1033300002C0880F991F0A94E2F7808360E079E069
:103340008DE390E005C0108260E874E88EE190E0C3
:10335000A801970145D62150304040405040569535
:1033600047953795279580E12030380720F0DD20FC
:1033700011F0DD24D7CFE889F9893083EA89FB8908
:10338000208319A2EE89FF89408121E030E0C90144
:103390000C8C02C0880F991F0A94E2F7482B4083D7
:1033A000EE89FF894081C9010D8C02C0880F991FE9
:1033B0000A94E2F7482B4083EE89FF894081C901D6
:1033C0000E8C02C0880F991F0A94E2F7482B4083A5
:1033D000EE89FF8980810F8C02C0220F331F0A946F
:1033E000E2F7209528232083DF91CF911F910F9141
:1033F000FF90EF90DF90BF90AF900895DC011C9696
:10340000ED91FC911D97E05CFF4F219131918081FE
:103410009181281B390B2F733070C90108958CE7F7
:1034200095E0ECDF892B09F0BBCE0895DC011C96FA
:10343000ED91FC911D97E05CFF4F20813181E054BC
:10344000F040DF01AE5BBF4F8D919C911197281723
:10345000390719F42FEF3FEF07C08D919C91E80FCA
:10346000F91F8081282F30E0C9010895DC011C96E6
:10347000ED91FC911D97E05CFF4F20813181E0547C
:10348000F040DF01AE5BBF4F8D919C9111972817E3
:10349000390719F42FEF3FEF10C08D919C911197D0
:1034A000E80FF91F20818D919C91119701968F73E0
:1034B000907011969C938E9330E0C9010895DC01C1
:1034C00091968C919197882339F05496ED91FC91C7
:1034D0005597808186FFF9CF91961C920895CF93DE
:1034E000DF93EC01EE85FF85E05CFF4F20813181A9
:1034F000E054F0402F5F3F4F2F733070DF01AE5B21
:10350000BF4F8D919C91119728173907D1F3E05C3B
:10351000FF4F80819181E054F040E80FF91F6083F4
:10352000EE85FF85E05CFF4F31832083EE89FF89C4
:10353000208181E090E00F8C02C0880F991F0A94CF
:10354000E2F7282B208381E089A3EC89FD89808123
:103550008064808381E090E0DF91CF9108958F9225
:103560009F92AF92BF92CF92DF92EF92FF920F9312
:103570001F9300D000D00F92EDB7FEB7319684E0D4
:10358000ADB7BEB711968C9383E0818387E08283C9
:1035900085E0838381E084838CE795E064EF74E0C9
:1035A00048E355E025EC30E004EC10E0B0ECEB2E05
:1035B000F12CA1ECCA2ED12CF2ECAF2EB12CE6EC02
:1035C0008E2E912C64DE0F900F900F900F900F9025
:1035D0001F910F91FF90EF90DF90CF90BF90AF9031
:1035E0009F908F900895A0E0B0E0E8EFFAE13FC52A
:1035F0007C016B018A01C0E0D0E00FC0D6016D9163
:103600006D01D701ED91FC910190F081E02DC70192
:103610000995C80FD91F015010400115110571F708
:10362000CE01CDB7DEB7E8E03EC5EF92FF920F9333
:103630001F93CF93DF937C018B01C0E0D0E0F801B2
:103640000F5F1F4F6491662359F0D701ED91FC91F4
:103650000190F081E02DC7010995C80FD91FEFCF68
:10366000CE01CDB7DEB7E6E020C5DC01ED91FC91DF
:103670000190F081E02D09950895EF92FF920F934C
:103680001F938C016DE0F1DF7C01C8016AE0EDDF82
:103690009C012E0D3F1DC9011F910F91FF90EF90CE
:1036A0000895EF92FF920F931F937C01BEDF8C0170
:1036B000C701E3DF9C01200F311FC9011F910F914A
:1036C000FF90EF9008950F931F93CF93DF938C019A
:1036D000EB016115710519F420E030E00EC0CB015B
:1036E0000E94C902AC01D801ED91FC910280F381E6
:1036F000E02DC801BE0109959C01C901DF91CF9160
:103700001F910F9108954F925F927F928F929F9297
:10371000AF92BF92CF92DF92EF92FF920F931F93DF
:10372000DF93CF93CDB7DEB7A1970FB6F894DEBF86
:103730000FBECDBF2C01742ECB01223008F42AE03D
:1037400019A231E2C32ED12CCC0EDD1E822E99247B
:10375000AA24BB24672D752FA501940141D47901BA
:103760008A01C801B701A50194011BD4472D461B4E
:103770000894C108D1084A3010F4405D01C0495C8A
:10378000F6014083E114F1040105110521F07E2CBE
:103790005F2DC801DFCFC201B60195DFA1960FB63C
:1037A000F894DEBF0FBECDBFCF91DF911F910F9177
:1037B000FF90EF90DF90CF90BF90AF909F908F9051
:1037C0007F905F904F900895DC012115310541F401
:1037D000ED91FC910190F081E02D642F0995089501
:1037E00092CFEF92FF920F931F937C01EDDF8C013C
:1037F000C70143DF9C01200F311FC9011F910F91A9
:10380000FF90EF900895EF92FF920F931F939A010C
:10381000E62EFF2400E010E0B801A701D5DF1F91DC
:103820000F91FF90EF900895EF92FF920F931F93E7
:103830007C01E9DF8C01C70120DF9C01200F311FD3
:10384000C9011F910F91FF90EF900895A0E0B0E0A3
:10385000EBE2FCE10CC4EC016A017B0121153105AE
:1038600041F4E881F9810190F081E02D642F099500
:1038700018C02A303105A1F477FF11C06DE2F5DEE2
:103880008C0144275527BA014C195D096E097F093F
:10389000CE012AE038DF9C01200F311F03C02AE04F
:1038A00032DF9C01C901CDB7DEB7E8E0FCC3EF927F
:1038B000FF920F931F937C01C9DF8C01C701DDDEEE
:1038C0009C01200F311FC9011F910F91FF90EF90B4
:1038D0000895EF92FF920F931F937B019A010027A7
:1038E000F7FC0095102FB801A701B0DF1F910F91D1
:1038F000FF90EF900895EF92FF920F931F937C013A
:10390000E8DF8C01C701B9DE9C01200F311FC9011E
:103910001F910F91FF90EF900895D5CE0895EF92EB
:10392000FF920F931F937C01F8DF8C01C701A5DE86
:103930009C01200F311FC9011F910F91FF90EF9043
:103940000895CF93DF93EC0172DA688779878A87CD
:103950009B87E881F9810084F185E02DCE010995EE
:103960009C0197FF14C063DA288539854A855B85F9
:10397000621B730B840B950B2C813D814E815F8103
:10398000621773078407950720F32FEF3FEFC901F4
:10399000DF91CF910895CF93DF93EC01CE01D1DF7A
:1039A0009C0197FD0EC08D32910559F0C0970A9782
:1039B00040F0E881F9810680F781E02DCE0109957C
:1039C000EDCFC901DF91CF910895A0E0B0E0EAEE1C
:1039D000FCE14AC36C01B62EDEDFEC0197FF04C0A8
:1039E000EE24FF24870148C09924EE24FF24870198
:1039F000AB2CBB24CA15DB0521F1CD32D10519F45E
:103A0000992493941EC0CE01C0970A97D0F4C801A0
:103A1000B7012AE030E040E050E0C3D27B018C01E6
:103A2000CE01AA2797FDA095BA2FE80EF91E0A1F0E
:103A30001B1F80ED9FEFAFEFBFEFE80EF91E0A1FCF
:103A40001B1FD601ED91FC910680F781E02DC60188
:103A50000995C60176DFEC01C0970A9758F2CA159E
:103A6000DB0541F2992041F010950095F094E09427
:103A7000E11CF11C011D111DB701C801CDB7DEB756
:103A8000EBE00EC361E0A1CFCF93DF9330DA0E9469
:103A9000F20BCFE0DAE10E94950C2097E1F3BFDC56
:103AA000FACF5058BB27AA270ED075C166D130F087
:103AB0006BD120F031F49F3F11F41EF45BC10EF482
:103AC000E095E7FB51C1E92F77D180F3BA17620780
:103AD00073078407950718F071F49EF58FC10EF4F3
:103AE000E0950B2EBA2FA02D0B01B90190010C010E
:103AF000CA01A0011124FF27591B99F0593F50F426
:103B0000503E68F11A16F040A22F232F342F44277D
:103B1000585FF3CF469537952795A795F040539575
:103B2000C9F77EF41F16BA0B620B730B840BBAF045
:103B30009150A1F0FF0FBB1F661F771F881FC2F7B0
:103B40000EC0BA0F621F731F841F48F487957795C4
:103B50006795B795F7959E3F08F0B3CF9395880F7B
:103B600008F09927EE0F979587950895D9D008F416
:103B700081E008950CD00FC107D140F0FED030F0A5
:103B800021F45F3F19F0F0C0511139C1F3C014D1D5
:103B900098F39923C9F35523B1F3951B550BBB2714
:103BA000AA2762177307840738F09F5F5F4F220FC1
:103BB000331F441FAA1FA9F333D00E2E3AF0E0E8BA
:103BC00030D091505040E695001CCAF729D0FE2F06
:103BD00027D0660F771F881FBB1F26173707480798
:103BE000AB07B0E809F0BB0B802DBF01FF2793584E
:103BF0005F4F2AF09E3F510568F0B6C000C15F3F9D
:103C0000ECF3983EDCF3869577956795B795F79535
:103C10009F5FC9F7880F911D9695879597F908952D
:103C2000E1E0660F771F881FBB1F621773078407C9
:103C3000BA0720F0621B730B840BBA0BEE1F88F7D8
:103C4000E095089504D06894B111D9C00895BCD00E
:103C500088F09F5790F0B92F9927B751A0F0D1F075
:103C6000660F771F881F991F1AF0BA95C9F712C0FF
:103C7000B13081F0C3D0B1E00895C0C0672F782F74
:103C80008827B85F39F0B93FCCF38695779567956B
:103C9000B395D9F73EF490958095709561957F4FD7
:103CA0008F4F9F4F0895E89409C097FB3EF490957D
:103CB0008095709561957F4F8F4F9F4F9923A9F005
:103CC000F92F96E9BB279395F69587957795679594
:103CD000B795F111F8CFFAF4BB0F11F460FF1BC0D8
:103CE0006F5F7F4F8F4F9F4F16C0882311F096E96B
:103CF00011C0772321F09EE8872F762F05C0662319
:103D000071F096E8862F70E060E02AF09A95660FD1
:103D1000771F881FDAF7880F9695879597F908958A
:103D2000990F0008550FAA0BE0E8FEEF16161706CC
:103D3000E807F907C0F012161306E407F50798F034
:103D4000621B730B840B950B39F40A2661F0232B4D
:103D5000242B252B21F408950A2609F4A140A695C9
:103D60008FEF811D811D089597F99F6780E870E0AE
:103D700060E008959FEF80EC089500240A941616E1
:103D8000170618060906089500240A941216130649
:103D9000140605060895092E0394000C11F48823D7
:103DA00052F0BB0F40F4BF2B11F460FF04C06F5FF3
:103DB0007F4F8F4F9F4F089557FD9058440F551FC9
:103DC00059F05F3F71F04795880F97FB991F61F09D
:103DD0009F3F79F087950895121613061406551F14
:103DE000F2CF4695F1DF08C0161617061806991F80
:103DF000F1CF86957105610508940895E894BB2775
:103E000066277727CB0197F908958ADF08F48FEFAB
:103E100008950BD0C0CFB1DF28F0B6DF18F095239E
:103E200009F0A2CFA7CF1124EACFC6DFA0F3959F58
:103E3000D1F3950F50E0551F629FF001729FBB2791
:103E4000F00DB11D639FAA27F00DB11DAA1F649F3D
:103E50006627B00DA11D661F829F2227B00DA11DF0
:103E6000621F739FB00DA11D621F839FA00D611D76
:103E7000221F749F3327A00D611D231F849F600D97
:103E8000211D822F762F6A2F11249F5750408AF0D0
:103E9000E1F088234AF0EE0FFF1FBB1F661F771F5C
:103EA000881F91505040A9F79E3F510570F05CCF9C
:103EB000A6CF5F3FECF3983EDCF386957795679548
:103EC000B795F795E7959F5FC1F7FE2B880F911D7A
:103ED0009695879597F9089511F40EF44BCF4AC043
:103EE00073DFD0F39923D9F3CEF39F57550B87FF98
:103EF00051D056959795B0E020F4660F771F881F34
:103F0000BB1F1F930F9300249001A0018001F001BB
:103F1000A0E80E0F1F1F0A1E511D601B710B8009A8
:103F2000B50B48F4600F711F801DB51F0E1B1F0BD2
:103F30000A0A510907C02E0F3F1F4A1F0E0F1F1FED
:103F40000A1E511D660F771F881FBB1FA695F79588
:103F5000E795F8F60617170708065B07211D311DC0
:103F6000411D0F911F91B901842F9158880F96958B
:103F7000879508959F3F49F0915028F4869577954D
:103F80006795B7959F5F80389F4F880F9695879567
:103F900097F9089591505040660F771F881FD2F708
:103FA0000895629FD001739FF001829FE00DF11D83
:103FB000649FE00DF11D929FF00D839FF00D749FA3
:103FC000F00D659FF00D9927729FB00DE11DF91F4F
:103FD000639FB00DE11DF91FBD01CF0111240895AC
:103FE000A1E21A2EAA1BBB1BFD010DC0AA1FBB1FFD
:103FF000EE1FFF1FA217B307E407F50720F0A21B6F
:10400000B30BE40BF50B661F771F881F991F1A94DB
:1040100069F760957095809590959B01AC01BD0105
:10402000CF01089597FB092E05260ED057FD04D029
:10403000D7DF0AD0001C38F4509540953095219573
:104040003F4F4F4F5F4F0895F6F7909580957095CD
:1040500061957F4F8F4F9F4F08952F923F924F92C0
:104060005F926F927F928F929F92AF92BF92CF9208
:10407000DF92EF92FF920F931F93CF93DF93CDB711
:10408000DEB7CA1BDB0B0FB6F894DEBF0FBECDBF89
:1040900009942A88398848885F846E847D848C845A
:1040A0009B84AA84B984C884DF80EE80FD800C8163
:1040B0001B81AA81B981CE0FD11D0FB6F894DEBF46
:1040C0000FBECDBFED010895EE0FFF1F0590F491D7
:1040D000E02D0994911114C080538A50E0F708959F
:1040E00091110EC0803219F089508550D0F7089593
:1040F0009111089581568A5108F480528558089587
:0A410000992788270895F894FFCF4F
:10410A00003A2000204F4B00204572726F72003A2D
:10411A00005265706F7274205661726961626C65D3
:10412A00733A20566572626F7365204E6F7420531E
:10413A006574000A00476574446174613A20556EDB
:10414A00696E697469616C697A6564204545505283
:10415A004F4D006C696E65203D2000637263203DFF
:10416A0020007265616420637263203D20007772CB
:10417A0069746520636F756E74203D20004765740D
:10418A00446174613A2020435243204572726F722F
:10419A0000303A2047657444617461204F4B3A20DD
:1041AA00007772697465203078006C696E65280042
:1041BA00293A20007A65726F005772697465204542
:1041CA004550524F4D205A65726F656400577269A7
:1041DA00746520454550524F4D000A27003C3D006A
:1041EA002700566572626F7365206F6E2E005365E5
:1041FA007420566572626F736500706F77657220FE
:10420A006C6576656C203D2000537461747573315A
:10421A0032760073656E7365280029203D200053AD
:10422A007461747573446F6F72005374617475733B
:10423A00446F6F7220447261776572204F70656EA9
:10424A00005365744C454420477265656E0053659A
:10425A00744C454420426C75650073746570436FF5
:10426A00756E74203D2000536F756E644669744DF7
:10427A006963726F582E696E6F0066616C736500B0
:10428A00486F6D65007265717565737465642000A9
:10429A0020646567726565732028737465702000F1
:1042AA0020697320002064656729005365744C45B2
:1042BA0044204F666600436865636B5265616479A2
:1042CA0020313276206661696C75726500436865D3
:1042DA00636B526561647920446F6F72204F706519
:1042EA006E206661696C75726500436865636B521E
:1042FA0065616479005365744C45442052656400D5
:10430A00526573657400526573657474696E672EBD
:10431A00200043616C6962726174696E672E2000C5
:10432A003E20002E003F2000456C657661746500D2
:10433A00456C65766174696F6E20486F6D656400BF
:10434A00456C65766174696F6E206E6F7420486F74
:10435A006D656400496D6167696E67204F66660026
:10436A003F00536574496D6167696E672858290073
:10437A00496D6167696E67204F6E005B5247424F15
:10438A005D3F00526F7461746500526F74617469A5
:10439A006F6E20486F6D656400526F746174696F47
:1043AA006E206E6F7420486F6D6564004D6179628E
:1043BA0065206C6174657200272E2020547970651F
:1043CA00203F20666F72206D6F726520696E666F7E
:1043DA002E007878782E79797979202000322E305B
:1043EA00356200DD030019324A62788DA2B4C5D461
:1043FA00E1ECF4FAFDFF0163756265486F6D65458E
:10440A006C65766174696F6E0063756265486F6D7D
:10441A0065526F746174696F6E0000000000DB12F0
:10442A00B712F1120211481121136011A011D5110E
:10443A0015127912000000006F1AF31AFE19361AC3
:04444A00161A5F1AC5
:00000001FF
