:1000000065C100008BC1000089C1000087C10000EC
:1000100085C1000083C1000081C100007FC10000D4
:100020007DC100007BC1000079C1000077C10000E4
:1000300075C1000073C1000071C100006FC10000F4
:100040000C9454106BC100000C9456120C94911235
:1000500065C1000063C1000061C100005FC1000014
:100060005DC100005BC10000110C160C1B0C200CC4
:10007000250C2A0C2F0C340C0B0F0D0F0F0F110F2A
:10008000120F140F170F160F6563686F203D2000C5
:100090006465627567203D2000766572626F7365E6
:1000A000203D20007A202D2D204E5620726574723E
:1000B000696576650A005A3C737472696E672076CA
:1000C000616C75653E202D2D204E562073746F7225
:1000D0006500443C7661723E3D3C646174613E2043
:1000E0002D2D20736574207661726961626C6520C4
:1000F000746F2044617461005630202D2D2073658B
:1001000074206E6F6E2D566572626F736500563186
:10011000202D2D2073657420566572626F73650003
:1001200046202D2D206C616D7073206F4666004E49
:10013000202D2D206C616D7073206F4E00456E6E0A
:100140006E202D2D20654C657661746520746F20BE
:100150006E6E6E2028746F70203D20302900526E24
:100160006E6E202D2D20526F7461746520746F2087
:100170006E6E6E0053202D2D207265536574004302
:100180006F6D6D616E64733A0A00756E7265636FB0
:10019000676E697A656420636F6D6D616E64202798
:1001A0000020646567726565732066726F6D2074E8
:1001B0006F702E00456C657661746520746F200049
:1001C000206275742057686F612E2020526F746111
:1001D00074696F6E206E6F7420686F6D65642E0099
:1001E000206275742057686F612E2020456C6576FB
:1001F0006174696F6E206E6F7420686F6D65642E18
:10020000002075702E00207374617274696E67002F
:1002100032303A34303A30340020004D61792032A7
:10022000322032303134002C206275696C74200029
:100230000A0A0A5375676172437562652076003A4F
:100240002056657273696F6E204F4B3A20003A76E4
:10025000657273696F6E20003637394D002E72005B
:10026000667265652052414D203D2000000000006F
:10027000240027002A0000000000250028002B0091
:1002800000000000230026002900040404040404E4
:100290000404020202020202030303030303010235
:1002A0000408102040800102040810200102040804
:1002B00010200000000700020100000304060000F7
:1002C000000000000000BB01F50D341411241FBE16
:1002D000CFEFD8E0DEBFCDBF13E0A0E0B1E0ECECA3
:1002E000F3E302C005900D92A631B107D9F714E0EF
:1002F000A6E1B3E001C01D92A437B107E1F712E017
:10030000CCECD2E004C02297FE010E94C719C63C83
:10031000D107C9F70E94A5160C94E41971CEFC010F
:100320008191861721F08823D9F79927089531976D
:10033000CF010895FC0101900020E9F78095909588
:100340008E0F9F1F0895A2E0B0E0E9EAF1E00C945F
:100350009E198091700490917104009711F484E7C4
:1003600094E09E012F5F3F4F281B390BC901229655
:10037000E2E00C94BA198AE193E060E370E041E0B6
:100380000E94F50F86E293E068EC70E042E00E9484
:10039000F50F82E393E06DE378E042E458E0FDD7A7
:1003A00086E793E063E378E048E358E0F6C7BC01F2
:1003B00080911703882321F08EE494E00C94EE15CD
:1003C0000895BC0180911703882331F08EE494E0F6
:1003D0004AE050E00C94CA1508950F931F930EE461
:1003E00014E06091D7027091D802C8010E94EE1506
:1003F000C8016DE572E00E949A14C80168E572E0D8
:100400000E949A141F910F9108950F931F930EE469
:1004100014E0C80160E372E00E949A14DEDFC801B4
:1004200067E272E00E949A14C8016BE172E00E94D8
:100430009A14C80169E172E00E949A14C80160E14F
:1004400072E00E949A141F910F9108950F931F93C9
:100450000EE414E0C80160E672E00E949A1473DFB3
:10046000BC01C8014AE050E00E94DC151F910F91C9
:100470000895682F80911603882321F08EE494E07C
:100480000C94BA14089580911703882391F08EE498
:1004900094E06EE472E00E949A146091D702709129
:1004A000D8028EE494E00E94F0158EE494E00E945D
:1004B000E4138EE494E060E070E04AE050E00E94D3
:1004C000CA158EE494E06FE372E00E949A1485DF0F
:1004D0008EE494E00C94C2140F931F93CF93DF9398
:1004E000EC018B0180911703882331F08EE494E0B6
:1004F00060E071E00E94F0158EE494E0BE014AE0F5
:1005000050E00E94CA158EE494E061E071E00E9420
:10051000EE158EE494E0B8010E94EE15209729F4C0
:100520008EE494E064E071E004C08EE494E068E05E
:1005300071E00E94F01580911803882309F086DF8E
:100540008EE494E00E94E413CE01DF91CF911F91DD
:100550000F910895BC0180911703882321F08EE448
:1005600094E00C94F0150895AFEFB0E0EAEBF2E000
:100570000C949A1900E010E07E010894E11CF11C33
:100580008AEB93E0B80183D5F701E00FF11F808378
:10059000882329F00F5F1F4F0F3F110589F78EE465
:1005A00094E06FE071E00E94EE158EE494E0BE01ED
:1005B0006F5F7F4F0E94F01580E090E0C150DF4FE9
:1005C000E6E00C94B6198EE494E00E948313892B24
:1005D000D1F308958EE494E00E948313181619064F
:1005E000CCF78EE494E00C94BB13EF92FF920F9340
:1005F0001F93CF93DF937C01EB0100E0EBDF182F1B
:1006000038DFF701E00FF11D10831A3059F01D306B
:1006100049F0202F2F5F822F90E08C179D0714F454
:10062000022FECCF1082802F90E0CDB7DEB7E6E04E
:100630000C94B619AFEFB0E0E0E2F3E00C94981937
:100640008E010F5F1F4FC8016FEF70E0CEDF7C019E
:100650008FE191E0ACDEC701B4DE85E291E07ADFA4
:10066000C80178DF80911703882309F0EFDE00E0EE
:1006700010E06E010894C11CD11C0AC0F601E00F05
:10068000F11F8AEB93E0B801408108D50F5F1F4F3F
:10069000E016F1069CF780E090E068E271E01CDF74
:1006A000C150DF4FE8E00C94B419AFEFB0E0EBE5D8
:1006B000F3E00C949A197E010894E11CF11CC70127
:1006C0006FEF70E092DFC7016DE370E028DEFC01A0
:1006D00011928F0185E391E06ADEC70168DE88E34D
:1006E00091E065DEC80163DE8BE391E033DFC1504A
:1006F000DF4FE6E00C94B61904C08EE494E00E944B
:10070000BB138EE494E00E948313892BB1F7089504
:100710005ADF8EE494E00E949B130E94CB19892B30
:1007200039F08EE494E00E94A3166093170308C08A
:1007300090E080911703882309F491E090931703C8
:1007400080911703882319F08DE391E030DE80E07B
:1007500090E069E471E0C0CE1F93CF93DF93182F30
:1007600081E10E943711EC0180911803882329F060
:1007700085E591E01CDECE0124DEC55FD1401CF48E
:10078000C2E0D0E002C0C0E0D0E0112321F0CE01F1
:1007900064E671E0A1DECE01DF91CF911F91089553
:1007A0000F931F93CF93DF93182F092F0E943711B8
:1007B000EC0180911803882371F08EE691E0F7DD5B
:1007C000812F902FFEDD85E791E0F1DDCE01F9DD8F
:1007D00080E091E0BFDE80E0C558D3400CF081E0BE
:1007E000DF91CF911F910F91089580E190E0D8CFD4
:1007F0008FE090E0D5CF1F93CF93DF93182F82E146
:1008000090E0CEDF882319F4C7E0D0E002C0C0E05A
:10081000D0E0112359F0209729F480E090E06AE7B6
:1008200071E003C0CE0165E871E056DECE01DF91D4
:10083000CF911F9108951F939C01162F83E0B9015A
:100840000E945911112329F080E090E064EA71E0E0
:1008500043DE1F9108951F939C01162F89E0B90173
:100860000E945911112329F080E090E061EB71E0C2
:1008700033DE1F910895CF93DF93C0E0D0E08FE087
:1008800090E08EDF882349F0C138D1051CF025E0C7
:1008900030E019C020E030E016C08AE193E061E06A
:1008A00070E042E021E00E94220F21968DEB91E062
:1008B0007EDDCE0186DD80E091E04CDEC038D105E2
:1008C000F1F623E630E0C901DF91CF9108951F933F
:1008D000CF93DF93C0E0D0E080E190E061DF182F9C
:1008E0008823B1F486E293E061E070E041E023E028
:1008F0000E94220F2196809118038823F1F08DEB3E
:1009000091E055DDCE015DDD80E091E023DE15C094
:1009100086E293E00E94C50F112319F020E030E039
:1009200002C023E630E0C159D14014F023E030E0AA
:10093000C901DF91CF911F91089581E0C039D80797
:1009400059F6E6CF1F93CF93DF93182F94DFEC0176
:10095000009711F4BCDFEC01112321F0CE016AEC09
:1009600071E0BADDCE01DF91CF911F910895EF9232
:10097000FF920F931F937C018FEC91E018DDC7016C
:1009800020DD8DED91E013DD0027F7FC0095102FA1
:10099000C801B7010E94B61727E738E046E350E4E4
:1009A0000E946A1820E030E040E05FE30E94B31646
:1009B0000E948317DC01CB017C0103DD8DEE91E009
:1009C000C9DD0027F7FC0095102F82E393E0B80102
:1009D000A7010E94C90D80E090E01F910F91FF9048
:1009E000EF900895EF92FF920F931F937C018FEE8B
:1009F00091E0DDDCC701E5DC8DED91E0D8DC00277E
:100A0000F7FC0095102FC801B7010E94B61724EE1D
:100A100038E34EE85FE30E946A1820E030E040E0EF
:100A20005FE30E94B3160E948317DC01CB017C01B7
:100A3000C8DC8DEE91E08EDD0027F7FC0095102FCD
:100A400086E793E0B801A7010E94C90D80E090E01D
:100A50001F910F91FF90EF900895892B19F08EE070
:100A60006FEF02C08EE060E00C9423121F93182FEA
:100A700082E060E00E94231283E060E070E00E9468
:100A8000591189E060E070E00E945911112329F0AA
:100A900080E090E06CEF71E01FDD1F91089582E02F
:100AA00061E070E00E94591180E056DE009719F075
:100AB00067E072E006C080E09EDE009719F06EE10C
:100AC00072E00ACD80E0D2DF86E090E060E0B3DE45
:100AD00080E090E06BE372E0FFCC1F93982F162F1D
:100AE00082E0692F0E942312112329F080E090E018
:100AF00066E472E0F1DC1F910895CF93DF9380E00C
:100B00002BDEEC01009789F480E01CDFEC010097FC
:100B100061F480E090E0A1DF80E090E060E09BDEA7
:100B200086E090E060E087DE04C081E090E060E075
:100B3000D4DFCE0161E572E0CFDCDF91CF91089583
:100B40008EE494E040E855E260E070E00E94FD121F
:100B5000D3DD5BDC8EE494E066E072E00E949A14E0
:100B60008EE494E00E94E4138AE193E062E370E093
:100B70000E94D50D86E293E069E170E00E94D50DF8
:100B800086E793E040E050E068E473E46DD486E7E4
:100B900093E040E050E068E474E414D782E393E02B
:100BA00040E050E068E473E45FD482E393E040E027
:100BB00050E068E474E406D78FE060E00E94B7116B
:100BC00080E160E00E94B71181E160E00E94B7110E
:100BD00082E160E00E94B7118EE061E00E94B711EF
:100BE00082E061E00E94B71183E061E00E94B711EA
:100BF00089E061E00E94B71180E038DF86E090E094
:100C000060E029DE6AE070E080E090E00E94D010B1
:100C10008EE494E061E072E00E94D61487E592E0F1
:100C2000C6DB6BDF892B39F583E692E0C0DB88E613
:100C300091E0D8DE80E01ADF86E090E060E00BDE35
:100C40008AE590E094DE80E090E091DED1DD8823BB
:100C500031F48EE494E060EE71E00E94D61480E0FE
:100C600090E0C0DEC2DD882331F48EE494E060ECD5
:100C700071E00E94D61480E0F9DE86E090E060E04A
:100C8000DADDE4DB3ACFEF92FF920F931F93CF931D
:100C9000DF9380911703882351F08EE494E061E79D
:100CA00072E00E94EE158EE494E00E94E41392DC60
:100CB000182F80911803882349F0812F90E00E941B
:100CC000D119892B19F084E792E071DB812F90E034
:100CD0000E94D119892B59F7812FCBDB8091190301
:100CE000882321F01D3511F4109219038091190306
:100CF000882309F0ADC1133509F448C01435C0F498
:100D0000193409F495C01A3450F4153409F453C059
:100D1000163409F482C0143409F015C107C11E3419
:100D200009F4B0C01235B9F11C3409F00CC1B5C0DA
:100D3000123609F1133678F41A3509F4FDC01B3563
:100D400020F4163509F0FFC0E7C01B3581F01D35D2
:100D500009F0F9C07DC1143609F4EAC0143688F0F0
:100D6000163709F4DEC01A3709F0EDC0E7C081E09C
:100D7000809319036DC149DB8EE494E00E94C21494
:100D800067C180E091E0E6DB8ADE62C180E091E04D
:100D9000E1DBB3DE5DC186E792E009DB8EE494E03F
:100DA0000E94A3167B018C01CB010BDBC7011ADE6D
:100DB00069E772E030C086E792E0F9DA8EE494E009
:100DC0000E94A3169B01AC01EB01809117038823BD
:100DD00039F08EE494E0B9014AE050E00E94CA156F
:100DE00080911703882399F08EE494E064EB71E01E
:100DF0000E949A148EE494E0BE014AE050E00E9402
:100E0000CA158EE494E061EA71E00E94D614CE0126
:100E1000AEDD60E872E060DB1BC180E091E09ADB50
:100E200080E090E01ADE80E090E068E872E0F3CFC6
:100E300084E992E0BCDA8EE494E00E94E4138EE44C
:100E400094E00E94A316162FE72E809116038823A4
:100E500031F08EE494E04AE050E00E94DC15812FEE
:100E60009E2D9C012115310511F021E030E0122F5B
:100E7000C901F3DD105D1093A10280E090E066E906
:100E800072E0C9CF80E091E065DB81E090E0E5DDD4
:100E900080E090E064EA72E0BECF8FEA92E087DA09
:100EA00099DB90E00E94D919182F823539F08734E8
:100EB00029F0823419F0C0E0D0E008C08EE494E05C
:100EC0000E94A316DC01CB01EC017BDA173479F028
:100ED000183420F4123409F0BBC012C01F34C9F01A
:100EE000123509F0B5C0CE0161E0F7DDB1C0CE0129
:100EF000C93CD10514F088EC90E061E09CDCA8C00E
:100F0000CE01C93CD10514F088EC90E061E0A3DC8F
:100F10009FC081E0ABDD9CC080E091E01BDBF8DB93
:100F200097C080E091E016DBAEDA92C0BEDB90C0E5
:100F300080E091E00FDB8CC07DDB8AC080E091E037
:100F400009DB12DB85C080E091E004DB1F33A1F0F8
:100F5000183691F08EE494E06AE871E00E949A14E9
:100F60008EE494E0612F0E94BA148EE494E067EB63
:100F700072E00E94F0156CC08EE494E06FE771E0BF
:100F80000E94D6148EE494E064E771E00E94D614C7
:100F90008EE494E06EE571E00E94D6148EE494E055
:100FA0006DE371E00E94D6148EE494E06FE271E08C
:100FB0000E94D6148EE494E060E271E00E94D614A0
:100FC0008EE494E06EE071E00E94D6148EE494E02A
:100FD00068EF70E00E94D6148EE494E062ED70E059
:100FE0000E94D6148EE494E066EB70E00E94D61462
:100FF0008EE494E064EA70E00E94D6148EE494E0FB
:1010000069E970E00E949A148EE494E060911703FD
:101010004AE050E00E9487158EE494E060E970E0B9
:101020000E949A148EE494E0609118034AE050E024
:101030000E9487158EE494E068E870E00E949A149C
:101040008EE494E0609116034AE050E00E94871518
:1010500061E070E080E090E00E94D010CDB7DEB794
:10106000E6E00C94B61986E293E062E043E006C63F
:1010700086E293E061E043E001C68AE193E061E04B
:1010800043E0FCC58AE193E062E043E0F7C5F999EB
:10109000FECF72BD61BDF89A80B50895F999FECF73
:1010A0001FBA72BD61BD40BD0FB6F894FA9AF99AA5
:1010B0000FBE0895FC0127853089418952898385B7
:1010C0009485A585B685281B390B4A0B5B0BB901A6
:1010D000CA010895A0E0B0E0E0E7F8E00C949219AE
:1010E000EC01E8DF5B016C012B893C894D895E894D
:1010F000CA01B9010E946A187B018C012B8D3C8DBD
:101100004D8D5E8DCA01B9010E94B3169B01AC01E1
:10111000C801B7010E941B170E9483179B01AC01F5
:10112000A114B104C104D104B9F462307105810580
:1011300091050CF085C01BA21CA21DA21EA280E07E
:1011400090E0A0E0B0E08B8B9C8BAD8BBE8B1BAA9C
:101150001CAA1DAA1EAA0BC1EBA8FCA80DA91EA9BA
:101160001A141B041C041D0444F51E141F0410064D
:10117000110674F46A157B058C059D05B4F5CD5BED
:10118000DF4F8881C354D040882309F059C02DC057
:10119000E114F1040105110509F452C06A157B053B
:1011A0008C059D050CF04CC0CD5BDF4F8881C3548E
:1011B000D040813009F044C038C01E141F0410060E
:1011C0001106DCF488279927DC018A199B09AC09F0
:1011D000BD09281739074A075B073CF4CD5BDF4F91
:1011E0008881C354D040813059F588279927DC0184
:1011F000821B930BA40BB50B1FC0E114F104010576
:101200001105F1F088279927DC018A199B09AC099F
:10121000BD09281739074A075B0794F4CD5BDF4FF8
:101220008881C354D040882359F488279927DC014A
:101230008E199F09A00BB10B8BAB9CABADABBEABBA
:101240006BA87CA88DA89EA86114710481049104E8
:10125000A9F48FA998ADA9ADBAAD8BAF9CAFADAFD6
:10126000BEAFFE01ED5BFF4F10821A141B041C047D
:101270001D040CF049C081E0808346C0ABACBCAC1F
:10128000CDACDEACC601B50120E030E040E050EC72
:101290000E946A187B018C01C401B3010E94B61739
:1012A00020E030E040E850E40E946A1820E030E09E
:1012B00040E85FE30E94B3169B01AC01C801B7018F
:1012C0000E941B179B01AC01C601B5010E94B31619
:1012D0007B018C016BAF7CAF8DAF9EAFEF96A8808A
:1012E000B980CA80DB80EF979501A6010E9466183D
:1012F000181624F4D801C70157016D01C501D601A4
:101300008BAF9CAFADAFBEAF8BA99CA9ADA9BEA959
:101310000196A11DB11D8BAB9CABADABBEAB6BAD54
:101320007CAD8DAD9EAD0E9488176BA37CA38DA371
:101330009EA360E074E284E799E42BAD3CAD4DAD33
:101340005EAD0E941B179B01AC016B8B7C8B8D8B60
:101350009E8BCD5BDF4F8881C354D040882339F406
:10136000DA01C901B0588B8B9C8BAD8BBE8BCDB78E
:10137000DEB7EEE00C94AE19FC0187859089A18957
:10138000B28984179507A607B70731F04787508BB6
:10139000618B728BCF019ECE0895CF92DF92EF9238
:1013A000FF920F931F93FC018FEE92E09183808355
:1013B000128213861486158616861786108A118A5D
:1013C000128A0F2EF0E0CF2EF0E0DF2EF0E0EF2EAD
:1013D000F0E0FF2EF02DC38AD48AE58AF68A00E079
:1013E00010E020E83FE3078B108F218F328F038FAF
:1013F000148F258F368F078F10A321A332A313A23A
:1014000014A215A216A281E090E094A783A78FEF03
:1014100086A717A210A611A612A6138214821582FF
:10142000168270AB67A752AB41AB13AA14AA15AAD8
:1014300016AAC7AAD0AEE1AEF2AEC3AED4AEE5AE48
:10144000F6AEFF9601931193219331931082E354EA
:10145000F04017821086118612861F910F91FF901F
:10146000EF90DF90CF900895EF92FF920F931F932C
:10147000CF93DF93EC017A018B016F89788D898D91
:101480009A8DA80197010E9417178823D9F1EF8A36
:10149000F88E098F1A8FEF9660E074E284E799E482
:1014A000A80197010E941B17688379838A839B8315
:1014B000EF978BA99CA9ADA9BEA9181619061A0603
:1014C0001B0604F52B893C894D895E89CA01B90147
:1014D0000E946A187B018C012B8D3C8D4D8D5E8D99
:1014E000CA01B9010E94B3169B01AC01C801B70142
:1014F0000E941B170E9483176BAB7CAB8DAB9EAB1E
:10150000CE01E8DDCDB7DEB7E6E00C94B619DC011C
:1015100012968C911297833001F1843040F481301F
:1015200089F0ED91FC911197823098F407C08630D4
:1015300011F1883049F1843079F516C00084F185C5
:10154000E02D1FC0ED91FC9111970284F385E02DF1
:1015500018C00484F585E02D14C0ED91FC9111971D
:101560000684F785E02D0DC0ED91FC911197008860
:10157000F189E02D06C0ED91FC9111970288F38965
:10158000E02DCD0109950895ED91FC911197048806
:10159000F589E02DCD0109950895CF93DF93EC01F6
:1015A0006B897C898D899E8920E030E040E050E0A5
:1015B0000E94661818161CF4EFA5F8A902C0E9A944
:1015C000FAA90995DF91CF910895DC01437050701D
:1015D000607070704130510561057105F1F0423065
:1015E00051056105710534F4411551056105710519
:1015F00061F008954230510561057105B1F0433045
:1016000051056105710501F518C0ED91FC91119727
:101610000480F581E02D62E00EC0ED91FC91119700
:101620000480F581E02D63E006C0ED91FC9104801B
:10163000F581E02D61E009950895ED91FC9104801C
:10164000F581E02D60E009950895CF93DF93EC01DB
:10165000CB01BA0123E030E040E050E00E94731972
:10166000613071058105910591F062307105810548
:101670009105A9F06115710581059105C1F4E88115
:10168000F9810480F581E02DCE0164E00FC0E8818E
:10169000F9810480F581E02DCE0161E007C0E88189
:1016A000F9810480F581E02DCE0162E00995DF919A
:1016B000CF910895DC0143705070607070704130BC
:1016C000510561057105F1F0423051056105710563
:1016D00034F4411551056105710561F008954230FA
:1016E000510561057105B1F0433051056105710582
:1016F00001F518C0ED91FC9111970480F581E02D62
:1017000065E00EC0ED91FC9111970480F581E02D0C
:1017100066E006C0ED91FC910480F581E02D6AE061
:1017200009950895ED91FC910480F581E02D69E023
:1017300009950895CF93DF93EC01CB01BA0126E020
:1017400030E040E050E00E9473196230710581057D
:10175000910589F1633071058105910564F4611586
:10176000710581059105B9F061307105810591051B
:1017700009F041C018C0643071058105910559F127
:101780006430710581059105F4F0653071058105BE
:10179000910589F528C0E881F9810480F581E02D63
:1017A000CE0164E027C0E881F9810480F581E02D55
:1017B000CE0165E01FC0E881F9810480F581E02D4C
:1017C000CE0161E017C0E881F9810480F581E02D48
:1017D000CE0163E00FC0E881F9810480F581E02D3E
:1017E000CE0162E007C0E881F9810480F581E02D37
:1017F000CE0166E00995DF91CF910895CF93DF93F5
:10180000DC014770507060707070CA01483051053B
:1018100080F58C5C9F4FCD91DC911197FC010C946D
:10182000C519EC81FD81CD0161E022C0EC81FD8113
:10183000CD0165E01DC0EC81FD81CD0164E018C0E3
:10184000EC81FD81CD0166E013C0EC81FD81CD010D
:1018500062E00EC0EC81FD81CD016AE009C0EC813F
:10186000FD81CD0168E004C0EC81FD81CD0169E01E
:101870000995DF91CF910895CF93DF93EC018A8191
:101880008823D9F08B8161E072D58C8161E06FD5BE
:101890008A81843011F0883031F48D8161E067D520
:1018A0008E8161E064D58EA58F3F39F061E05FD510
:1018B0006DA581E068278EA5C6D5DF91CF910895EB
:1018C000CF93DF93EC018A81882369F0E881F98165
:1018D0000480F581E02DCE0160E009958EA58F3F53
:1018E00011F06DA5B0D5DF91CF910895A0E0B0E0E3
:1018F000ECE7FCE00C949819FC012281243029F0DB
:10190000283019F092E0D92E02C084E0D82E8F0141
:10191000C0E0D0E0E62EFF24CC24C394F80123815C
:10192000C7010C2E02C0959587950A94E2F767814E
:1019300080FD6C25822F87D521960F5F1F4FCD1517
:1019400068F3CDB7DEB7E8E00C94B419CF93DF931A
:10195000EC01E881F9810480F581E02DCD5BDF4F5A
:101960008881C354D040882311F460E001C062E054
:10197000CE010995E881F9810480F581E02DCD5BE8
:10198000DF4F8881C354D040882311F461E001C047
:1019900063E0CE0109958BA59CA524D4E881F9814B
:1019A0000480F581E02DCD5BDF4F8881C354D040AA
:1019B000882311F460E001C062E0CE010995DF9157
:1019C000CF910895A0E0B0E0E8EEFCE00C9492190D
:1019D000EC013A014B01CB01BA0120E030E040E0DC
:1019E00050E00E941717882309F440C0AB8CBC8CD0
:1019F000CD8CDE8CC601B501A40193010E9417179E
:101A00008823A1F16BA97CA98DA99EA90E94B61774
:101A10007B018C01C601B501A40193010E941B1733
:101A20009B01AC01C801B7010E946A180E9483178C
:101A30006BAB7CAB8DAB9EAB60E070E080E090E484
:101A4000A40193010E941B170E94D11820E034E2E8
:101A500044E759E40E946A186FAB78AF89AF9AAF38
:101A60006B8E7C8E8D8E9E8ECE0134DBCDB7DEB735
:101A7000EEE00C94AE19EF92FF920F931F93CF9369
:101A8000DF93EC018BA19CA1ADA1BEA10097A105A4
:101A9000B10509F44DC05ED37B018C012FA138A59F
:101AA00049A55AA58BA19CA1ADA1BEA1820F931FF0
:101AB000A41FB51F82179307A407B50730F0E816D7
:101AC000F9060A071B0758F405C0E816F9060A07C5
:101AD0001B0770F1E216F3060407150748F5CD5B06
:101AE000DF4F8881C354D0402B853C854D855E8572
:101AF000813029F42F5F3F4F4F4F5F4F04C021507B
:101B00003040404050402B873C874D875E87E881BE
:101B1000F9814B855C856D857E850680F781E02D9A
:101B2000CE010995EFA2F8A609A71AA781E001C086
:101B300080E0CDB7DEB7E6E00C94B619CF93DF9323
:101B4000EC0199DF882311F0CE01C4DA6B897C891E
:101B50008D899E8920E030E040E050E00E94171718
:101B6000882341F4CE01A6DA20E0611571058105D4
:101B7000910509F021E0822FDF91CF910895CF9355
:101B8000DF93EC01CE01DADF8823E1F7DF91CF911B
:101B900008950F931F938C01EFDBC801F0DF1F91B5
:101BA0000F910895FC01108208950F931F938C01EB
:101BB00080E090E0F8012081318140E050E00E9417
:101BC00032199B01AC0160E077E883E993E00E9461
:101BD0005119F80123833483458356831782108675
:101BE000118612861F910F9108958BEB93E0DACF47
:101BF000E0EBF0E090819368908387708093B10070
:101C00001092B3008BE061E0B2C3E0EBF0E09081B2
:101C10009362908387708093B1001092B40083E048
:101C200061E0A5C3CF93DF938CE060E00CD488E043
:101C300060E009D4C7E0D0E084E060E004D48091A3
:101C4000BC0390E00C2E02C0959587950A94E2F7AC
:101C500080FF03C088E061E002C088E060E0F3D369
:101C600084E061E0F0D321978FEFCF3FD80721F7D1
:101C70008CE061E0E8D3DF91CF9108951F93CF937B
:101C8000DF93EC018A81813029F414E072E058E09E
:101C900030E108C0823011F080E0D0C010E271E085
:101CA00050E830E4413041F49B85892F8695869534
:101CB000869580FF10C009C04230A1F49B85892F12
:101CC00086958695869580FD06C0613011F4985FF3
:101CD00005C0985003C0613019F4905F9B8752C0D3
:101CE0009051FCCF433041F48B85613011F4885F13
:101CF00001C088508B8746C0443009F043C08B85B3
:101D0000613011F48F5F01C081508B87AB85AF7359
:101D1000AB87A03148F4B0E0E9EEF2E0EA1BFB0B40
:101D20002081A752BD4F19C08A2F8051803148F4BD
:101D30008A2F90E0FC01E753FD4F2081E9EFF2E0AC
:101D40001DC08A2F8052803150F4B0E0E9E0F3E00A
:101D5000EA1BFB0B2081A754BD4F8C9115C08A2F25
:101D60008053803118F080E020E00EC08A2F90E090
:101D7000FC01E755FD4F2081E9E1F3E0E81BF90B99
:101D8000808102C08FEF2FEFEB85EF73EB879A8195
:101D9000913029F42093B3008093B40004C09230B2
:101DA00011F427BD88BD272F212B932F952B922B24
:101DB00090958091BC0398239093BC03443019F50F
:101DC000E03118F4922B9093BC038E2F8051803118
:101DD00030F4752B8091BC03872B8093BC038E2F2E
:101DE0008052803130F4532B8091BC03852B80933B
:101DF000BC03E053E031F0F4312B8091BC03832B22
:101E00008093BC0317C0E695E695E695F0E0E45CA8
:101E1000FF4F0C94C519912B0BC0922B09C0972B27
:101E200007C0572B952B04C0352B01C0312B932BAA
:101E30009093BC038BEB93E0F5DE8B85DF91CF9124
:101E40001F910895A0E0B0E0E8E2FFE00C94911942
:101E5000EC016B01542EA22EEB80FC800D811E81C3
:101E600023E0A216D1F416950795F794E794C801DC
:101E7000B70128EE33E040E050E00E9451193901EB
:101E80004A01C801B70128EE33E040E050E00E946B
:101E900051197B018C01BB243DC084E0A81639F7A1
:101EA00094E016950795F794E7949A95D1F784E016
:101EB000CC0CDD1C8A95E1F7DACFCE01652D4A2DD9
:101EC000DDDEB82EB301C4016BD18F819885A98561
:101ED000BA858E0D9F1DA01FB11F8F839887A9877C
:101EE000BA87885E9340A040B04088F061E070E01F
:101EF00080E090E055D18F819885A985BA85885E6C
:101F00009340A040B0408F839887A987BA870894F0
:101F1000C108D108C114D10481F684E0A81681F566
:101F20002AC0CE01652D44E0A9DEB82EB301C4015C
:101F300037D18F819885A985BA858E0D9F1DA01FE9
:101F4000B11F8F839887A987BA87885E9340A04086
:101F5000B04088F061E070E080E090E021D18F81B6
:101F60009885A985BA85885E9340A040B0408F834C
:101F70009887A987BA87BB2019F080E1B81689F63F
:101F8000CDB7DEB7EFE00C94AD19FC018281813052
:101F900041F48091BC03817E8093BC038BEB93E082
:101FA00041CE823041F48091BC038E718093BC039A
:101FB0008BEB93E037CE08950F931F938C018CE049
:101FC00061E0D5D187E061E0D2D188E061E0CFD196
:101FD00084E061E0CCD11092BC03C80123DE87E02D
:101FE00060E031D21F910F910895DF92EF92FF923E
:101FF0000F931F938C017B01D42E8BEB93E0DCDFDE
:10200000F801F182E082D2821386F1E0DF16F1F46A
:102010008091BC03817E8093BC038BEB93E002DE56
:102020008BE061E0A4D183E061E0A1D18BE061E0CD
:102030000AD283E061E007D281E0DADD81E0E5DD0C
:102040008FEF8093B3008093B40028C082E0D8164D
:1020500029F58091BC038E718093BC038BEB93E0D8
:10206000E1DD85E061E083D186E061E080D185E05B
:1020700061E0E9D186E061E0E6D184B5836884BDA2
:1020800017BC86E061E073D184B5836284BD18BC5F
:1020900085E061E06CD18FEF87BD88BD1F910F9106
:1020A000FF90EF90DF9008951F920F920FB60F925E
:1020B00011242F933F938F939F93AF93BF9380915E
:1020C000C1039091C203A091C303B091C4033091A6
:1020D000C5030196A11DB11D232F2D5F2D3720F0C3
:1020E0002D570196A11DB11D2093C5038093C103F7
:1020F0009093C203A093C303B093C4038091BD0324
:102100009091BE03A091BF03B091C0030196A11DA1
:10211000B11D8093BD039093BE03A093BF03B09302
:10212000C003BF91AF919F918F913F912F910F90DD
:102130000FBE0F901F9018958FB7F8942091C10390
:102140003091C2034091C3035091C4038FBFB901C2
:10215000CA0108959FB7F8942091BD033091BE0342
:102160004091BF035091C00386B5A89B06C08F3F26
:1021700021F02F5F3F4F4F4F5F4F9FBF542F432F93
:10218000322F2227280F311D411D511D82E0220FC1
:10219000331F441F551F8A95D1F7B901CA0108950D
:1021A000EF92FF920F931F93CF93DF937B018C01EC
:1021B000D1DFEB010DC0CEDF6C1B7D0B685E734081
:1021C000D0F30894E108F10801091109C851DC4F66
:1021D000E114F1040105110571F7CDB7DEB7E6E0B2
:1021E0000C94B619019739F0880F991F880F991F21
:1021F00002970197F1F70895789484B5826084BDC1
:1022000084B5816084BD85B5826085BD85B58160FA
:1022100085BDEEE6F0E0808181608083E1E8F0E05A
:102220001082808182608083808181608083E0E889
:10223000F0E0808181608083E1EBF0E08081846068
:102240008083E0EBF0E0808181608083EAE7F0E06A
:1022500080818460808380818260808380818160CE
:1022600080838081806880831092C1000895982FB8
:102270008E3008F09E5097708091EA028295880F08
:10228000880F807C892B80937C0080917A00806409
:1022900080937A0080917A0086FDFCCF20917800AF
:1022A00040917900942F80E030E0282B392BC90130
:1022B00008951F93CF93DF93182FEB0161E057D060
:1022C000209709F44AC0CF3FD10509F449C0E12F56
:1022D000F0E0EE54FD4F84918330C1F0843028F457
:1022E000813051F08230B1F50CC0863019F1873061
:1022F00049F1843079F514C084B5806884BDC7BDC8
:1023000032C084B5806284BDC8BD2DC0809180007C
:10231000806880938000D0938900C093880023C098
:1023200080918000806280938000D0938B00C09366
:102330008A0019C08091B00080688093B000C0937B
:10234000B30011C08091B00080628093B000C09350
:10235000B40009C0C038D1051CF4812F60E002C070
:10236000812F61E070D0DF91CF911F910895CF93BD
:10237000DF93482F50E0CA0182569D4FFC013491F3
:1023800046575D4FFA018491882369F190E0880FE8
:10239000991FFC01E459FD4FA591B491FC01EA5845
:1023A000FD4FC591D491662351F42FB7F8948C91C9
:1023B000932F909589238C93888189230BC0623059
:1023C00061F42FB7F8948C91932F909589238C9377
:1023D0008881832B88832FBF06C09FB7F8948C9188
:1023E000832B8C939FBFDF91CF910895833071F041
:1023F000843028F48130A1F0823021F514C0863079
:10240000B1F08730D1F08430E9F404C080918000CD
:102410008F7703C0809180008F7D80938000089526
:1024200084B58F7702C084B58F7D84BD0895809177
:10243000B0008F778093B00008958091B0008F7DB9
:102440008093B0000895FF920F931F93F62E482FAC
:1024500050E0CA018E549D4FFC012491CA0182565E
:102460009D4FFC01149146575D4FFA0104910023E2
:10247000C1F0222311F0822FB9DFE02FF0E0EE0F40
:10248000FF1FEA58FD4FA591B4919FB7F894FF2024
:1024900021F48C911095812302C08C91812B8C9317
:1024A0009FBF1F910F91FF90089508951F920F9263
:1024B0000FB60F9211242F933F934F938F939F93B7
:1024C000EF93FF938091C00082FD1DC04091C60034
:1024D00020910604309107042F5F3F4F2F73307017
:1024E00080910804909109042817390771F0E09150
:1024F0000604F0910704EA53FC4F4083309307042D
:102500002093060402C08091C600FF91EF919F9135
:102510008F914F913F912F910F900FBE0F901F9071
:1025200018951F920F920FB60F9211242F933F937D
:102530008F939F93EF93FF9320914A0430914B0424
:1025400080914C0490914D042817390731F4809103
:10255000C1008F7D8093C10014C0E0914C04F091C4
:102560004D04E65FFB4F208180914C0490914D0417
:1025700001968F73907090934D0480934C04209338
:10258000C600FF91EF919F918F913F912F910F90F6
:102590000FBE0F901F901895A0E0B0E0E1EDF2E1C2
:1025A000C3C6FC011382128288EE93E0A0E0B0E083
:1025B00084839583A683B78389E093E091838083A6
:1025C0007587648757874687318B208B138B028BE7
:1025D000F58AE48AD78AC68AB18EA08E938E828EBF
:1025E0008F85848F8889858F8989868F8A89878F4F
:1025F0008B8980A32096ECE0B3C6AF92BF92DF92A6
:10260000EF92FF920F931F93CF93DF93EC017A0128
:102610008B01DD24403081EE580780E0680780E0C0
:10262000780711F0DD24D39491E0A92EB12CEC8928
:10263000FD89DD2069F0C50108A002C0880F991F3F
:102640000A94E2F7808360E079E08DE390E005C0D2
:10265000108260E874E88EE190E0A801970121D62D
:10266000215030404040504056954795379527952A
:1026700080E12030380720F0DD2011F0DD24D7CFB5
:10268000E889F9893083EA89FB89208319A2EE89D8
:10269000FF89408121E030E0C9010C8C02C0880F25
:1026A000991F0A94E2F7482B4083EE89FF89408105
:1026B000C9010D8C02C0880F991F0A94E2F7482BBC
:1026C0004083EE89FF894081C9010E8C02C0880FCA
:1026D000991F0A94E2F7482B4083EE89FF89808195
:1026E0000F8C02C0220F331F0A94E2F72095282393
:1026F0002083DF91CF911F910F91FF90EF90DF909A
:10270000BF90AF900895DC011C96ED91FC911D9750
:10271000E05CFF4F2191319180819181281B390B21
:102720002F733070C90108958EE494E0ECDF892B9B
:1027300009F0BBCE0895DC011C96ED91FC911D972C
:10274000E05CFF4F20813181E054F040DF01AE5B5F
:10275000BF4F8D919C9111972817390719F42FEFCE
:102760003FEF07C08D919C91E80FF91F8081282FC2
:1027700030E0C9010895DC011C96ED91FC911D9794
:10278000E05CFF4F20813181E054F040DF01AE5B1F
:10279000BF4F8D919C9111972817390719F42FEF8E
:1027A0003FEF10C08D919C911197E80FF91F208188
:1027B0008D919C91119701968F73907011969C93B7
:1027C0008E9330E0C9010895DC0191968C91919728
:1027D000882339F05496ED91FC915597808186FFBE
:1027E000F9CF91961C920895CF93DF93EC01EE857B
:1027F000FF85E05CFF4F20813181E054F0402F5F86
:102800003F4F2F733070DF01AE5BBF4F8D919C91B6
:10281000119728173907D1F3E05CFF4F8081918130
:10282000E054F040E80FF91F6083EE85FF85E05C1F
:10283000FF4F31832083EE89FF89208181E090E082
:102840000F8C02C0880F991F0A94E2F7282B20836F
:1028500081E089A3EC89FD8980818064808381E0A7
:1028600090E0DF91CF9108958F929F92AF92BF92A7
:10287000CF92DF92EF92FF920F931F9300D000D080
:102880000F92EDB7FEB7319684E0ADB7BEB71196A3
:102890008C9383E0818387E0828385E0838381E07A
:1028A00084838EE494E066EC73E04AE054E025EC27
:1028B00030E004EC10E0B0ECEB2EF12CA1ECCA2ED1
:1028C000D12CF2ECAF2EB12CE6EC8E2E912C64DEE6
:1028D0000F900F900F900F900F901F910F91FF90FE
:1028E000EF90DF90CF90BF90AF909F908F90089522
:1028F000A0E0B0E0EDE7F4E11BC57C016B018A01CB
:10290000C0E0D0E00FC0D6016D916D01D701ED910F
:10291000FC910190F081E02DC7010995C80FD91FE6
:10292000015010400115110571F7CE01CDB7DEB78A
:10293000E8E01AC5EF92FF920F931F93CF93DF93B6
:102940007C018B01C0E0D0E0F8010F5F1F4F649164
:10295000662359F0D701ED91FC910190F081E02DB3
:10296000C7010995C80FD91FEFCFCE01CDB7DEB78C
:10297000E6E0FCC4DC01ED91FC910190F081E02DDA
:1029800009950895EF92FF920F931F938C016DE0CC
:10299000F1DF7C01C8016AE0EDDF9C012E0D3F1DD7
:1029A000C9011F910F91FF90EF900895EF92FF9250
:1029B0000F931F937C01BEDF8C01C701E3DF9C01F5
:1029C000200F311FC9011F910F91FF90EF900895C3
:1029D0000F931F93CF93DF938C01EB01611571056A
:1029E00019F420E030E00EC0CB010E949A01AC0146
:1029F000D801ED91FC910280F381E02DC801BE0168
:102A000009959C01C901DF91CF911F910F91089504
:102A10004F925F927F928F929F92AF92BF92CF928E
:102A2000DF92EF92FF920F931F93DF93CF93CDB777
:102A3000DEB7A1970FB6F894DEBF0FBECDBF2C0155
:102A4000742ECB01223008F42AE019A231E2C32E01
:102A5000D12CCC0EDD1E822E9924AA24BB24672DF6
:102A6000752FA50194011DD479018A01C801B70110
:102A7000A5019401F7D3472D461B0894C108D1083E
:102A80004A3010F4405D01C0495CF6014083E11416
:102A9000F1040105110521F07E2C5F2DC801DFCF67
:102AA000C201B60195DFA1960FB6F894DEBF0FBE46
:102AB000CDBFCF91DF911F910F91FF90EF90DF90ED
:102AC000CF90BF90AF909F908F907F905F904F90EE
:102AD0000895DC012115310541F4ED91FC9101903F
:102AE000F081E02D642F0995089592CFEF92FF9227
:102AF0000F931F939A01E62EFF2400E010E0B80127
:102B0000A701E7DF1F910F91FF90EF900895EF92DB
:102B1000FF920F931F937C01E9DF8C01C70132DF25
:102B20009C01200F311FC9011F910F91FF90EF9061
:102B30000895A0E0B0E0EEE9F5E1FAC3EC016A0126
:102B40007B012115310541F4E881F9810190F08183
:102B5000E02D642F099518C02A303105A1F477FFC4
:102B600011C06DE207DF8C0144275527BA014C19CB
:102B70005D096E097F09CE012AE04ADF9C01200F22
:102B8000311F03C02AE044DF9C01C901CDB7DEB785
:102B9000E8E0EAC3EF92FF920F931F937B019A0143
:102BA0000027F7FC0095102FB801A701C2DF1F9185
:102BB0000F91FF90EF900895EF92FF920F931F9364
:102BC0007C01E8DF8C01C701DDDE9C01200F311F95
:102BD000C9011F910F91FF90EF900895F9CE0895CC
:102BE000EF92FF920F931F937C01F8DF8C01C701D6
:102BF000C9DE9C01200F311FC9011F910F91FF9069
:102C0000EF900895CF93DF93EC0196DA6887798788
:102C10008A879B87E881F9810084F185E02DCE01C8
:102C200009959C0197FF14C087DA288539854A8564
:102C30005B85621B730B840B950B2C813D814E8150
:102C40005F81621773078407950720F32FEF3FEF2B
:102C5000C901DF91CF910895CF93DF93EC01CE01AD
:102C6000D1DF9C0197FD0EC08D32910559F0C097C0
:102C70000A9740F0E881F9810680F781E02DCE01C6
:102C80000995EDCFC901DF91CF910895A0E0B0E0A3
:102C9000EBE4F6E14AC36C01B62EDEDFEC0197FFF0
:102CA00004C0EE24FF24870148C09924EE24FF24A9
:102CB0008701AB2CBB24CA15DB0521F1CD32D10530
:102CC00019F4992493941EC0CE01C0970A97D0F4AA
:102CD000C801B7012AE030E040E050E0C3D27B01F8
:102CE0008C01CE01AA2797FDA095BA2FE80EF91EF8
:102CF0000A1F1B1F80ED9FEFAFEFBFEFE80EF91E1D
:102D00000A1F1B1FD601ED91FC910680F781E02D73
:102D1000C6010995C60176DFEC01C0970A9758F203
:102D2000CA15DB0541F2992041F010950095F09409
:102D3000E094E11CF11C011D111DB701C801CDB7C4
:102D4000DEB7EBE00EC361E0A1CFCF93DF9354DA9F
:102D50000E94A005C4E9D3E10E9443062097E1F355
:102D6000E3DCFACF5058BB27AA270ED075C166D135
:102D700030F06BD120F031F49F3F11F41EF45BC1B1
:102D80000EF4E095E7FB51C1E92F77D180F3BA1734
:102D9000620773078407950718F071F49EF58FC1D9
:102DA0000EF4E0950B2EBA2FA02D0B01B901900166
:102DB0000C01CA01A0011124FF27591B99F0593FAA
:102DC00050F4503E68F11A16F040A22F232F342FF2
:102DD0004427585FF3CF469537952795A795F04040
:102DE0005395C9F77EF41F16BA0B620B730B840B55
:102DF000BAF09150A1F0FF0FBB1F661F771F881F0D
:102E0000C2F70EC0BA0F621F731F841F48F4879564
:102E100077956795B795F7959E3F08F0B3CF939553
:102E2000880F08F09927EE0F979587950895D9D0C8
:102E300008F481E008950CD00FC107D140F0FED016
:102E400030F021F45F3F19F0F0C0511139C1F3C0E7
:102E500014D198F39923C9F35523B1F3951B550B5E
:102E6000BB27AA2762177307840738F09F5F5F4F5D
:102E7000220F331F441FAA1FA9F333D00E2E3AF09E
:102E8000E0E830D091505040E695001CCAF729D0B8
:102E9000FE2F27D0660F771F881FBB1F2617370707
:102EA0004807AB07B0E809F0BB0B802DBF01FF2737
:102EB00093585F4F2AF09E3F510568F0B6C000C19D
:102EC0005F3FECF3983EDCF3869577956795B79571
:102ED000F7959F5FC9F7880F911D9695879597F98C
:102EE0000895E1E0660F771F881FBB1F6217730705
:102EF0008407BA0720F0621B730B840BBA0BEE1F1A
:102F000088F7E095089504D06894B111D9C0089568
:102F1000BCD088F09F5790F0B92F9927B751A0F0F7
:102F2000D1F0660F771F881F991F1AF0BA95C9F75D
:102F300012C0B13081F0C3D0B1E00895C0C0672F96
:102F4000782F8827B85F39F0B93FCCF3869577950D
:102F50006795B395D9F73EF49095809570956195F6
:102F60007F4F8F4F9F4F0895E89409C097FB3EF421
:102F700090958095709561957F4F8F4F9F4F9923C6
:102F8000A9F0F92F96E9BB279395F6958795779544
:102F90006795B795F111F8CFFAF4BB0F11F460FF04
:102FA0001BC06F5F7F4F8F4F9F4F16C0882311F05C
:102FB00096E911C0772321F09EE8872F762F05C070
:102FC000662371F096E8862F70E060E02AF09A950B
:102FD000660F771F881FDAF7880F9695879597F900
:102FE0000895990F0008550FAA0BE0E8FEEF16169A
:102FF0001706E807F907C0F012161306E407F507ED
:1030000098F0621B730B840B950B39F40A2661F060
:10301000232B242B252B21F408950A2609F4A14003
:10302000A6958FEF811D811D089597F99F6780E810
:1030300070E060E008959FEF80EC089500240A940A
:103040001616170618060906089500240A94121683
:103050001306140605060895092E0394000C11F4B6
:10306000882352F0BB0F40F4BF2B11F460FF04C063
:103070006F5F7F4F8F4F9F4F089557FD9058440FBC
:10308000551F59F05F3F71F04795880F97FB991FC7
:1030900061F09F3F79F08795089512161306140684
:1030A000551FF2CF4695F1DF08C016161706180611
:1030B000991FF1CF86957105610508940895E894EC
:1030C000BB2766277727CB0197F908958ADF08F495
:1030D0008FEF08950BD0C0CFB1DF28F0B6DF18F026
:1030E000952309F0A2CFA7CF1124EACFC6DFA0F322
:1030F000959FD1F3950F50E0551F629FF001729F8D
:10310000BB27F00DB11D639FAA27F00DB11DAA1FAB
:10311000649F6627B00DA11D661F829F2227B00DF8
:10312000A11D621F739FB00DA11D621F839FA00D83
:10313000611D221F749F3327A00D611D231F849FD3
:10314000600D211D822F762F6A2F11249F5750402A
:103150008AF0E1F088234AF0EE0FFF1FBB1F661FC5
:10316000771F881F91505040A9F79E3F510570F07E
:103170005CCFA6CF5F3FECF3983EDCF38695779566
:103180006795B795F795E7959F5FC1F7FE2B880F79
:10319000911D9695879597F9089511F40EF44BCFEC
:1031A0004AC073DFD0F39923D9F3CEF39F57550B61
:1031B00087FF51D056959795B0E020F4660F771FA2
:1031C000881FBB1F1F930F9300249001A001800153
:1031D000F001A0E80E0F1F1F0A1E511D601B710B8E
:1031E0008009B50B48F4600F711F801DB51F0E1BC1
:1031F0001F0B0A0A510907C02E0F3F1F4A1F0E0F4F
:103200001F1F0A1E511D660F771F881FBB1FA69523
:10321000F795E795F8F60617170708065B07211DCF
:10322000311D411D0F911F91B901842F9158880FB5
:103230009695879508959F3F49F0915028F486957B
:1032400077956795B7959F5F80389F4F880F9695C4
:10325000879597F9089591505040660F771F881F02
:10326000D2F70895629FD001739FF001829FE00D15
:10327000F11D649FE00DF11D929FF00D839FF00DF5
:10328000749FF00D659FF00D9927729FB00DE11DA1
:10329000F91F639FB00DE11DF91FBD01CF0111247E
:1032A0000895A1E21A2EAA1BBB1BFD010DC0AA1F87
:1032B000BB1FEE1FFF1FA217B307E407F50720F09F
:1032C000A21BB30BE40BF50B661F771F881F991F1A
:1032D0001A9469F760957095809590959B01AC0163
:1032E000BD01CF01089597FB092E05260ED057FD8D
:1032F00004D0D7DF0AD0001C38F4509540953095A3
:1033000021953F4F4F4F5F4F0895F6F79095809569
:10331000709561957F4F8F4F9F4F08952F923F92E9
:103320004F925F926F927F928F929F92AF92BF92D5
:10333000CF92DF92EF92FF920F931F93CF93DF9381
:10334000CDB7DEB7CA1BDB0B0FB6F894DEBF0FBEDE
:10335000CDBF09942A88398848885F846E847D842B
:103360008C849B84AA84B984C884DF80EE80FD802D
:103370000C811B81AA81B981CE0FD11D0FB6F894A3
:10338000DEBF0FBECDBFED010895EE0FFF1F05900C
:10339000F491E02D0994911114C080538A50E0F704
:1033A000089591110EC0803219F089508550D0F7E0
:1033B00008959111089581568A5108F480528558D4
:0C33C0000895992788270895F894FFCFFE
:1033CC00003A2000204F4B00204572726F72003083
:1033DC003A2047657444617461204F4B3A20006C6D
:1033EC00696E652800293A00577269746520454555
:1033FC0050524F4D000A27003C3D00270056657285
:10340C00626F7365206F6E2E005365742056657263
:10341C00626F736500706F776572206C6576656C92
:10342C00203D2000537461747573313276007365DE
:10343C006E7365280029203D2000537461747573E8
:10344C00446F6F7200537461747573446F6F7220A4
:10345C00447261776572204F70656E206661696C8D
:10346C00757265005365744C454420477265656EF2
:10347C00005365744C454420426C7565007374654B
:10348C0070436F756E74203D2000486F6D6500654C
:10349C006C65766174696E6720746F2000206465BA
:1034AC00677265657320287374657020002900723B
:1034BC006F746174696E6720746F20005365744C6F
:1034CC004544204F666600436865636B52656164D2
:1034DC007920313276206661696C757265004368BB
:1034EC0065636B526561647920446F6F72204F7015
:1034FC00656E206661696C75726500436865636B07
:10350C005265616479005365744C4544205265647E
:10351C0000526573657400526573657474696E67E7
:10352C002E200043616C6962726174696E672E2093
:10353C00003E20002E003F2000526F746174650025
:10354C00456C657661746500496D6167696E6720CD
:10355C004F6666003F00536574496D6167696E671D
:10356C0028582900496D6167696E67204F6E005BB2
:10357C005247424F5D3F00272E2020547970652022
:10358C003F20666F72206D6F726520696E666F2EBC
:10359C0000322E30346200D1020019324A62788D2A
:1035AC00A2B4C5D4E1ECF4FAFDFF01000000006008
:1035BC000C3C0C760C870ACD0AA60CE50A250B5A96
:1035CC000B9A0BFE0B00000000F41378148313BB52
:0635DC00139B13E4130031
:00000001FF
