:10000000F9C100001FC200001DC200001BC2000099
:1000100019C2000017C2000015C2000013C2000080
:1000200011C200000FC200000DC200000BC2000090
:1000300009C2000007C2000005C2000003C20000A0
:100040000C94FF12FFC100000C9401150C943C1598
:10005000F9C10000F7C10000F5C10000F3C10000C4
:10006000F1C10000EFC100004D098F09540A9A093F
:100070009D09540A540AD209540AC709540A540A59
:10008000540A110A310A540A540A390A540A430A12
:10009000540A4D0A3809540AD30A540A540A540A15
:1000A000540A3C09420947097E09540A540A540A71
:1000B000540A540A540A540A540A540A540A540A50
:1000C000540A210A540A360A540A3E0A540A4B0AB0
:1000D000540A4F0ABC0EC10EC60ECB0ED00ED50E62
:1000E000DA0EDF0EB611B811BA11BC11BD11BF1175
:1000F000C211C1116563686F203D2000646562759F
:1001000067203D2000766572626F7365203D200098
:100110007A202D2D204E56207265747269657665A1
:100120000A005A3C737472696E672076616C75655B
:100130003E202D2D204E562073746F726500563070
:10014000202D2D20736574206E6F6E2D56657262A2
:100150006F7365005631202D2D2073657420566510
:1001600072626F73650046202D2D206C616D707377
:10017000206F4666004E202D2D206C616D7073201F
:100180006F4E00456E6E6E202D2D20654C6576619C
:10019000746520746F206E6E6E2028746F70203D21
:1001A00020302900526E6E6E202D2D20526F74610A
:1001B000746520746F206E6E6E0053202D2D20729A
:1001C0006553657400436F6D6D616E64733A0A0028
:1001D000756E7265636F676E697A656420636F6DB3
:1001E0006D616E6420270020646567726565732009
:1001F00066726F6D20746F702E00456C6576617449
:100200006520746F20002066726F6D203078007258
:10021000656164200020746F2030780000000000C9
:100220006410B71DC8206E3BAC30D9269041DC76F7
:10023000F4516B6B5861B24D3C7105502083B8EDA1
:1002400044930FF0E8A3D6D68CB361CBB0C2649BC5
:10025000D4D2D38678E20AA01CF2BDBD524F545FBF
:10026000414343454C45524154494F4E203D2000A7
:10027000524F545F4D41585F5350454544203D20F7
:1002800000454C45565F414343454C455241544916
:100290004F4E203D2000454C45565F4D41585F5321
:1002A00050454544203D2000436F6E7374616E7469
:1002B000733A00646562756720203D2000766572A0
:1002C000626F7365203D20006563686F203D2000EC
:1002D000206275742057686F612E2020526F746100
:1002E00074696F6E206E6F7420686F6D65642E0088
:1002F000206275742057686F612E2020456C6576EA
:100300006174696F6E206E6F7420686F6D65642E06
:10031000002075702E00207374617274696E67001E
:1003200031353A31303A30320020004A756E2020A3
:10033000392032303134002C206275696C74200011
:100340000A0A0A5375676172437562652076003A3E
:100350002056657273696F6E204F4B3A2000363914
:10036000394D002E7200696E7465726D6564696145
:1003700074652063756265486F6D65456C6576616F
:1003800074696F6E28293D00667265652052414D83
:10039000203D200000000000240027002A0000006B
:1003A0000000250028002B0000000000230026008C
:1003B00029000404040404040404020202020202E8
:1003C0000303030303030102040810204080010219
:1003D0000408102001020408102000000007000299
:1003E0000100000304060000000000000000A1025C
:1003F000A010DF1611241FBECFEFD8E0DEBFCDBFA7
:1004000014E0A0E0B1E0EAE6F9E302C005900D9245
:10041000A230B107D9F715E0A2E0B4E001C01D9207
:10042000A036B107E1F713E0C4EFD3E004C0229790
:10043000FE010E94961CCE3ED107C9F70E94741996
:100440000C94B31CDDCDFC0101900020E9F78095F0
:1004500090958E0F9F1F0895A2E0B0E0E2E3F2E0D6
:100460000C946D1C80915C0590915D05009711F4D2
:1004700080E695E09E012F5F3F4F281B390BC90195
:100480002296E2E00C94891C0F931F93CF93DF9385
:10049000242F2627A22FB0E0AF70B070AA0FBB1F89
:1004A000AA0FBB1FCCE1D2E0AC0FBD1FFD0105912F
:1004B000159125913491E4E0969587957795679508
:1004C000EA95D1F7062717272827392742954F7035
:1004D000402750E04F705070440F551F440F551F78
:1004E0004C0F5D1FFA0185919591A591B49144E05F
:1004F00036952795179507954A95D1F70827192717
:100500002A273B27B801C901DF91CF911F910F9195
:100510000895CF93DF93EC016FEF7FEF8FEF9FEFA5
:1005200002C02196B1DF48814423D9F79B01AC0179
:100530002095309540955095B901CA01DF91CF9132
:10054000089586E094E060E370E041E00E94A0122C
:1005500082E194E068EC70E042E00E94A0128EE13B
:1005600094E068EE7AE04DEE5AE00E94780C82E664
:1005700094E06EED7AE043EE5AE00C94780CBC0106
:1005800080910304882321F08AE395E00C94BD1840
:100590000895BC0180910304882331F08AE395E03B
:1005A0004AE050E00C94991808950F931F930AE3C2
:1005B00015E06091A0037091A103C8010E94BD18CD
:1005C000C80163E673E00E944517C8016EE573E059
:1005D0000E9445171F910F9108950F931F930AE3EF
:1005E00015E0C80160E473E00E944517DEDFC80132
:1005F00067E373E00E944517C8016BE273E00E9455
:100600004517C80169E273E00E944517C80160E21E
:1006100073E00E9445171F910F9108950F931F9348
:100620000AE315E0C80160E070E04AE050E00E9493
:100630009918C8016FE473E00E944517B6DFC8013E
:100640000E946D171F910F9108950F931F930AE356
:1006500015E0C80168E873E00E944517FDDEBC01A3
:10066000C8014AE050E00E94AB181F910F91089515
:10067000682F80910204882321F08AE395E00C948E
:10068000651708950F931F93CF93DF93EC018B01B0
:1006900080910304882331F08AE395E060E071E003
:1006A0000E94BF188AE395E0BE014AE050E00E9434
:1006B00099188AE395E061E071E00E94BD188AE331
:1006C00095E0B8010E94BD18209729F48AE395E0CF
:1006D00064E071E004C08AE395E068E071E00E94A4
:1006E000BF1880910404882309F0AFDF8AE395E006
:1006F0000E948F16CE01DF91CF911F910F91089527
:10070000AF92BF92CF92DF92EF92FF920F931F931F
:10071000FC017B016A0159010AE315E0C801BF0130
:100720000E94BF18C801B7010E94BF18C801B601D6
:100730004AE050E00E94AB18C801B5010E94BF1802
:10074000C8010E948F161F910F91FF90EF90DF90CC
:10075000CF90BF90AF900895BC018091030488238F
:1007600021F08AE395E00C94BF1808950F931F932E
:100770000AE315E0C80168EC72E00E944517C80161
:10078000609102044AE050E00E944418C8016DEBF9
:1007900072E00E944517C801609103044AE050E0EE
:1007A0000E944418C80163EB72E00E944517C8011B
:1007B000609104044AE050E00E944418C80168EACD
:1007C00072E00E948117C80166E972E00E94451735
:1007D000C80168EC70E04AE050E00E94AB18C80124
:1007E00061E872E00E944517C80160E273E04AE0E8
:1007F00050E00E94AB18C80160E772E00E94451704
:10080000C80168EC70E04AE050E00E94AB18C801F3
:100810006CE572E00E944517C80160E273E04AE0AF
:1008200050E00E94AB181F910F910895A0E0B0E036
:10083000ECE1F4E00C94651C6C01EC01EE24FF2467
:100840008701B4E0AB2EB12CA80EB91E11C086EA08
:1008500094E0BE01C7D6502F4F2D3E2D2227E82E03
:10086000FF2400E010E0E22AF32A042B152B219646
:10087000CA15DB0561F7809104048823D9F08AE367
:1008800095E06FE072E00E9445178AE395E0B801B9
:10089000A70120E130E00E9414188AE395E066E0A9
:1008A00072E00E9445178AE395E0B60140E150E00E
:1008B0000E94AB18B701C801CDB7DEB7EAE00C94CF
:1008C000811CAFEFB0E0E7E6F4E00C94611C80E03F
:1008D00090E0ACDF6D50704F8D4E9E4F29F08AE056
:1008E00090E06FE071E06CC084E090E09FDF3B013E
:1008F0004C018E010F5F1F4F6CE070E06B0108949C
:10090000C11CD11C86EA94E06DD6F801808388234F
:1009100009F46EC00F5F1F4FFBE0CF16F1E0DF065A
:1009200009F466C0B601EACF8AE395E06DE271E0B2
:100930000E94BD188AE395E0B8010E94BF188AE3BF
:1009400095E065E371E00E94BD188AE395E0B60189
:10095000A50120E130E00E942118A614B704C804C4
:10096000D90471F08AE395E06CE371E00E94BD1850
:100970008AE395E0B401A30120E130E00E94211850
:1009800080910304882399F088E090E04FDF7B0199
:100990008C018AE395E068E471E00E94BD188AE367
:1009A00095E0B801A7012AE030E00E948718A6145C
:1009B000B704C804D90439F08BE090E067E571E032
:1009C00061DE9C010FC08AE395E06BE671E00E9456
:1009D000BD188AE395E0BE016F5F7F4F0E94BF188C
:1009E00020E030E0C901C150DF4FEEE00C947D1CE7
:1009F0008E010F5F1F4FC8018CDD5B016C01809180
:100A00000404882309F4BCCF8FCFA0E0B0E0EBE072
:100A1000F5E00C94671CD82EC92E7A018B018091C9
:100A200004048823E1F08AE395E06BE771E00E941B
:100A3000BD188AE395E0B801A70120E130E00E94EB
:100A400014188AE395E065E172E00E9445178AE395
:100A500095E06D2D7C2D40E150E00E94AB188D2D6E
:100A60009C2DEC0124E0C22ED12CCC0EDD1E0EC03C
:100A7000212F332744275527102F0F2DFE2CEE242E
:100A800086EA94E0BE01422FB4D52196CC15DD054F
:100A900079F7CDB7DEB7E8E00C94831C8AE395E0E4
:100AA0000E942E16892BD1F308958AE395E00E94C7
:100AB0002E1618161906CCF78AE395E00C946616E4
:100AC000EF92FF920F931F93CF93DF937C01EB0183
:100AD00000E0EBDF182FCCDDF701E00FF11D1083F4
:100AE0001A3059F01D3049F0202F2F5F822F90E0EF
:100AF0008C179D0714F4022FECCF1082802F90E00A
:100B0000CDB7DEB7E6E00C94851CAFEFB0E0EBE8C4
:100B1000F5E00C94641C7E010894E11CF11CC701F3
:100B20006FEF70E0CDDF8C0184E891E028DDC80133
:100B300030DD8AE891E023DDC7010EDE80910304F9
:100B4000882309F082DD80E090E070DE99246D500A
:100B5000704F8D4E9E4F41F49924939488E090E01D
:100B600065DE6B017C0103C0CC24DD2476018E019F
:100B70000F5F1F4FC801CDDCAB01BC0184E090E0EA
:100B800044DF6CE070E05B010894A11CB11C86EAB4
:100B900094E0F80140812DD5F8018081882309F186
:100BA0000F5F1F4FFBE0AF16F1E0BF06D1F0B501BC
:100BB000EACF80E090E04DE050EF6DEE7EEF25DF74
:100BC00088E090E040E050E060E070E01EDF80E010
:100BD00090E06EE871E056DDC150DF4FEBE00C9421
:100BE000801C0894C11CD11CE11CF11C88E090E021
:100BF000B701A6010ADF992051F7DBCF04C08AE3D1
:100C000095E00E9466168AE395E00E942E16892BD5
:100C1000B1F7089543DF8AE395E00E9446160E94EB
:100C20009A1C892B39F08AE395E00E94721960932F
:100C3000030408C090E080910304882309F491E044
:100C40009093030480910304882319F083EA91E0D0
:100C500096DC80E090E06FEA71E014CD1F93CF93B3
:100C6000DF93182F81E10E94E213EC0180910404CC
:100C7000882329F08BEB91E082DCCE018ADCC55F12
:100C8000D1401CF4C2E0D0E002C0C0E0D0E01123AB
:100C900021F0CE016AEC71E0F5DCCE01DF91CF915D
:100CA0001F9108950F931F93CF93DF93182F092F50
:100CB0000E94E213EC0180910404882371F084ED1A
:100CC00091E05DDC812F902F64DC8BED91E057DCAF
:100CD000CE015FDC80E091E03FDD80E0C558D3408D
:100CE0000CF081E0DF91CF911F910F91089580E189
:100CF00090E0D8CF8FE090E0D5CF1F93CF93DF93D4
:100D0000182F82E190E0CEDF882319F4C9E0D0E00B
:100D100002C0C0E0D0E0112359F0209729F480E010
:100D200090E060EE71E003C0CE016BEE71E0AADCF2
:100D3000CE01DF91CF911F9108951F939C01162F33
:100D400083E0B9010E940414112329F080E090E0AF
:100D500062E072E097DC1F9108951F939C01162FAB
:100D600089E0B9010E940414112329F080E090E089
:100D70006FE072E087DC1F9108951F93CF93DF939C
:100D8000C0E0D0E08FE090E08DDF182F8823A1F441
:100D900086E094E061E070E042E021E00E94CD1145
:100DA00021968BE192E0EBDBCE01F3DB80E091E07A
:100DB000D3DCC038D10531F786E094E00E94701290
:100DC000112319F020E030E011C0C038D1051CF02B
:100DD00026E030E00BC084EB93E068E272E047E687
:100DE00052E02BE332E08CDC23E630E0C901DF91F6
:100DF000CF911F9108951F93CF93DF93C0E0D0E070
:100E000080E190E04FDF182F8823B1F482E194E075
:100E100061E070E041E023E00E94CD1121968091D5
:100E20000404882341F18BE192E0A9DBCE01B1DB20
:100E300080E091E091DC1FC082E194E00E9470129A
:100E4000112319F020E030E011C0C059D1401CF04E
:100E500023E030E00BC086EC93E068E272E04EE302
:100E600052E02BE332E04CDC23E630E0C901DF91B5
:100E7000CF911F91089581E0C039D80709F0C0CF04
:100E8000DBCF1F93CF93DF93182F77DFEC01809197
:100E90000404882369F08AE395E066E673E00E9423
:100EA00045178AE395E0BE014AE050E00E94AB1886
:100EB000209711F4A0DFEC01112321F0CE0161E4B1
:100EC00072E0E0DBCE01DF91CF911F910895EF92A8
:100ED000FF920F931F937C0186E492E050DBC701E1
:100EE00058DB84E592E04BDB0027F7FC0095102FE0
:100EF000C801B7010E94851A27E738E046E350E4AD
:100F00000E94391B20E030E040E05FE30E9482193C
:100F10000E94521ADC01CB017C013BDB84E692E0AB
:100F20001BDC0027F7FC0095102F8EE194E0B80140
:100F3000A7010E94741080E090E01F910F91FF9034
:100F4000EF900895EF92FF920F931F937C0186E636
:100F500092E015DBC7011DDB84E592E010DB002782
:100F6000F7FC0095102FC801B7010E94851A24EEE6
:100F700038E34EE85FE30E94391B20E030E040E0B8
:100F80005FE30E9482190E94521ADC01CB017C01AE
:100F900000DB84E692E0E0DB0027F7FC0095102FF1
:100FA00082E694E0B801A7010E94741080E090E00E
:100FB0001F910F91FF90EF900895892B19F08EE00B
:100FC0006FEF02C08EE060E00C94CE141F93182FD8
:100FD00082E060E00E94CE1483E060E070E00E9456
:100FE000041489E060E070E00E940414112329F0E9
:100FF00080E090E063E772E045DB1F91089582E0B6
:1010000061E070E00E94041480E028DE009719F08F
:101010006EE772E006C080E070DE009719F065E9C7
:1010200072E030CB80E0D2DF86E090E060E085DEE9
:1010300080E090E062EB72E025CB1F93982F162F93
:1010400082E0692F0E94CE14112329F080E090E005
:101050006DEB72E017DB1F910895CF93DF9380E073
:10106000FDDDEC01009789F480E00BDFEC010097D7
:1010700061F480E090E0A1DF80E090E060E06DDE70
:1010800086E090E060E059DE04C081E090E060E03E
:10109000D4DFCE0168EC72E0F5DADF91CF910895EC
:1010A0008AE395E040E855E260E070E00E94A81510
:1010B000A5DD93DA8AE395E066E173E00E944517C7
:1010C0008AE395E00E948F1686E094E062E370E088
:1010D0000E94801082E194E069E170E00E9480103B
:1010E00082E694E040E050E068E473E468D482E68D
:1010F00094E040E050E068E474E40FD78EE194E0BF
:1011000040E050E068E473E45AD48EE194E040E0BB
:1011100050E068E474E401D78FE060E00E9462145C
:1011200080E160E00E94621481E160E00E9462144C
:1011300082E160E00E9462148EE061E00E9462142D
:1011400082E061E00E94621483E061E00E94621428
:1011500089E061E00E94621480E038DF86E090E080
:1011600060E0FBDD6AE070E080E090E00E947B13CD
:101170008AE395E061E173E00E9481178EEC92E0D2
:10118000FED96BDF892B39F58AED92E0F8D988E634
:1011900091E0D8DE80E01ADF86E090E060E0DDDDFF
:1011A0008AE590E094DE80E090E091DEA3DD882384
:1011B00031F48AE395E060EF72E00E94811780E0ED
:1011C00090E0C0DE94DD882331F48AE395E060EDA1
:1011D00072E00E94811780E0F9DE86E090E060E036
:1011E000ACDD33DA3ACFEF92FF920F931F93CF9398
:1011F000DF9380910304882351F08AE395E068EE41
:1012000072E00E94BD188AE395E00E948F164DDCC3
:10121000182F80910404882349F0812F90E00E94C8
:10122000A01C892B19F08BEE92E0A9D9812F90E0B8
:101230000E94A01C892B59F7812F1ADA809105048E
:10124000882321F01D3511F41092050480910504C6
:10125000882309F0A8C1812F90E0FC01E554F040FB
:10126000E633F10508F020C1EC5CFF4F0C94941CB0
:1012700081E08093050497C1B0D98AE395E00E948C
:101280006D1791C180E091E067DAB9DE8CC180E032
:1012900091E062DA81E031DD86C18DEE92E06FD9B6
:1012A0008AE395E00E9472199B01AC01EB018091E9
:1012B0000304882339F08AE395E0B9014AE050E05D
:1012C0000E94991880910304882399F08AE395E09D
:1012D0006AEF71E00E9445178AE395E0BE014AE09B
:1012E00050E00E9499188AE395E067EE71E00E9451
:1012F0008117CE01ECDD60EF72E00FC080E091E07D
:101300002BDAF8DC882329F080E090E068EF72E0C7
:1013100004C088E090E068E073E0B4D944C180E0A4
:1013200091E01ADA80E090E048DE80E090E06CE145
:1013300073E0F3CF81E0A5DD36C188E293E01FD9E9
:101340008AE395E00E948F168AE395E00E94721965
:10135000162FE72E80910204882331F08AE395E06E
:101360004AE050E00E94AB18812F9E2D9C01211570
:10137000310511F021E030E0122FC9011EDE105DB1
:101380001093350380E090E06AE273E0C6CF80E01E
:1013900091E0E2D981E090E010DE80E090E068E347
:1013A00073E0BBCF83E493E0EAD87FDB90E00E9458
:1013B000A81C182F823539F0873429F0823419F0AF
:1013C000C0E0D0E008C08AE395E00E947219DC0119
:1013D000CB01EC01DED8173479F0183420F4123444
:1013E00009F0E1C012C01F34C9F0123509F0DBC0AA
:1013F000CE0161E022DED7C0CE01C93CD10514F098
:1014000088EC90E061E099DCCEC0CE01C93CD1050A
:1014100014F088EC90E061E0A0DCC5C081E0D6DD8E
:10142000C2C08DEE92E0ABD88AE395E00E947219BB
:101430007B018C01CB01ADD8C70184DD6BE473E087
:101440006CCF80E091E088D952DC882329F080E0DD
:1014500090E062E573E061CF85E090E061E673E0E3
:101460005CCF80E091E078D9F8DD9DC081E0F6DBCB
:101470009AC080E091E070D9CDDB95C080E091E02A
:101480006BD9CCD890C080E091E066D980E090E044
:1014900064E773E042CF6AD986C037DB84C080E05E
:1014A00091E05AD90EDA7FC080E091E055D91F3320
:1014B000A1F0183691F08AE395E060ED71E00E94AA
:1014C00045178AE395E0612F0E9465178AE395E04E
:1014D00060E873E00E94BF1866C08AE395E065EC9F
:1014E00071E00E9481178AE395E06AEB71E00E9447
:1014F00081178AE395E064EA71E00E9481178AE32C
:1015000095E063E871E00E9481178AE395E065E762
:1015100071E00E9481178AE395E066E671E00E941F
:1015200081178AE395E064E571E00E9481178AE300
:1015300095E06EE371E00E9481178AE395E062E234
:1015400071E00E9481178AE395E060E171E00E94FA
:1015500081178AE395E065E071E00E9445178AE310
:1015600095E0609103044AE050E00E9444188AE349
:1015700095E06CEF70E00E9445178AE395E060917A
:1015800004044AE050E00E9444188AE395E064EFC6
:1015900070E00E9445178AE395E0609102044AE0FA
:1015A00050E00E94441861E070E080E090E00E940A
:1015B0007B13CDB7DEB7E6E00C94851C82E194E0A6
:1015C00062E043E006C682E194E061E043E001C6E8
:1015D00086E094E061E043E0FCC586E094E062E0F0
:1015E00043E0F7C5F999FECF72BD61BDF89A80B5A9
:1015F0000895F999FECF1FBA72BD61BD40BD0FB607
:10160000F894FA9AF99A0FBE0895FC01278530895B
:101610004189528983859485A585B685281B390B18
:101620004A0B5B0BB901CA010895A0E0B0E0EBE101
:10163000FBE00C94611CEC01E8DF5B016C012B8981
:101640003C894D895E89CA01B9010E94391B7B0121
:101650008C012B8D3C8D4D8D5E8DCA01B9010E9490
:1016600082199B01AC01C801B7010E94EA190E94CE
:10167000521A9B01AC01A114B104C104D104B9F404
:1016800062307105810591050CF085C01BA21CA27A
:101690001DA21EA280E090E0A0E0B0E08B8B9C8BAE
:1016A000AD8BBE8B1BAA1CAA1DAA1EAA0BC1EBA840
:1016B000FCA80DA91EA91A141B041C041D0444F542
:1016C0001E141F041006110674F46A157B058C05A0
:1016D0009D05B4F5CD5BDF4F8881C354D04088238E
:1016E00009F059C02DC0E114F1040105110509F4F8
:1016F00052C06A157B058C059D050CF04CC0CD5B76
:10170000DF4F8881C354D040813009F044C038C0D5
:101710001E141F0410061106DCF488279927DC012B
:101720008A199B09AC09BD09281739074A075B07C5
:101730003CF4CD5BDF4F8881C354D040813059F5F4
:1017400088279927DC01821B930BA40BB50B1FC0C4
:10175000E114F10401051105F1F088279927DC0156
:101760008A199B09AC09BD09281739074A075B0785
:1017700094F4CD5BDF4F8881C354D040882359F463
:1017800088279927DC018E199F09A00BB10B8BAB21
:101790009CABADABBEAB6BA87CA88DA89EA861141A
:1017A000710481049104A9F48FA998ADA9ADBAADD3
:1017B0008BAF9CAFADAFBEAFFE01ED5BFF4F1082B4
:1017C0001A141B041C041D040CF049C081E0808322
:1017D00046C0ABACBCACCDACDEACC601B50120E0C4
:1017E00030E040E050EC0E94391B7B018C01C401C9
:1017F000B3010E94851A20E030E040E850E40E94E6
:10180000391B20E030E040E85FE30E9482199B0131
:10181000AC01C801B7010E94EA199B01AC01C601E5
:10182000B5010E9482197B018C016BAF7CAF8DAF3B
:101830009EAFEF96A880B980CA80DB80EF979501B4
:10184000A6010E94351B181624F4D801C7015701C0
:101850006D01C501D6018BAF9CAFADAFBEAF8BA9FB
:101860009CA9ADA9BEA90196A11DB11D8BAB9CABD6
:10187000ADABBEAB6BAD7CAD8DAD9EAD0E94571ACE
:101880006BA37CA38DA39EA360E074E284E799E43C
:101890002BAD3CAD4DAD5EAD0E94EA199B01AC0194
:1018A0006B8B7C8B8D8B9E8BCD5BDF4F8881C35484
:1018B000D040882339F4DA01C901B0588B8B9C8B56
:1018C000AD8BBE8BCDB7DEB7EEE00C947D1CFC017A
:1018D00087859089A189B28984179507A607B707DC
:1018E00031F04787508B618B728BCF019ECE08956C
:1018F000CF92DF92EF92FF920F931F93FC018BED3B
:1019000093E091838083128213861486158616864F
:101910001786108A118A128A0F2EF0E0CF2EF0E07F
:10192000DF2EF0E0EF2EF0E0FF2EF02DC38AD48AF8
:10193000E58AF68A00E010E020E83FE3078B108F8D
:10194000218F328F038F148F258F368F078F10A32F
:1019500021A332A313A214A215A216A281E090E043
:1019600094A783A78FEF86A717A210A611A612A689
:10197000138214821582168270AB67A752AB41ABFB
:1019800013AA14AA15AA16AAC7AAD0AEE1AEF2AE3F
:10199000C3AED4AEE5AEF6AEFF960193119321939C
:1019A00031931082E354F04017821086118612861C
:1019B0001F910F91FF90EF90DF90CF900895EF92DD
:1019C000FF920F931F93CF93DF93EC017A018B016A
:1019D0006F89788D898D9A8DA80197010E94E619EB
:1019E0008823D9F1EF8AF88E098F1A8FEF9660E07D
:1019F00074E284E799E4A80197010E94EA196883D8
:101A000079838A839B83EF978BA99CA9ADA9BEA9F3
:101A1000181619061A061B0604F52B893C894D89F0
:101A20005E89CA01B9010E94391B7B018C012B8D93
:101A30003C8D4D8D5E8DCA01B9010E9482199B01BA
:101A4000AC01C801B7010E94EA190E94521A6BAB9F
:101A50007CAB8DAB9EABCE01E8DDCDB7DEB7E6E06B
:101A60000C94851CDC0112968C911297833001F145
:101A7000843040F4813089F0ED91FC9111978230EF
:101A800098F407C0863011F1883049F1843079F537
:101A900016C00084F185E02D1FC0ED91FC911197D7
:101AA0000284F385E02D18C00484F585E02D14C070
:101AB000ED91FC9111970684F785E02D0DC0ED9115
:101AC000FC9111970088F189E02D06C0ED91FC9101
:101AD00011970288F389E02DCD0109950895ED91C4
:101AE000FC9111970488F589E02DCD0109950895A1
:101AF000CF93DF93EC016B897C898D899E8920E0EF
:101B000030E040E050E00E94351B18161CF4EFA5B1
:101B1000F8A902C0E9A9FAA90995DF91CF91089522
:101B2000DC01437050706070707041305105610588
:101B30007105F1F0423051056105710534F441152C
:101B400051056105710561F0089542305105610547
:101B50007105B1F0433051056105710501F518C0FB
:101B6000ED91FC9111970480F581E02D62E00EC0AB
:101B7000ED91FC9111970480F581E02D63E006C0A2
:101B8000ED91FC910480F581E02D61E009950895C7
:101B9000ED91FC910480F581E02D60E009950895B8
:101BA000CF93DF93EC01CB01BA0123E030E040E0BA
:101BB00050E00E94421C613071058105910591F051
:101BC0006230710581059105A9F0611571058105E6
:101BD0009105C1F4E881F9810480F581E02DCE0101
:101BE00064E00FC0E881F9810480F581E02DCE0129
:101BF00061E007C0E881F9810480F581E02DCE0124
:101C000062E00995DF91CF910895DC014370507037
:101C1000607070704130510561057105F1F042301E
:101C200051056105710534F44115510561057105D2
:101C300061F008954230510561057105B1F04330FE
:101C400051056105710501F518C0ED91FC911197E1
:101C50000480F581E02D65E00EC0ED91FC911197B7
:101C60000480F581E02D66E006C0ED91FC910480D2
:101C7000F581E02D6AE009950895ED91FC910480CD
:101C8000F581E02D69E009950895CF93DF93EC018C
:101C9000CB01BA0126E030E040E050E00E94421C57
:101CA000623071058105910589F163307105810507
:101CB000910564F46115710581059105B9F06130F4
:101CC00071058105910509F041C018C064307105A6
:101CD0008105910559F16430710581059105F4F094
:101CE000653071058105910589F528C0E881F98184
:101CF0000480F581E02DCE0164E027C0E881F98100
:101D00000480F581E02DCE0165E01FC0E881F981F6
:101D10000480F581E02DCE0161E017C0E881F981F2
:101D20000480F581E02DCE0163E00FC0E881F981E8
:101D30000480F581E02DCE0162E007C0E881F981E1
:101D40000480F581E02DCE0166E00995DF91CF9109
:101D50000895CF93DF93DC0147705070607070700E
:101D6000CA014830510580F586599F4FCD91DC91CD
:101D70001197FC010C94941CEC81FD81CD0161E074
:101D800022C0EC81FD81CD0165E01DC0EC81FD81AB
:101D9000CD0164E018C0EC81FD81CD0166E013C087
:101DA000EC81FD81CD0162E00EC0EC81FD81CD01B1
:101DB0006AE009C0EC81FD81CD0168E004C0EC81DE
:101DC000FD81CD0169E00995DF91CF910895CF9311
:101DD000DF93EC018A818823D9F08B8161E072D591
:101DE0008C8161E06FD58A81843011F0883031F4C4
:101DF0008D8161E067D58E8161E064D58EA58F3FCE
:101E000039F061E05FD56DA581E068278EA5C6D564
:101E1000DF91CF910895CF93DF93EC018A818823DE
:101E200069F0E881F9810480F581E02DCE0160E060
:101E300009958EA58F3F11F06DA5B0D5DF91CF919B
:101E40000895A0E0B0E0E7E2FFE00C94671CFC011D
:101E50002281243029F0283019F092E0D92E02C0D6
:101E600084E0D82E8F01C0E0D0E0E62EFF24CC2401
:101E7000C394F8012381C7010C2E02C09595879564
:101E80000A94E2F7678180FD6C25822F87D5219621
:101E90000F5F1F4FCD1568F3CDB7DEB7E8E00C94A8
:101EA000831CCF93DF93EC01E881F9810480F581F5
:101EB000E02DCD5BDF4F8881C354D040882311F4DF
:101EC00060E001C062E0CE010995E881F9810480FB
:101ED000F581E02DCD5BDF4F8881C354D04088234E
:101EE00011F461E001C063E0CE0109958BA59CA5CA
:101EF00024D4E881F9810480F581E02DCD5BDF4FAA
:101F00008881C354D040882311F460E001C062E0AE
:101F1000CE010995DF91CF910895A0E0B0E0E3E90B
:101F2000FFE00C94611CEC013A014B01CB01BA01BA
:101F300020E030E040E050E00E94E619882309F4F8
:101F400040C0AB8CBC8CCD8CDE8CC601B501A4012D
:101F500093010E94E6198823A1F16BA97CA98DA9A0
:101F60009EA90E94851A7B018C01C601B501A401BE
:101F700093010E94EA199B01AC01C801B7010E94BC
:101F8000391B0E94521A6BAB7CAB8DAB9EAB60E0F1
:101F900070E080E090E4A40193010E94EA190E949D
:101FA000A01B20E034E244E759E40E94391B6FABE8
:101FB00078AF89AF9AAF6B8E7C8E8D8E9E8ECE0160
:101FC00034DBCDB7DEB7EEE00C947D1CEF92FF92D0
:101FD0000F931F93CF93DF93EC018BA19CA1ADA135
:101FE000BEA10097A105B10509F44DC05ED37B01E8
:101FF0008C012FA138A549A55AA58BA19CA1ADA103
:10200000BEA1820F931FA41FB51F82179307A407B9
:10201000B50730F0E816F9060A071B0758F405C0A3
:10202000E816F9060A071B0770F1E216F306040723
:10203000150748F5CD5BDF4F8881C354D0402B8511
:102040003C854D855E85813029F42F5F3F4F4F4F92
:102050005F4F04C021503040404050402B873C87A8
:102060004D875E87E881F9814B855C856D857E852E
:102070000680F781E02DCE010995EFA2F8A609A709
:102080001AA781E001C080E0CDB7DEB7E6E00C948E
:10209000851CCF93DF93EC0199DF882311F0CE01EB
:1020A000C4DA6B897C898D899E8920E030E040E02C
:1020B00050E00E94E619882341F4CE01A6DA20E020
:1020C000611571058105910509F021E0822FDF91ED
:1020D000CF910895CF93DF93EC01CE01DADF88230F
:1020E000E1F7DF91CF9108950F931F938C01EFDB00
:1020F000C801F0DF1F910F910895FC01108208952F
:102100000F931F938C0180E090E0F80120813181D2
:1021100040E050E00E94011C9B01AC0160E077E8C8
:1021200083E993E00E94201CF801238334834583D4
:10213000568317821086118612861F910F9108957B
:1021400087EA94E0DACFE0EBF0E090819368908347
:1021500087708093B1001092B3008BE061E0B2C34E
:10216000E0EBF0E090819362908387708093B10000
:102170001092B40083E061E0A5C3CF93DF938CE0BD
:1021800060E00CD488E060E009D4C7E0D0E084E0EF
:1021900060E004D48091A80490E00C2E02C09595D4
:1021A00087950A94E2F780FF03C088E061E002C0EF
:1021B00088E060E0F3D384E061E0F0D321978FEF13
:1021C000CF3FD80721F78CE061E0E8D3DF91CF91D2
:1021D00008951F93CF93DF93EC018A81813029F416
:1021E00014E072E058E030E108C0823011F080E085
:1021F000D0C010E271E050E830E4413041F49B85FA
:10220000892F86958695869580FF10C009C042303B
:10221000A1F49B85892F86958695869580FD06C0BD
:10222000613011F4985F05C0985003C0613019F413
:10223000905F9B8752C09051FCCF433041F48B8517
:10224000613011F4885F01C088508B8746C04430EC
:1022500009F043C08B85613011F48F5F01C081505C
:102260008B87AB85AF73AB87A03148F4B0E0E2EB6E
:10227000F3E0EA1BFB0B2081AE55BC4F19C08A2F3F
:102280008051803148F48A2F90E0FC01EE56FC4FDB
:102290002081E2ECF3E01DC08A2F8052803150F49F
:1022A000B0E0E2EDF3E0EA1BFB0B2081AE57BC4F40
:1022B0008C9115C08A2F8053803118F080E020E087
:1022C0000EC08A2F90E0FC01EE58FC4F2081E2EE18
:1022D000F3E0E81BF90B808102C08FEF2FEFEB8555
:1022E000EF73EB879A81913029F42093B3008093A8
:1022F000B40004C0923011F427BD88BD272F212BD4
:10230000932F952B922B90958091A80498239093CE
:10231000A804443019F5E03118F4922B9093A804E6
:102320008E2F8051803130F4752B8091A804872B3B
:102330008093A8048E2F8052803130F4532B8091EB
:10234000A804852B8093A804E053E031F0F4312BEE
:102350008091A804832B8093A80417C0E695E69586
:10236000E695F0E0EE58FF4F0C94941C912B0BC0B7
:10237000922B09C0972B07C0572B952B04C0352BE8
:1023800001C0312B932B9093A80487EA94E0F5DEEB
:102390008B85DF91CF911F910895A0E0B0E0E3ED30
:1023A000F1E10C94601CEC016B01542EA22EEB8029
:1023B000FC800D811E8123E0A216D1F416950795AD
:1023C000F794E794C801B70128EE33E040E050E00D
:1023D0000E94201C39014A01C801B70128EE33E0F0
:1023E00040E050E00E94201C7B018C01BB243DC0DA
:1023F00084E0A81639F794E016950795F794E794CA
:102400009A95D1F784E0CC0CDD1C8A95E1F7DACF00
:10241000CE01652D4A2DDDDEB82EB301C4016BD18E
:102420008F819885A985BA858E0D9F1DA01FB11F2C
:102430008F839887A987BA87885E9340A040B04071
:1024400088F061E070E080E090E055D18F81988560
:10245000A985BA85885E9340A040B0408F83988755
:10246000A987BA870894C108D108C114D10481F69C
:1024700084E0A81681F52AC0CE01652D44E0A9DECE
:10248000B82EB301C40137D18F819885A985BA854B
:102490008E0D9F1DA01FB11F8F839887A987BA87B4
:1024A000885E9340A040B04088F061E070E080E03A
:1024B00090E021D18F819885A985BA85885E934067
:1024C000A040B0408F839887A987BA87BB2019F0B6
:1024D00080E1B81689F6CDB7DEB7EFE00C947C1C2E
:1024E000FC018281813041F48091A804817E809337
:1024F000A80487EA94E041CE823041F48091A80498
:102500008E718093A80487EA94E037CE08950F93E4
:102510001F938C018CE061E0D5D187E061E0D2D1DE
:1025200088E061E0CFD184E061E0CCD11092A804D2
:10253000C80123DE87E060E031D21F910F9108953A
:10254000DF92EF92FF920F931F938C017B01D42EA9
:1025500087EA94E0DCDFF801F182E082D282138620
:10256000F1E0DF16F1F48091A804817E8093A80445
:1025700087EA94E002DE8BE061E0A4D183E061E0D1
:10258000A1D18BE061E00AD283E061E007D281E073
:10259000DADD81E0E5DD8FEF8093B3008093B40056
:1025A00028C082E0D81629F58091A8048E71809306
:1025B000A80487EA94E0E1DD85E061E083D186E06C
:1025C00061E080D185E061E0E9D186E061E0E6D1BB
:1025D00084B5836884BD17BC86E061E073D184B59F
:1025E000836284BD18BC85E061E06CD18FEF87BD4C
:1025F00088BD1F910F91FF90EF90DF9008951F927B
:102600000F920FB60F9211242F933F938F939F93A6
:10261000AF93BF938091AD049091AE04A091AF04AD
:10262000B091B0043091B1040196A11DB11D232FCA
:102630002D5F2D3720F02D570196A11DB11D209340
:10264000B1048093AD049093AE04A093AF04B09313
:10265000B0048091A9049091AA04A091AB04B09118
:10266000AC040196A11DB11D8093A9049093AA0406
:10267000A093AB04B093AC04BF91AF919F918F91A5
:102680003F912F910F900FBE0F901F9018958FB70D
:10269000F8942091AD043091AE044091AF04509174
:1026A000B0048FBFB901CA0108959FB7F894209173
:1026B000A9043091AA044091AB045091AC0486B5B2
:1026C000A89B06C08F3F21F02F5F3F4F4F4F5F4FBA
:1026D0009FBF542F432F322F2227280F311D411D1A
:1026E000511D82E0220F331F441F551F8A95D1F7D9
:1026F000B901CA010895EF92FF920F931F93CF93F0
:10270000DF937B018C01D1DFEB010DC0CEDF6C1BB1
:102710007D0B685E7340D0F30894E108F10801096D
:102720001109C851DC4FE114F1040105110571F7DD
:10273000CDB7DEB7E6E00C94851C019739F0880F21
:10274000991F880F991F02970197F1F708957894C0
:1027500084B5826084BD84B5816084BD85B58260A6
:1027600085BD85B5816085BDEEE6F0E08081816044
:102770008083E1E8F0E01082808182608083808144
:1027800081608083E0E8F0E0808181608083E1EB1C
:10279000F0E0808184608083E0EBF0E08081816004
:1027A0008083EAE7F0E080818460808380818260BA
:1027B00080838081816080838081806880831092A3
:1027C000C1000895982F8E3008F09E509770809128
:1027D000B3038295880F880F807C892B80937C00BF
:1027E00080917A00806480937A0080917A0086FDDF
:1027F000FCCF2091780040917900942F80E030E068
:10280000282B392BC90108951F93CF93DF93182FDD
:10281000EB0161E057D0209709F44AC0CF3FD105C2
:1028200009F449C0E12FF0E0E652FC4F8491833077
:10283000C1F0843028F4813051F08230B1F50CC001
:10284000863019F1873049F1843079F514C084B5A8
:10285000806884BDC7BD32C084B5806284BDC8BDF8
:102860002DC080918000806880938000D093890083
:10287000C093880023C08091800080628093800094
:10288000D0938B00C0938A0019C08091B0008068FB
:102890008093B000C093B30011C08091B0008062FB
:1028A0008093B000C093B40009C0C038D1051CF4B7
:1028B000812F60E002C0812F61E070D0DF91CF9165
:1028C0001F910895CF93DF93482F50E0CA018A5398
:1028D0009C4FFC0134914E545C4FFA018491882343
:1028E00069F190E0880F991FFC01EC56FC4FA5910F
:1028F000B491FC01E256FC4FC591D491662351F48A
:102900002FB7F8948C91932F909589238C9388817D
:1029100089230BC0623061F42FB7F8948C91932F08
:10292000909589238C938881832B88832FBF06C041
:102930009FB7F8948C91832B8C939FBFDF91CF919D
:102940000895833071F0843028F48130A1F0823012
:1029500021F514C08630B1F08730D1F08430E9F42D
:1029600004C0809180008F7703C0809180008F7DAC
:1029700080938000089584B58F7702C084B58F7DE1
:1029800084BD08958091B0008F778093B000089542
:102990008091B0008F7D8093B0000895FF920F93D7
:1029A0001F93F62E482F50E0CA0186529C4FFC011F
:1029B0002491CA018A539C4FFC0114914E545C4FE0
:1029C000FA0104910023C1F0222311F0822FB9DF14
:1029D000E02FF0E0EE0FFF1FE256FC4FA591B491FF
:1029E0009FB7F894FF2021F48C911095812302C0A9
:1029F0008C91812B8C939FBF1F910F91FF90089515
:102A000008951F920F920FB60F9211242F933F93A8
:102A10004F938F939F93EF93FF938091C00082FD1C
:102A20001DC04091C6002091F2043091F3042F5F45
:102A30003F4F2F7330708091F4049091F504281764
:102A4000390771F0E091F204F091F304EE54FB4F7A
:102A500040833093F3042093F20402C08091C600B7
:102A6000FF91EF919F918F914F913F912F910F90F7
:102A70000FBE0F901F9018951F920F920FB60F92D6
:102A800011242F933F938F939F93EF93FF93209164
:102A90003605309137058091380590913905281712
:102AA000390731F48091C1008F7D8093C10014C03B
:102AB000E0913805F0913905EA50FB4F2081809173
:102AC00038059091390501968F7390709093390570
:102AD000809338052093C600FF91EF919F918F91CD
:102AE0003F912F910F900FBE0F901F901895A0E06F
:102AF000B0E0ECE7F5E1E7C6FC011382128288EE54
:102B000093E0A0E0B0E084839583A683B78385EF4C
:102B100093E0918380837587648757874687318BDD
:102B2000208B138B028BF58AE48AD78AC68AB18EF2
:102B3000A08E938E828E8F85848F8889858F8989D8
:102B4000868F8A89878F8B8980A32096ECE0D7C6F1
:102B5000AF92BF92DF92EF92FF920F931F93CF93AA
:102B6000DF93EC017A018B01DD24403081EE5807C0
:102B700080E0680780E0780711F0DD24D39491E0CD
:102B8000A92EB12CEC89FD89DD2069F0C50108A0D2
:102B900002C0880F991F0A94E2F7808360E079E011
:102BA0008DE390E005C0108260E874E88EE190E06B
:102BB000A801970145D621503040404050405695DD
:102BC00047953795279580E12030380720F0DD20A4
:102BD00011F0DD24D7CFE889F9893083EA89FB89B0
:102BE000208319A2EE89FF89408121E030E0C901EC
:102BF0000C8C02C0880F991F0A94E2F7482B40837F
:102C0000EE89FF894081C9010D8C02C0880F991F90
:102C10000A94E2F7482B4083EE89FF894081C9017D
:102C20000E8C02C0880F991F0A94E2F7482B40834C
:102C3000EE89FF8980810F8C02C0220F331F0A9416
:102C4000E2F7209528232083DF91CF911F910F91E8
:102C5000FF90EF90DF90BF90AF900895DC011C963D
:102C6000ED91FC911D97E05CFF4F219131918081A6
:102C70009181281B390B2F733070C90108958AE3A5
:102C800095E0ECDF892B09F0BBCE0895DC011C96A2
:102C9000ED91FC911D97E05CFF4F20813181E05464
:102CA000F040DF01AE5BBF4F8D919C9111972817CB
:102CB000390719F42FEF3FEF07C08D919C91E80F72
:102CC000F91F8081282F30E0C9010895DC011C968E
:102CD000ED91FC911D97E05CFF4F20813181E05424
:102CE000F040DF01AE5BBF4F8D919C91119728178B
:102CF000390719F42FEF3FEF10C08D919C91119778
:102D0000E80FF91F20818D919C91119701968F7387
:102D1000907011969C938E9330E0C9010895DC0168
:102D200091968C919197882339F05496ED91FC916E
:102D30005597808186FFF9CF91961C920895CF9385
:102D4000DF93EC01EE85FF85E05CFF4F2081318150
:102D5000E054F0402F5F3F4F2F733070DF01AE5BC8
:102D6000BF4F8D919C91119728173907D1F3E05CE3
:102D7000FF4F80819181E054F040E80FF91F60839C
:102D8000EE85FF85E05CFF4F31832083EE89FF896C
:102D9000208181E090E00F8C02C0880F991F0A9477
:102DA000E2F7282B208381E089A3EC89FD898081CB
:102DB0008064808381E090E0DF91CF9108958F92CD
:102DC0009F92AF92BF92CF92DF92EF92FF920F93BA
:102DD0001F9300D000D00F92EDB7FEB7319684E07C
:102DE000ADB7BEB711968C9383E0818387E0828371
:102DF00085E0838381E084838AE395E062EB74E07D
:102E000046EF54E025EC30E004EC10E0B0ECEB2EA3
:102E1000F12CA1ECCA2ED12CF2ECAF2EB12CE6ECA9
:102E20008E2E912C64DE0F900F900F900F900F90CC
:102E30001F910F91FF90EF90DF90CF90BF90AF90D8
:102E40009F908F900895A0E0B0E0E8E2F7E13FC5E1
:102E50007C016B018A01C0E0D0E00FC0D6016D910A
:102E60006D01D701ED91FC910190F081E02DC7013A
:102E70000995C80FD91F015010400115110571F7B0
:102E8000CE01CDB7DEB7E8E03EC5EF92FF920F93DB
:102E90001F93CF93DF937C018B01C0E0D0E0F8015A
:102EA0000F5F1F4F6491662359F0D701ED91FC919C
:102EB0000190F081E02DC7010995C80FD91FEFCF10
:102EC000CE01CDB7DEB7E6E020C5DC01ED91FC9187
:102ED0000190F081E02D09950895EF92FF920F93F4
:102EE0001F938C016DE0F1DF7C01C8016AE0EDDF2A
:102EF0009C012E0D3F1DC9011F910F91FF90EF9076
:102F00000895EF92FF920F931F937C01BEDF8C0117
:102F1000C701E3DF9C01200F311FC9011F910F91F1
:102F2000FF90EF9008950F931F93CF93DF938C0141
:102F3000EB016115710519F420E030E00EC0CB0102
:102F40000E942302AC01D801ED91FC910280F38133
:102F5000E02DC801BE0109959C01C901DF91CF9107
:102F60001F910F9108954F925F927F928F929F923F
:102F7000AF92BF92CF92DF92EF92FF920F931F9387
:102F8000DF93CF93CDB7DEB7A1970FB6F894DEBF2E
:102F90000FBECDBF2C01742ECB01223008F42AE0E5
:102FA00019A231E2C32ED12CCC0EDD1E822E992423
:102FB000AA24BB24672D752FA501940141D4790162
:102FC0008A01C801B701A50194011BD4472D461BF6
:102FD0000894C108D1084A3010F4405D01C0495C32
:102FE000F6014083E114F1040105110521F07E2C66
:102FF0005F2DC801DFCFC201B60195DFA1960FB6E4
:10300000F894DEBF0FBECDBFCF91DF911F910F911E
:10301000FF90EF90DF90CF90BF90AF909F908F90F8
:103020007F905F904F900895DC012115310541F4A8
:10303000ED91FC910190F081E02D642F09950895A8
:1030400092CFEF92FF920F931F937C01EDDF8C01E3
:10305000C70143DF9C01200F311FC9011F910F9150
:10306000FF90EF900895EF92FF920F931F939A01B4
:10307000E62EFF2400E010E0B801A701D5DF1F9184
:103080000F91FF90EF900895EF92FF920F931F938F
:103090007C01E9DF8C01C70120DF9C01200F311F7B
:1030A000C9011F910F91FF90EF900895A0E0B0E04B
:1030B000EBE5F8E10CC4EC016A017B012115310557
:1030C00041F4E881F9810190F081E02D642F0995A8
:1030D00018C02A303105A1F477FF11C06DE2F5DE8A
:1030E0008C0144275527BA014C195D096E097F09E7
:1030F000CE012AE038DF9C01200F311F03C02AE0F7
:1031000032DF9C01C901CDB7DEB7E8E0FCC3EF9226
:10311000FF920F931F937C01C9DF8C01C701DDDE95
:103120009C01200F311FC9011F910F91FF90EF905B
:103130000895EF92FF920F931F937B019A0100274E
:10314000F7FC0095102FB801A701B0DF1F910F9178
:10315000FF90EF900895EF92FF920F931F937C01E1
:10316000E8DF8C01C701B9DE9C01200F311FC901C6
:103170001F910F91FF90EF900895D5CE0895EF9293
:10318000FF920F931F937C01F8DF8C01C701A5DE2E
:103190009C01200F311FC9011F910F91FF90EF90EB
:1031A0000895CF93DF93EC0172DA688779878A8775
:1031B0009B87E881F9810084F185E02DCE01099596
:1031C0009C0197FF14C063DA288539854A855B85A1
:1031D000621B730B840B950B2C813D814E815F81AB
:1031E000621773078407950720F32FEF3FEFC9019C
:1031F000DF91CF910895CF93DF93EC01CE01D1DF22
:103200009C0197FD0EC08D32910559F0C0970A9729
:1032100040F0E881F9810680F781E02DCE01099523
:10322000EDCFC901DF91CF910895A0E0B0E0EAE1D0
:10323000F9E14AC36C01B62EDEDFEC0197FF04C052
:10324000EE24FF24870148C09924EE24FF2487013F
:10325000AB2CBB24CA15DB0521F1CD32D10519F405
:10326000992493941EC0CE01C0970A97D0F4C80148
:10327000B7012AE030E040E050E0C3D27B018C018E
:10328000CE01AA2797FDA095BA2FE80EF91E0A1FB6
:103290001B1F80ED9FEFAFEFBFEFE80EF91E0A1F77
:1032A0001B1FD601ED91FC910680F781E02DC60130
:1032B0000995C60176DFEC01C0970A9758F2CA1546
:1032C000DB0541F2992041F010950095F094E094CF
:1032D000E11CF11C011D111DB701C801CDB7DEB7FE
:1032E000EBE00EC361E0A1CFCF93DF9330DA0E9411
:1032F0005008CFE3D6E10E94F3082097E1F3BFDC4A
:10330000FACF5058BB27AA270ED075C166D130F02E
:103310006BD120F031F49F3F11F41EF45BC10EF429
:10332000E095E7FB51C1E92F77D180F3BA17620727
:1033300073078407950718F071F49EF58FC10EF49A
:10334000E0950B2EBA2FA02D0B01B90190010C01B5
:10335000CA01A0011124FF27591B99F0593F50F4CD
:10336000503E68F11A16F040A22F232F342F442725
:10337000585FF3CF469537952795A795F04053951D
:10338000C9F77EF41F16BA0B620B730B840BBAF0ED
:103390009150A1F0FF0FBB1F661F771F881FC2F758
:1033A0000EC0BA0F621F731F841F48F4879577956C
:1033B0006795B795F7959E3F08F0B3CF9395880F23
:1033C00008F09927EE0F979587950895D9D008F4BE
:1033D00081E008950CD00FC107D140F0FED030F04D
:1033E00021F45F3F19F0F0C0511139C1F3C014D17D
:1033F00098F39923C9F35523B1F3951B550BBB27BC
:10340000AA2762177307840738F09F5F5F4F220F68
:10341000331F441FAA1FA9F333D00E2E3AF0E0E861
:1034200030D091505040E695001CCAF729D0FE2FAD
:1034300027D0660F771F881FBB1F2617370748073F
:10344000AB07B0E809F0BB0B802DBF01FF279358F5
:103450005F4F2AF09E3F510568F0B6C000C15F3F44
:10346000ECF3983EDCF3869577956795B795F795DD
:103470009F5FC9F7880F911D9695879597F90895D5
:10348000E1E0660F771F881FBB1F62177307840771
:10349000BA0720F0621B730B840BBA0BEE1F88F780
:1034A000E095089504D06894B111D9C00895BCD0B6
:1034B00088F09F5790F0B92F9927B751A0F0D1F01D
:1034C000660F771F881F991F1AF0BA95C9F712C0A7
:1034D000B13081F0C3D0B1E00895C0C0672F782F1C
:1034E0008827B85F39F0B93FCCF386957795679513
:1034F000B395D9F73EF490958095709561957F4F7F
:103500008F4F9F4F0895E89409C097FB3EF4909524
:103510008095709561957F4F8F4F9F4F9923A9F0AC
:10352000F92F96E9BB279395F6958795779567953B
:10353000B795F111F8CFFAF4BB0F11F460FF1BC07F
:103540006F5F7F4F8F4F9F4F16C0882311F096E912
:1035500011C0772321F09EE8872F762F05C06623C0
:1035600071F096E8862F70E060E02AF09A95660F79
:10357000771F881FDAF7880F9695879597F9089532
:10358000990F0008550FAA0BE0E8FEEF1616170674
:10359000E807F907C0F012161306E407F50798F0DC
:1035A000621B730B840B950B39F40A2661F0232BF5
:1035B000242B252B21F408950A2609F4A140A69571
:1035C0008FEF811D811D089597F99F6780E870E056
:1035D00060E008959FEF80EC089500240A94161689
:1035E000170618060906089500240A9412161306F1
:1035F000140605060895092E0394000C11F488237F
:1036000052F0BB0F40F4BF2B11F460FF04C06F5F9A
:103610007F4F8F4F9F4F089557FD9058440F551F70
:1036200059F05F3F71F04795880F97FB991F61F044
:103630009F3F79F087950895121613061406551FBB
:10364000F2CF4695F1DF08C0161617061806991F27
:10365000F1CF86957105610508940895E894BB271C
:1036600066277727CB0197F908958ADF08F48FEF53
:1036700008950BD0C0CFB1DF28F0B6DF18F0952346
:1036800009F0A2CFA7CF1124EACFC6DFA0F3959F00
:10369000D1F3950F50E0551F629FF001729FBB2739
:1036A000F00DB11D639FAA27F00DB11DAA1F649FE5
:1036B0006627B00DA11D661F829F2227B00DA11D98
:1036C000621F739FB00DA11D621F839FA00D611D1E
:1036D000221F749F3327A00D611D231F849F600D3F
:1036E000211D822F762F6A2F11249F5750408AF078
:1036F000E1F088234AF0EE0FFF1FBB1F661F771F04
:10370000881F91505040A9F79E3F510570F05CCF43
:10371000A6CF5F3FECF3983EDCF3869577956795EF
:10372000B795F795E7959F5FC1F7FE2B880F911D21
:103730009695879597F9089511F40EF44BCF4AC0EA
:1037400073DFD0F39923D9F3CEF39F57550B87FF3F
:1037500051D056959795B0E020F4660F771F881FDB
:10376000BB1F1F930F9300249001A0018001F00163
:10377000A0E80E0F1F1F0A1E511D601B710B800950
:10378000B50B48F4600F711F801DB51F0E1B1F0B7A
:103790000A0A510907C02E0F3F1F4A1F0E0F1F1F95
:1037A0000A1E511D660F771F881FBB1FA695F79530
:1037B000E795F8F60617170708065B07211D311D68
:1037C000411D0F911F91B901842F9158880F969533
:1037D000879508959F3F49F0915028F486957795F5
:1037E0006795B7959F5F80389F4F880F969587950F
:1037F00097F9089591505040660F771F881FD2F7B0
:103800000895629FD001739FF001829FE00DF11D2A
:10381000649FE00DF11D929FF00D839FF00D749F4A
:10382000F00D659FF00D9927729FB00DE11DF91FF6
:10383000639FB00DE11DF91FBD01CF011124089553
:10384000A1E21A2EAA1BBB1BFD010DC0AA1FBB1FA4
:10385000EE1FFF1FA217B307E407F50720F0A21B16
:10386000B30BE40BF50B661F771F881F991F1A9483
:1038700069F760957095809590959B01AC01BD01AD
:10388000CF01089597FB092E05260ED057FD04D0D1
:10389000D7DF0AD0001C38F450954095309521951B
:1038A0003F4F4F4F5F4F0895F6F790958095709575
:1038B00061957F4F8F4F9F4F08952F923F924F9268
:1038C0005F926F927F928F929F92AF92BF92CF92B0
:1038D000DF92EF92FF920F931F93CF93DF93CDB7B9
:1038E000DEB7CA1BDB0B0FB6F894DEBF0FBECDBF31
:1038F00009942A88398848885F846E847D848C8402
:103900009B84AA84B984C884DF80EE80FD800C810A
:103910001B81AA81B981CE0FD11D0FB6F894DEBFED
:103920000FBECDBFED010895EE0FFF1F0590F4917E
:10393000E02D0994911114C080538A50E0F7089546
:1039400091110EC0803219F089508550D0F708953A
:103950009111089581568A5108F48052855808952E
:0A396000992788270895F894FFCFF7
:10396A00003A2000204F4B00204572726F720047C8
:10397A006574446174613A20556E696E697469614F
:10398A006C697A656420454550524F4D006C696EEA
:10399A0065203D2000637263203D200072656164EA
:1039AA0020637263203D2000777269746520636F1B
:1039BA00756E74203D2000476574446174613A2035
:1039CA0020435243204572726F7200303A20476595
:1039DA007444617461204F4B3A20007772697465B0
:1039EA00203078006C696E652800293A20005772E9
:1039FA0069746520454550524F4D000A27003C3DE9
:103A0A00002700566572626F7365206F6E2E005331
:103A1A00657420566572626F736500706F776572A0
:103A2A00206C6576656C203D200053746174757353
:103A3A003132760073656E7365280029203D2000B7
:103A4A00537461747573446F6F7200537461747543
:103A5A0073446F6F7220447261776572204F70658C
:103A6A006E005365744C454420477265656E005379
:103A7A0065744C454420426C7565007374657043E7
:103A8A006F756E74203D2000536F756E64466974BD
:103A9A004D6963726F582E696E6F0066616C73654B
:103AAA0000486F6D6500656C65766174696E6720A4
:103ABA00746F2000206465677265657320287374CB
:103ACA00657020002900726F746174696E672074D2
:103ADA006F20005365744C4544204F666600436866
:103AEA0065636B526561647920313276206661695B
:103AFA006C75726500436865636B52656164792011
:103B0A00446F6F72204F70656E206661696C7572C2
:103B1A006500436865636B52656164790053657437
:103B2A004C454420526564005265736574005265C1
:103B3A0073657474696E672E200043616C696272E2
:103B4A006174696E672E20003E20002E003F20001F
:103B5A00456C657661746500456C65766174696F5C
:103B6A006E20486F6D656400456C65766174696F97
:103B7A006E206E6F7420486F6D656400496D6167D1
:103B8A00696E67204F6666003F00536574496D6130
:103B9A0067696E6728582900496D6167696E6720F1
:103BAA004F6E005B5247424F5D3F00526F74617423
:103BBA006500526F746174696F6E20486F6D656439
:103BCA0000526F746174696F6E206E6F7420486F53
:103BDA006D6564004D61796265206C61746572007F
:103BEA00272E202054797065203F20666F72206D41
:103BFA006F726520696E666F2E00322E30347A003D
:103C0A009A030019324A62788DA2B4C5D4E1ECF461
:103C1A00FAFDFF0163756265486F6D65456C6576EF
:103C2A006174696F6E0063756265486F6D65526F86
:103C3A00746174696F6E00000000000B0FE70E21BB
:103C4A000F320D780D510F900DD00D050E450EA9AE
:103C5A000E000000009F1623172E16661646168FB2
:023C6A00160042
:00000001FF
