:10000000E8C100000EC200000CC200000AC20000DD
:1000100008C2000006C2000004C2000002C20000C4
:1000200000C20000FEC10000FCC10000FAC10000D7
:10003000F8C10000F6C10000F4C10000F2C10000E8
:100040000C946211EEC100000C9464130C949F1385
:10005000E8C10000E6C10000E4C10000E2C1000008
:10006000E0C10000DEC10000AA07EC07B108F707F5
:10007000FA07B108B1082F08B1082408B108B1087F
:10008000B1086E088E08B108B1089608B108A0083A
:10009000B108AA089507B1083609B108B108B10836
:1000A000B10899079F07A407DB07B108B108B10899
:1000B000B108B108B108B108B108B108B108B10878
:1000C000B1087E08B1089308B1089B08B108A808D8
:1000D000B108AC081F0D240D290D2E0D330D380D60
:1000E0003D0D420D19101B101D101F102010221065
:1000F000251024106563686F203D200064656275DB
:1001000067203D2000766572626F7365203D200098
:100110007A202D2D204E56207265747269657665A1
:100120000A005A3C737472696E672076616C75655B
:100130003E202D2D204E562073746F726500443C76
:100140007661723E3D3C646174613E202D2D2073CA
:100150006574207661726961626C6520746F2044F9
:10016000617461005630202D2D20736574206E6FF0
:100170006E2D566572626F7365005631202D2D20ED
:1001800073657420566572626F73650046202D2D6D
:10019000206C616D7073206F4666004E202D2D20FF
:1001A0006C616D7073206F4E00456E6E6E202D2D4C
:1001B00020654C657661746520746F206E6E6E20CC
:1001C00028746F70203D20302900526E6E6E202DF5
:1001D0002D20526F7461746520746F206E6E6E00F6
:1001E00053202D2D20726553657400436F6D6D6132
:1001F0006E64733A0A00756E7265636F676E697A32
:10020000656420636F6D6D616E64202700206465F6
:1002100067726565732066726F6D20746F702E0053
:10022000456C657661746520746F2000524F545F91
:10023000414343454C45524154494F4E203D2000D7
:10024000524F545F4D41585F5350454544203D2027
:1002500000454C45565F414343454C455241544946
:100260004F4E203D2000454C45565F4D41585F5351
:1002700050454544203D2000436F6E7374616E7499
:10028000733A00646562756720203D2000766572D0
:10029000626F7365203D20006563686F203D20001C
:1002A000206275742057686F612E2020526F746130
:1002B00074696F6E206E6F7420686F6D65642E00B8
:1002C000206275742057686F612E2020456C65761A
:1002D0006174696F6E206E6F7420686F6D65642E37
:1002E000002075702E00207374617274696E67004F
:1002F00032303A30383A33350020004A756E2020CB
:10030000332032303134002C206275696C74200047
:100310000A0A0A5375676172437562652076003A6E
:100320002056657273696F6E204F4B3A20003A7603
:10033000657273696F6E20003639325F3639334D1E
:10034000002E7200696E7465726D65646961746512
:100350002063756265486F6D65456C65766174698B
:100360006F6E28293D00667265652052414D203D23
:10037000200000000000240027002A0000000000E8
:10038000250028002B000000000023002600290083
:10039000040404040404040402020202020203032B
:1003A0000303030301020408102040800102040833
:1003B00010200102040810200000000700020100C4
:1003C0000003040600000000000000003302030FD9
:1003D000421511241FBECFEFD8E0DEBFCDBF13E022
:1003E000A0E0B1E0E8EEF5E302C005900D92AC3973
:1003F000B107D9F714E0ACE9B3E001C01D92AA3F00
:10040000B107E1F713E0C2EDD3E004C02297FE018B
:100410000E94D51ACC3CD107C9F70E94B3170C949F
:10042000F21AEECDFC0101900020E9F7809590953D
:100430008E0F9F1F0895A2E0B0E0E1E2F2E00C947D
:10044000AC1A8091F6049091F704009711F48AEFAA
:1004500094E09E012F5F3F4F281B390BC901229664
:10046000E2E00C94C81A80EA93E060E370E041E0B7
:100470000E9403118CEA93E068EC70E042E00E9475
:10048000031188EB93E06BE479E040E559E00E94CA
:10049000DB0A8CEF93E061E479E046E459E00C94E8
:1004A000DB0ABC0180919D03882321F084ED94E058
:1004B0000C94FC160895BC0180919D03882331F0B3
:1004C00084ED94E04AE050E00C94D81608950F9320
:1004D0001F9304ED14E060913A0370913B03C8014F
:1004E0000E94FC16C80161E473E00E94A815C801CF
:1004F00068E373E00E94A8151F910F9108950F9370
:100500001F9304ED14E0C80160E173E00E94A81598
:10051000DEDFC80167E073E00E94A815C8016BEF39
:1005200072E00E94A815C80169EF72E00E94A81548
:10053000C80160EF72E00E94A8151F910F91089505
:100540000F931F9304ED14E0C80166E673E00E9468
:10055000A81571DFBC01C8014AE050E00E94EA160C
:100560001F910F910895682F80919C03882321F09B
:1005700084ED94E00C94C815089580919D03882320
:1005800091F084ED94E06EE273E00E94A815609112
:100590003A0370913B0384ED94E00E94FE1684EDD3
:1005A00094E00E94F21484ED94E060E070E04AE090
:1005B00050E00E94D81684ED94E06FE173E00E9451
:1005C000A81585DF84ED94E00C94D0150F931F934C
:1005D000CF93DF93EC018B0180919D03882331F051
:1005E00084ED94E060E071E00E94FE1684ED94E0FA
:1005F000BE014AE050E00E94D81684ED94E061E02C
:1006000071E00E94FC1684ED94E0B8010E94FC1693
:10061000209729F484ED94E064E071E004C084ED57
:1006200094E068E071E00E94FE1680919E038823AA
:1006300009F086DF84ED94E00E94F214CE01DF9190
:10064000CF911F910F910895AF92BF92CF92DF92F9
:10065000EF92FF920F931F93FC017B016A015901F6
:1006600004ED14E0C801BF010E94FE16C801B701E5
:100670000E94FE16C801B6014AE050E00E94EA1648
:10068000C801B5010E94FE16C8010E94F2141F9114
:100690000F91FF90EF90DF90CF90BF90AF900895B3
:1006A000BC0180919D03882321F084ED94E00C949B
:1006B000FE1608950F931F9304ED14E0C80168E936
:1006C00072E00E94A815C80160919C034AE050E0C6
:1006D0000E949516C8016DE872E00E94A815C80135
:1006E00060919D034AE050E00E949516C80163E8BE
:1006F00072E00E94A815C80160919E034AE050E094
:100700000E949516C80168E772E00E94E415C801CE
:1007100066E672E00E94A815C80168EC70E04AE045
:1007200050E00E94EA16C80161E572E00E94A81537
:10073000C80160E273E04AE050E00E94EA16C80196
:1007400060E472E00E94A815C80168EC70E04AE01D
:1007500050E00E94EA16C8016CE272E00E94A815FF
:10076000C80160E273E04AE050E00E94EA161F917F
:100770000F910895AFEFB0E0E0ECF3E00C94A81A0D
:1007800000E010E07E010894E11CF11C80E494E09C
:10079000B8018BD5F701E00FF11F8083882329F082
:1007A0000F5F1F4F0F3F110589F784ED94E06FE055
:1007B00071E00E94FC1684ED94E0BE016F5F7F4FF4
:1007C0000E94FE1680E090E0C150DF4FE6E00C94FE
:1007D000C41A84ED94E00E949114892BD1F30895FA
:1007E00084ED94E00E94911418161906CCF784ED5C
:1007F00094E00C94C914EF92FF920F931F93CF9340
:10080000DF937C01EB0100E0EBDF182FACDEF7019A
:10081000E00FF11D10831A3059F01D3049F0202FE0
:100820002F5F822F90E08C179D0714F4022FECCFDE
:100830001082802F90E0CDB7DEB7E6E00C94C41AAA
:10084000AFEFB0E0E6E2F4E00C94A61A8E010F5F81
:100850001F4FC8016FEF70E0CEDF7C018FE191E0A8
:1008600020DEC70128DE85E291E01ADFC80118DF2B
:1008700080919D03882309F063DE00E010E06E01A3
:100880000894C11CD11C0AC0F601E00FF11F80E4DE
:1008900094E0B801408110D50F5F1F4FE016F106BC
:1008A0009CF780E090E068E271E090DEC150DF4F9D
:1008B000E8E00C94C21A04C084ED94E00E94C914CC
:1008C00084ED94E00E949114892BB1F7089581DFA3
:1008D00084ED94E00E94A9140E94D91A892B39F062
:1008E00084ED94E00E94B11760939D0308C090E0EE
:1008F00080919D03882309F491E090939D0380915A
:100900009D03882319F08DE391E0CBDD80E090E03A
:1009100069E471E05BCE1F93CF93DF93182F81E1E1
:100920000E944512EC0180919E03882329F085E501
:1009300091E0B7DDCE01BFDDC55FD1401CF4C2E060
:10094000D0E002C0C0E0D0E0112321F0CE0164E687
:1009500071E03CDECE01DF91CF911F9108950F939E
:100960001F93CF93DF93182F092F0E944512EC019C
:1009700080919E03882371F08EE691E092DD812FB5
:10098000902F99DD85E791E08CDDCE0194DD80E04C
:1009900091E086DE80E0C558D3400CF081E0DF9125
:1009A000CF911F910F91089580E190E0D8CF8FE013
:1009B00090E0D5CF1F93CF93DF93182F82E190E083
:1009C000CEDF882319F4C7E0D0E002C0C0E0D0E059
:1009D000112359F0209729F480E090E06AE771E054
:1009E00003C0CE0165E871E0F1DDCE01DF91CF916A
:1009F0001F9108951F939C01162F83E0B9010E9457
:100A00006712112329F080E090E06CE971E0DEDDEF
:100A10001F9108951F939C01162F89E0B9010E9430
:100A20006712112329F080E090E069EA71E0CEDDE1
:100A30001F9108951F93CF93DF93C0E0D0E08FE024
:100A400090E08DDF182F8823A1F480EA93E061E025
:100A500070E042E021E00E943010219685EB91E0A9
:100A600020DDCE0128DD80E091E01ADEC038D1051E
:100A700031F780EA93E00E94D310112319F020E0AF
:100A800030E011C0C038D1051CF025E030E00BC0CB
:100A90008EE493E062EC71E04FE552E025ED31E049
:100AA000D3DD23E630E0C901DF91CF911F91089596
:100AB0001F93CF93DF93C0E0D0E080E190E04FDF61
:100AC000182F8823B1F48CEA93E061E070E041E0F4
:100AD00023E00E943010219680919E03882341F1EB
:100AE00085EB91E0DEDCCE01E6DC80E091E0D8DD54
:100AF0001FC08CEA93E00E94D310112319F020E06C
:100B000030E011C0C059D1401CF023E030E00BC0F0
:100B100080E693E062EC71E046E352E025ED31E0DF
:100B200093DD23E630E0C901DF91CF911F91089555
:100B300081E0C039D80709F0C0CFDBCF1F93CF9336
:100B4000DF93182F77DFEC0180919E03882369F0F3
:100B500084ED94E064E473E00E94A81584ED94E0D1
:100B6000BE014AE050E00E94EA16209711F4A0DF8F
:100B7000EC01112321F0CE016BED71E027DDCE01F8
:100B8000DF91CF911F910895EF92FF920F931F93E2
:100B90007C0180EE91E085DCC7018DDC8EEE91E07A
:100BA00080DC0027F7FC0095102FC801B7010E94D8
:100BB000C41827E738E046E350E40E94781920E0A3
:100BC00030E040E05FE30E94C1170E949118DC0111
:100BD000CB017C0170DC8EEF91E062DD0027F7FC39
:100BE0000095102F88EB93E0B801A7010E94D70E63
:100BF00080E090E01F910F91FF90EF900895EF92A9
:100C0000FF920F931F937C0180E092E04ADCC701C2
:100C100052DC8EEE91E045DC0027F7FC0095102FAA
:100C2000C801B7010E94C41824EE38E34EE85FE320
:100C30000E94781920E030E040E05FE30E94C11795
:100C40000E949118DC01CB017C0135DC8EEF91E034
:100C500027DD0027F7FC0095102F8CEF93E0B801FB
:100C6000A7010E94D70E80E090E01F910F91FF90A6
:100C7000EF900895892B19F08EE06FEF02C08EE09F
:100C800060E00C9431131F93182F82E060E00E9403
:100C9000311383E060E070E00E94671289E060E059
:100CA00070E00E946712112329F080E090E06DE06F
:100CB00072E08CDC1F91089582E061E070E00E9498
:100CC000671280E028DE009719F068E172E006C044
:100CD00080E070DE009719F06FE272E077CC80E080
:100CE000D2DF86E090E060E085DE80E090E06CE4BA
:100CF00072E06CCC1F93982F162F82E0692F0E9410
:100D00003113112329F080E090E067E572E05EDCAA
:100D10001F910895CF93DF9380E0FDDDEC010097F4
:100D200089F480E00BDFEC01009761F480E090E053
:100D3000A1DF80E090E060E06DDE86E090E060E0C2
:100D400059DE04C081E090E060E0D4DFCE0162E6CD
:100D500072E03CDCDF91CF91089584ED94E040E8AF
:100D600055E260E070E00E940B14A5DDC8DB84ED65
:100D700094E066EE72E00E94A81584ED94E00E9473
:100D8000F21480EA93E062E370E00E94E30E8CEAE2
:100D900093E069E170E00E94E30E8CEF93E040E0A5
:100DA00050E068E473E46ED48CEF93E040E050E0F0
:100DB00068E474E415D788EB93E040E050E068E421
:100DC00073E460D488EB93E040E050E068E474E4BE
:100DD00007D78FE060E00E94C51280E160E00E94CA
:100DE000C51281E160E00E94C51282E160E00E94CC
:100DF000C5128EE061E00E94C51282E061E00E94AF
:100E0000C51283E061E00E94C51289E061E00E94A2
:100E1000C51280E038DF86E090E060E0FBDD6AE04C
:100E200070E080E090E00E94DE1184ED94E061EEDD
:100E300072E00E94E41588E692E033DB6BDF892BD9
:100E400039F584E792E02DDB88E691E0D8DE80E09A
:100E50001ADF86E090E060E0DDDD8AE590E094DE78
:100E600080E090E091DEA3DD882331F484ED94E00E
:100E700060EC72E00E94E41580E090E0C0DE94DD5A
:100E8000882331F484ED94E060EA72E00E94E41576
:100E900080E0F9DE86E090E060E0ACDD51DB3ACF47
:100EA000EF92FF920F931F93CF93DF9380919D0357
:100EB000882351F084ED94E062E872E00E94FC1611
:100EC00084ED94E00E94F2148BDC182F80919E0335
:100ED000882349F0812F90E00E94DF1A892B19F0B6
:100EE00085E892E0DEDA812F90E00E94DF1A892BFC
:100EF00059F7812F38DB80919F03882321F01D351E
:100F000011F410929F0380919F03882309F0AEC1D2
:100F1000812F90E0FC01E554F040E633F10508F044
:100F200020C1EC5CFF4F0C94D31A81E080939F03A7
:100F30009DC1E5DA84ED94E00E94D01597C180E070
:100F400091E0AEDBB9DE92C180E091E0A9DB81E007
:100F500031DD8CC187E892E0A4DA84ED94E00E9450
:100F6000B1179B01AC01EB0180919D03882339F0FF
:100F700084ED94E0B9014AE050E00E94D8168091D7
:100F80009D03882399F084ED94E060E272E00E9472
:100F9000A81584ED94E0BE014AE050E00E94D81606
:100FA00084ED94E06DE072E00E94E415CE01ECDD8A
:100FB0006AE872E00FC080E091E072DBF8DC882321
:100FC00029F080E090E062E972E004C089E090E0FE
:100FD00062EA72E0FBDA4AC180E091E061DB80E026
:100FE00090E048DE80E090E066EB72E0F3CF81E0D5
:100FF000A5DD3CC182EC92E054DA84ED94E00E94DD
:10100000F21484ED94E00E94B117162FE72E809120
:101010009C03882331F084ED94E04AE050E00E9484
:10102000EA16812F9E2D9C012115310511F021E03A
:1010300030E0122FC9011EDE105D1093CF0280E058
:1010400090E064EC72E0C6CF80E091E029DB81E0C3
:1010500090E010DE80E090E062ED72E0BBCF8DEDBD
:1010600092E01FDABDDB90E00E94E71A182F82356C
:1010700039F0873429F0823419F0C0E0D0E008C09C
:1010800084ED94E00E94B117DC01CB01EC0113DA8E
:10109000173479F0183420F4123409F0E7C012C084
:1010A0001F34C9F0123509F0E1C0CE0161E022DE43
:1010B000DDC0CE01C93CD10514F088EC90E061E0C0
:1010C00099DCD4C0CE01C93CD10514F088EC90E085
:1010D00061E0A0DCCBC081E0D6DDC8C087E892E04B
:1010E000E0D984ED94E00E94B1177B018C01CB0123
:1010F000E2D9C70184DD65EE72E06CCF80E091E05B
:10110000CFDA52DC882329F080E090E06CEE72E0C8
:1011100061CF88E090E06BEF72E05CCF80E091E01F
:10112000BFDAF8DDA3C081E0F6DBA0C080E091E08B
:10113000B7DACDDB9BC080E091E0B2DA1EDA96C070
:1011400080E091E0ADDA80E090E06EE073E042CFC5
:10115000B1DA8CC075DB8AC080E091E0A1DA0ADBED
:1011600085C080E091E09CDA1F33A1F0183691F041
:1011700084ED94E066EF71E00E94A81584ED94E0A0
:10118000612F0E94C81584ED94E06AE173E00E942B
:10119000FE166CC084ED94E06BEE71E00E94E415E5
:1011A00084ED94E060EE71E00E94E41584ED94E03B
:1011B0006AEC71E00E94E41584ED94E069EA71E064
:1011C0000E94E41584ED94E06BE971E00E94E4155F
:1011D00084ED94E06CE871E00E94E41584ED94E005
:1011E0006AE771E00E94E41584ED94E064E671E042
:1011F0000E94E41584ED94E06EE371E00E94E41532
:1012000084ED94E062E271E00E94E41584ED94E0E4
:1012100060E171E00E94E41584ED94E065E071E026
:101220000E94A81584ED94E060919D034AE050E08F
:101230000E94951684ED94E06CEF70E00E94A81572
:1012400084ED94E060919E034AE050E00E94951680
:1012500084ED94E064EF70E00E94A81584ED94E0C2
:1012600060919C034AE050E00E94951661E070E0B6
:1012700080E090E00E94DE11CDB7DEB7E6E00C948E
:10128000C41A8CEA93E062E043E006C68CEA93E07D
:1012900061E043E001C680EA93E061E043E0FCC521
:1012A00080EA93E062E043E0F7C5F999FECF72BDB2
:1012B00061BDF89A80B50895F999FECF1FBA72BD45
:1012C00061BD40BD0FB6F894FA9AF99A0FBE089521
:1012D000FC01278530894189528983859485A585BC
:1012E000B685281B390B4A0B5B0BB901CA0108955F
:1012F000A0E0B0E0EEE7F9E00C94A01AEC01E8DF22
:101300005B016C012B893C894D895E89CA01B90159
:101310000E9478197B018C012B8D3C8D4D8D5E8D4B
:10132000CA01B9010E94C1179B01AC01C801B701F4
:101330000E9429180E9491189B01AC01A114B104CC
:10134000C104D104B9F462307105810591050CF036
:1013500085C01BA21CA21DA21EA280E090E0A0E0FE
:10136000B0E08B8B9C8BAD8BBE8B1BAA1CAA1DAADD
:101370001EAA0BC1EBA8FCA80DA91EA91A141B04D8
:101380001C041D0444F51E141F041006110674F4F9
:101390006A157B058C059D05B4F5CD5BDF4F888113
:1013A000C354D040882309F059C02DC0E114F10482
:1013B0000105110509F452C06A157B058C059D05D0
:1013C0000CF04CC0CD5BDF4F8881C354D0408130DE
:1013D00009F044C038C01E141F0410061106DCF4C6
:1013E00088279927DC018A199B09AC09BD092817B0
:1013F00039074A075B073CF4CD5BDF4F8881C35454
:10140000D040813059F588279927DC01821B930B46
:10141000A40BB50B1FC0E114F10401051105F1F097
:1014200088279927DC018A199B09AC09BD0928176F
:1014300039074A075B0794F4CD5BDF4F8881C354BB
:10144000D040882359F488279927DC018E199F09F9
:10145000A00BB10B8BAB9CABADABBEAB6BA87CA8B0
:101460008DA89EA86114710481049104A9F48FA928
:1014700098ADA9ADBAAD8BAF9CAFADAFBEAFFE011D
:10148000ED5BFF4F10821A141B041C041D040CF0AA
:1014900049C081E0808346C0ABACBCACCDACDEAC17
:1014A000C601B50120E030E040E050EC0E94781920
:1014B0007B018C01C401B3010E94C41820E030E01C
:1014C00040E850E40E94781920E030E040E85FE313
:1014D0000E94C1179B01AC01C801B7010E942918E5
:1014E0009B01AC01C601B5010E94C1177B018C01B3
:1014F0006BAF7CAF8DAF9EAFEF96A880B980CA80EE
:10150000DB80EF979501A6010E947419181624F448
:10151000D801C70157016D01C501D6018BAF9CAF42
:10152000ADAFBEAF8BA99CA9ADA9BEA90196A11D67
:10153000B11D8BAB9CABADABBEAB6BAD7CAD8DAD24
:101540009EAD0E9496186BA37CA38DA39EA360E022
:1015500074E284E799E42BAD3CAD4DAD5EAD0E94E5
:1015600029189B01AC016B8B7C8B8D8B9E8BCD5B8B
:10157000DF4F8881C354D040882339F4DA01C90190
:10158000B0588B8B9C8BAD8BBE8BCDB7DEB7EEE0AE
:101590000C94BC1AFC0187859089A189B2898417B3
:1015A0009507A607B70731F04787508B618B728B81
:1015B000CF019ECE0895CF92DF92EF92FF920F93CC
:1015C0001F93FC0185E793E0918380831282138649
:1015D0001486158616861786108A118A128A0F2E8F
:1015E000F0E0CF2EF0E0DF2EF0E0EF2EF0E0FF2E67
:1015F000F02DC38AD48AE58AF68A00E010E020E85C
:101600003FE3078B108F218F328F038F148F258F2D
:10161000368F078F10A321A332A313A214A215A201
:1016200016A281E090E094A783A78FEF86A717A268
:1016300010A611A612A6138214821582168270AB10
:1016400067A752AB41AB13AA14AA15AA16AAC7AA38
:10165000D0AEE1AEF2AEC3AED4AEE5AEF6AEFF961E
:1016600001931193219331931082E354F040178238
:101670001086118612861F910F91FF90EF90DF90D8
:10168000CF900895EF92FF920F931F93CF93DF9324
:10169000EC017A018B016F89788D898D9A8DA80173
:1016A00097010E9425188823D9F1EF8AF88E098FB7
:1016B0001A8FEF9660E074E284E799E4A80197013D
:1016C0000E942918688379838A839B83EF978BA96B
:1016D0009CA9ADA9BEA9181619061A061B0604F581
:1016E0002B893C894D895E89CA01B9010E9478190C
:1016F0007B018C012B8D3C8D4D8D5E8DCA01B90116
:101700000E94C1179B01AC01C801B7010E942918B2
:101710000E9491186BAB7CAB8DAB9EABCE01E8DD2C
:10172000CDB7DEB7E6E00C94C41ADC0112968C91BA
:101730001297833001F1843040F4813089F0ED91CB
:10174000FC911197823098F407C0863011F18830EF
:1017500049F1843079F516C00084F185E02D1FC071
:10176000ED91FC9111970284F385E02D18C004845B
:10177000F585E02D14C0ED91FC9111970684F78555
:10178000E02D0DC0ED91FC9111970088F189E02DBD
:1017900006C0ED91FC9111970288F389E02DCD01EF
:1017A00009950895ED91FC9111970488F589E02D34
:1017B000CD0109950895CF93DF93EC016B897C8966
:1017C0008D899E8920E030E040E050E00E9474194D
:1017D00018161CF4EFA5F8A902C0E9A9FAA9099501
:1017E000DF91CF910895DC0143705070607070708C
:1017F0004130510561057105F1F042305105610537
:10180000710534F4411551056105710561F00895C4
:101810004230510561057105B1F043305105610554
:10182000710501F518C0ED91FC9111970480F581C7
:10183000E02D62E00EC0ED91FC9111970480F581DE
:10184000E02D63E006C0ED91FC910480F581E02D70
:1018500061E009950895ED91FC910480F581E02DFA
:1018600060E009950895CF93DF93EC01CB01BA01B5
:1018700023E030E040E050E00E94811A61307105C1
:101880008105910591F06230710581059105A9F0FE
:101890006115710581059105C1F4E881F981048024
:1018A000F581E02DCE0164E00FC0E881F98104806C
:1018B000F581E02DCE0161E007C0E881F981048067
:1018C000F581E02DCE0162E00995DF91CF91089579
:1018D000DC014370507060707070413051056105DB
:1018E0007105F1F0423051056105710534F441157F
:1018F00051056105710561F008954230510561059A
:101900007105B1F0433051056105710501F518C04D
:10191000ED91FC9111970480F581E02D65E00EC0FA
:10192000ED91FC9111970480F581E02D66E006C0F1
:10193000ED91FC910480F581E02D6AE00995089510
:10194000ED91FC910480F581E02D69E00995089501
:10195000CF93DF93EC01CB01BA0126E030E040E009
:1019600050E00E94811A623071058105910589F16C
:10197000633071058105910564F461157105810578
:101980009105B9F0613071058105910509F041C0FB
:1019900018C0643071058105910559F164307105F5
:1019A00081059105F4F0653071058105910589F592
:1019B00028C0E881F9810480F581E02DCE0164E042
:1019C00027C0E881F9810480F581E02DCE0165E032
:1019D0001FC0E881F9810480F581E02DCE0161E02E
:1019E00017C0E881F9810480F581E02DCE0163E024
:1019F0000FC0E881F9810480F581E02DCE0162E01D
:101A000007C0E881F9810480F581E02DCE0166E010
:101A10000995DF91CF910895CF93DF93DC01477053
:101A2000507060707070CA014830510580F5865959
:101A30009F4FCD91DC911197FC010C94D31AEC814E
:101A4000FD81CD0161E022C0EC81FD81CD0165E029
:101A50001DC0EC81FD81CD0164E018C0EC81FD81E9
:101A6000CD0166E013C0EC81FD81CD0162E00EC0C6
:101A7000EC81FD81CD016AE009C0EC81FD81CD01E1
:101A800068E004C0EC81FD81CD0169E00995DF913A
:101A9000CF910895CF93DF93EC018A818823D9F009
:101AA0008B8161E072D58C8161E06FD58A81843051
:101AB00011F0883031F48D8161E067D58E8161E06D
:101AC00064D58EA58F3F39F061E05FD56DA581E0CB
:101AD00068278EA5C6D5DF91CF910895CF93DF9368
:101AE000EC018A81882369F0E881F9810480F5811D
:101AF000E02DCE0160E009958EA58F3F11F06DA518
:101B0000B0D5DF91CF910895A0E0B0E0EAE8FDE024
:101B10000C94A61AFC012281243029F0283019F0F7
:101B200092E0D92E02C084E0D82E8F01C0E0D0E030
:101B3000E62EFF24CC24C394F8012381C7010C2E88
:101B400002C0959587950A94E2F7678180FD6C2520
:101B5000822F87D521960F5F1F4FCD1568F3CDB724
:101B6000DEB7E8E00C94C21ACF93DF93EC01E88172
:101B7000F9810480F581E02DCD5BDF4F8881C3546E
:101B8000D040882311F460E001C062E0CE010995E5
:101B9000E881F9810480F581E02DCD5BDF4F8881FC
:101BA000C354D040882311F461E001C063E0CE014A
:101BB00009958BA59CA524D4E881F9810480F58141
:101BC000E02DCD5BDF4F8881C354D040882311F4D2
:101BD00060E001C062E0CE010995DF91CF910895E8
:101BE000A0E0B0E0E6EFFDE00C94A01AEC013A01B1
:101BF0004B01CB01BA0120E030E040E050E00E9410
:101C00002518882309F440C0AB8CBC8CCD8CDE8CAD
:101C1000C601B501A40193010E9425188823A1F1F2
:101C20006BA97CA98DA99EA90E94C4187B018C0177
:101C3000C601B501A40193010E9429189B01AC01C2
:101C4000C801B7010E9478190E9491186BAB7CAB58
:101C50008DAB9EAB60E070E080E090E4A401930166
:101C60000E9429180E94DF1920E034E244E759E479
:101C70000E9478196FAB78AF89AF9AAF6B8E7C8E6C
:101C80008D8E9E8ECE0134DBCDB7DEB7EEE00C94A8
:101C9000BC1AEF92FF920F931F93CF93DF93EC0147
:101CA0008BA19CA1ADA1BEA10097A105B10509F42E
:101CB0004DC05ED37B018C012FA138A549A55AA543
:101CC0008BA19CA1ADA1BEA1820F931FA41FB51F24
:101CD00082179307A407B50730F0E816F9060A073C
:101CE0001B0758F405C0E816F9060A071B0770F130
:101CF000E216F3060407150748F5CD5BDF4F888130
:101D0000C354D0402B853C854D855E85813029F4B8
:101D10002F5F3F4F4F4F5F4F04C021503040404036
:101D200050402B873C874D875E87E881F9814B8542
:101D30005C856D857E850680F781E02DCE01099555
:101D4000EFA2F8A609A71AA781E001C080E0CDB7ED
:101D5000DEB7E6E00C94C41ACF93DF93EC0199DF71
:101D6000882311F0CE01C4DA6B897C898D899E8924
:101D700020E030E040E050E00E942518882341F444
:101D8000CE01A6DA20E0611571058105910509F003
:101D900021E0822FDF91CF910895CF93DF93EC0163
:101DA000CE01DADF8823E1F7DF91CF9108950F9319
:101DB0001F938C01EFDBC801F0DF1F910F91089595
:101DC000FC01108208950F931F938C0180E090E036
:101DD000F8012081318140E050E00E94401A9B01CF
:101DE000AC0160E077E883E993E00E945F1AF801B4
:101DF0002383348345835683178210861186128687
:101E00001F910F91089581E494E0DACFE0EBF0E0C8
:101E100090819368908387708093B1001092B30093
:101E20008BE061E0B2C3E0EBF0E0908193629083DD
:101E300087708093B1001092B40083E061E0A5C385
:101E4000CF93DF938CE060E00CD488E060E009D4AD
:101E5000C7E0D0E084E060E004D48091420490E0E8
:101E60000C2E02C0959587950A94E2F780FF03C077
:101E700088E061E002C088E060E0F3D384E061E0E4
:101E8000F0D321978FEFCF3FD80721F78CE061E0A7
:101E9000E8D3DF91CF9108951F93CF93DF93EC01A7
:101EA0008A81813029F414E072E058E030E108C002
:101EB000823011F080E0D0C010E271E050E830E4F0
:101EC000413041F49B85892F86958695869580FFC4
:101ED00010C009C04230A1F49B85892F8695869554
:101EE000869580FD06C0613011F4985F05C098505A
:101EF00003C0613019F4905F9B8752C09051FCCFB2
:101F0000433041F48B85613011F4885F01C0885003
:101F10008B8746C0443009F043C08B85613011F493
:101F20008F5F01C081508B87AB85AF73AB87A031CA
:101F300048F4B0E0ECE4F3E0EA1BFB0B2081A45C86
:101F4000BC4F19C08A2F8051803148F48A2F90E00D
:101F5000FC01E45DFC4F2081ECE5F3E01DC08A2F1D
:101F60008052803150F4B0E0ECE6F3E0EA1BFB0B6A
:101F70002081A45EBC4F8C9115C08A2F8053803184
:101F800018F080E020E00EC08A2F90E0FC01E45FB2
:101F9000FC4F2081ECE7F3E0E81BF90B808102C0E5
:101FA0008FEF2FEFEB85EF73EB879A81913029F458
:101FB0002093B3008093B40004C0923011F427BD85
:101FC00088BD272F212B932F952B922B90958091B5
:101FD0004204982390934204443019F5E03118F4F8
:101FE000922B909342048E2F8051803130F4752BC8
:101FF00080914204872B809342048E2F805280313F
:1020000030F4532B80914204852B80934204E0539B
:10201000E031F0F4312B80914204832B8093420411
:1020200017C0E695E695E695F0E0EE58FF4F0C9464
:10203000D31A912B0BC0922B09C0972B07C0572B9B
:10204000952B04C0352B01C0312B932B9093420468
:1020500081E494E0F5DE8B85DF91CF911F910895A7
:10206000A0E0B0E0E6E3F0E10C949F1AEC016B0114
:10207000542EA22EEB80FC800D811E8123E0A2163F
:10208000D1F416950795F794E794C801B70128EEA7
:1020900033E040E050E00E945F1A39014A01C80174
:1020A000B70128EE33E040E050E00E945F1A7B0168
:1020B0008C01BB243DC084E0A81639F794E0169546
:1020C0000795F794E7949A95D1F784E0CC0CDD1C42
:1020D0008A95E1F7DACFCE01652D4A2DDDDEB82EE7
:1020E000B301C4016BD18F819885A985BA858E0D06
:1020F0009F1DA01FB11F8F839887A987BA87885E0D
:102100009340A040B04088F061E070E080E090E053
:1021100055D18F819885A985BA85885E9340A04066
:10212000B0408F839887A987BA870894C108D108DF
:10213000C114D10481F684E0A81681F52AC0CE012D
:10214000652D44E0A9DEB82EB301C40137D18F81DB
:102150009885A985BA858E0D9F1DA01FB11F8F83FD
:102160009887A987BA87885E9340A040B04088F0DE
:1021700061E070E080E090E021D18F819885A985B1
:10218000BA85885E9340A040B0408F839887A98726
:10219000BA87BB2019F080E1B81689F6CDB7DEB753
:1021A000EFE00C94BB1AFC018281813041F48091F4
:1021B0004204817E8093420481E494E041CE8230E7
:1021C00041F4809142048E718093420481E494E052
:1021D00037CE08950F931F938C018CE061E0D5D129
:1021E00087E061E0D2D188E061E0CFD184E061E0B6
:1021F000CCD110924204C80123DE87E060E031D2E6
:102200001F910F910895DF92EF92FF920F931F930A
:102210008C017B01D42E81E494E0DCDFF801F182B3
:10222000E082D2821386F1E0DF16F1F4809142045D
:10223000817E8093420481E494E002DE8BE061E0E1
:10224000A4D183E061E0A1D18BE061E00AD283E018
:1022500061E007D281E0DADD81E0E5DD8FEF809398
:10226000B3008093B40028C082E0D81629F580918D
:1022700042048E718093420481E494E0E1DD85E0C4
:1022800061E083D186E061E080D185E061E0E9D161
:1022900086E061E0E6D184B5836884BD17BC86E042
:1022A00061E073D184B5836284BD18BC85E061E0D0
:1022B0006CD18FEF87BD88BD1F910F91FF90EF907C
:1022C000DF9008951F920F920FB60F9211242F9353
:1022D0003F938F939F93AF93BF93809147049091C7
:1022E0004804A0914904B0914A0430914B040196EE
:1022F000A11DB11D232F2D5F2D3720F02D570196E5
:10230000A11DB11D20934B04809347049093480472
:10231000A0934904B0934A048091430490914404EB
:10232000A0914504B09146040196A11DB11D809372
:10233000430490934404A0934504B0934604BF9192
:10234000AF919F918F913F912F910F900FBE0F9062
:102350001F9018958FB7F894209147043091480446
:102360004091490450914A048FBFB901CA010895B0
:102370009FB7F89420914304309144044091450460
:102380005091460486B5A89B06C08F3F21F02F5F71
:102390003F4F4F4F5F4F9FBF542F432F322F222766
:1023A000280F311D411D511D82E0220F331F441F94
:1023B000551F8A95D1F7B901CA010895EF92FF928E
:1023C0000F931F93CF93DF937B018C01D1DFEB0140
:1023D0000DC0CEDF6C1B7D0B685E7340D0F308949C
:1023E000E108F10801091109C851DC4FE114F104B9
:1023F0000105110571F7CDB7DEB7E6E00C94C41AFC
:10240000019739F0880F991F880F991F029701973C
:10241000F1F70895789484B5826084BD84B58160B5
:1024200084BD85B5826085BD85B5816085BDEEE6DC
:10243000F0E0808181608083E1E8F0E010828081BB
:1024400082608083808181608083E0E8F0E0808129
:1024500081608083E1EBF0E0808184608083E0EB49
:10246000F0E0808181608083EAE7F0E08081846031
:10247000808380818260808380818160808380818D
:10248000806880831092C1000895982F8E3008F0E4
:102490009E50977080914D038295880F880F807CA5
:1024A000892B80937C0080917A00806480937A00ED
:1024B00080917A0086FDFCCF2091780040917900D0
:1024C000942F80E030E0282B392BC90108951F9309
:1024D000CF93DF93182FEB0161E057D0209709F4D9
:1024E0004AC0CF3FD10509F449C0E12FF0E0E854DC
:1024F000FC4F84918330C1F0843028F4813051F056
:102500008230B1F50CC0863019F1873049F1843042
:1025100079F514C084B5806884BDC7BD32C084B568
:10252000806284BDC8BD2DC080918000806880938A
:102530008000D0938900C093880023C080918000E0
:10254000806280938000D0938B00C0938A0019C072
:102550008091B00080688093B000C093B30011C038
:102560008091B00080628093B000C093B40009C035
:10257000C038D1051CF4812F60E002C0812F61E0DA
:1025800070D0DF91CF911F910895CF93DF93482FA3
:1025900050E0CA018C559C4FFC01349140575C4F70
:1025A000FA018491882369F190E0880F991FFC015A
:1025B000EE58FC4FA591B491FC01E458FC4FC59135
:1025C000D491662351F42FB7F8948C91932F909562
:1025D00089238C93888189230BC0623061F42FB7E3
:1025E000F8948C91932F909589238C938881832BD9
:1025F00088832FBF06C09FB7F8948C91832B8C9350
:102600009FBFDF91CF910895833071F0843028F41B
:102610008130A1F0823021F514C08630B1F08730CE
:10262000D1F08430E9F404C0809180008F7703C03A
:10263000809180008F7D80938000089584B58F778E
:1026400002C084B58F7D84BD08958091B0008F77DE
:102650008093B00008958091B0008F7D8093B0008A
:102660000895FF920F931F93F62E482F50E0CA0152
:1026700088549C4FFC012491CA018C559C4FFC014D
:10268000149140575C4FFA0104910023C1F02223BA
:1026900011F0822FB9DFE02FF0E0EE0FFF1FE458BA
:1026A000FC4FA591B4919FB7F894FF2021F48C9131
:1026B0001095812302C08C91812B8C939FBF1F9119
:1026C0000F91FF90089508951F920F920FB60F92E9
:1026D00011242F933F934F938F939F93EF93FF93E7
:1026E0008091C00082FD1DC04091C60020918C04E5
:1026F00030918D042F5F3F4F2F73307080918E0487
:1027000090918F042817390771F0E0918C04F091B3
:102710008D04E45BFB4F408330938D0420938C0445
:1027200002C08091C600FF91EF919F918F914F91D0
:102730003F912F910F900FBE0F901F9018951F92F1
:102740000F920FB60F9211242F933F938F939F9365
:10275000EF93FF932091D0043091D1048091D20463
:102760009091D3042817390731F48091C1008F7DEF
:102770008093C10014C0E091D204F091D304E057DB
:10278000FB4F20818091D2049091D30401968F73E6
:1027900090709093D3048093D2042093C600FF914D
:1027A000EF919F918F913F912F910F900FBE0F90BE
:1027B0001F901895A0E0B0E0EFEDF3E1C3C6FC0177
:1027C0001382128288EE93E0A0E0B0E084839583C8
:1027D000A683B7838FE893E09183808375876487AE
:1027E00057874687318B208B138B028BF58AE48ABF
:1027F000D78AC68AB18EA08E938E828E8F85848F63
:102800008889858F8989868F8A89878F8B8980A31C
:102810002096ECE0B3C6AF92BF92DF92EF92FF92A8
:102820000F931F93CF93DF93EC017A018B01DD248B
:10283000403081EE580780E0680780E0780711F0AB
:10284000DD24D39491E0A92EB12CEC89FD89DD2003
:1028500069F0C50108A002C0880F991F0A94E2F729
:10286000808360E079E08DE390E005C0108260E84D
:1028700074E88EE190E0A801970121D62150304004
:1028800040405040569547953795279580E1203038
:10289000380720F0DD2011F0DD24D7CFE889F98951
:1028A0003083EA89FB89208319A2EE89FF89408160
:1028B00021E030E0C9010C8C02C0880F991F0A94F6
:1028C000E2F7482B4083EE89FF894081C9010D8CD6
:1028D00002C0880F991F0A94E2F7482B4083EE89C3
:1028E000FF894081C9010E8C02C0880F991F0A948C
:1028F000E2F7482B4083EE89FF8980810F8C02C06C
:10290000220F331F0A94E2F7209528232083DF91BA
:10291000CF911F910F91FF90EF90DF90BF90AF90FC
:102920000895DC011C96ED91FC911D97E05CFF4F32
:102930002191319180819181281B390B2F73307047
:10294000C901089584ED94E0ECDF892B09F0BBCE3A
:102950000895DC011C96ED91FC911D97E05CFF4F02
:1029600020813181E054F040DF01AE5BBF4F8D919B
:102970009C9111972817390719F42FEF3FEF07C0E3
:102980008D919C91E80FF91F8081282F30E0C901BB
:102990000895DC011C96ED91FC911D97E05CFF4FC2
:1029A00020813181E054F040DF01AE5BBF4F8D915B
:1029B0009C9111972817390719F42FEF3FEF10C09A
:1029C0008D919C911197E80FF91F20818D919C9119
:1029D000119701968F73907011969C938E9330E0AF
:1029E000C9010895DC0191968C919197882339F063
:1029F0005496ED91FC915597808186FFF9CF919681
:102A00001C920895CF93DF93EC01EE85FF85E05C87
:102A1000FF4F20813181E054F0402F5F3F4F2F73F3
:102A20003070DF01AE5BBF4F8D919C9111972817DD
:102A30003907D1F3E05CFF4F80819181E054F04091
:102A4000E80FF91F6083EE85FF85E05CFF4F31835F
:102A50002083EE89FF89208181E090E00F8C02C005
:102A6000880F991F0A94E2F7282B208381E089A31D
:102A7000EC89FD8980818064808381E090E0DF9132
:102A8000CF9108958F929F92AF92BF92CF92DF9293
:102A9000EF92FF920F931F9300D000D00F92EDB7EB
:102AA000FEB7319684E0ADB7BEB711968C9383E044
:102AB000818387E0828385E0838381E0848384ED62
:102AC00094E06CE474E040E954E025EC30E004EC80
:102AD00010E0B0ECEB2EF12CA1ECCA2ED12CF2ECD4
:102AE000AF2EB12CE6EC8E2E912C64DE0F900F9061
:102AF0000F900F900F901F910F91FF90EF90DF902C
:102B0000CF90BF90AF909F908F900895A0E0B0E0DD
:102B1000EBE8F5E11BC57C016B018A01C0E0D0E068
:102B20000FC0D6016D916D01D701ED91FC9101901F
:102B3000F081E02DC7010995C80FD91F0150104041
:102B40000115110571F7CE01CDB7DEB7E8E01AC562
:102B5000EF92FF920F931F93CF93DF937C018B0132
:102B6000C0E0D0E0F8010F5F1F4F6491662359F079
:102B7000D701ED91FC910190F081E02DC7010995FD
:102B8000C80FD91FEFCFCE01CDB7DEB7E6E0FCC44A
:102B9000DC01ED91FC910190F081E02D0995089503
:102BA000EF92FF920F931F938C016DE0F1DF7C0198
:102BB000C8016AE0EDDF9C012E0D3F1DC9011F9188
:102BC0000F91FF90EF900895EF92FF920F931F9354
:102BD0007C01BEDF8C01C701E3DF9C01200F311FA8
:102BE000C9011F910F91FF90EF9008950F931F93CC
:102BF000CF93DF938C01EB016115710519F420E08F
:102C000030E00EC0CB010E941202AC01D801ED9160
:102C1000FC910280F381E02DC801BE0109959C0161
:102C2000C901DF91CF911F910F9108954F925F924B
:102C30007F928F929F92AF92BF92CF92DF92EF924C
:102C4000FF920F931F93DF93CF93CDB7DEB7A1977A
:102C50000FB6F894DEBF0FBECDBF2C01742ECB0192
:102C6000223008F42AE019A231E2C32ED12CCC0E76
:102C7000DD1E822E9924AA24BB24672D752FA50161
:102C800094011DD479018A01C801B701A5019401FD
:102C9000F7D3472D461B0894C108D1084A3010F4D9
:102CA000405D01C0495CF6014083E114F104010577
:102CB000110521F07E2C5F2DC801DFCFC201B601C6
:102CC00095DFA1960FB6F894DEBF0FBECDBFCF91B2
:102CD000DF911F910F91FF90EF90DF90CF90BF9009
:102CE000AF909F908F907F905F904F900895DC0100
:102CF0002115310541F4ED91FC910190F081E02D19
:102D0000642F0995089592CFEF92FF920F931F932E
:102D10009A01E62EFF2400E010E0B801A701E7DFEA
:102D20001F910F91FF90EF900895EF92FF920F93F4
:102D30001F937C01E9DF8C01C70132DF9C01200F6A
:102D4000311FC9011F910F91FF90EF900895A0E0EE
:102D5000B0E0ECEAF6E1FAC3EC016A017B0121156F
:102D6000310541F4E881F9810190F081E02D642F73
:102D7000099518C02A303105A1F477FF11C06DE222
:102D800007DF8C0144275527BA014C195D096E09EC
:102D90007F09CE012AE04ADF9C01200F311F03C0CA
:102DA0002AE044DF9C01C901CDB7DEB7E8E0EAC301
:102DB000EF92FF920F931F937B019A010027F7FC7C
:102DC0000095102FB801A701C2DF1F910F91FF904E
:102DD000EF900895EF92FF920F931F937C01E8DF2D
:102DE0008C01C701DDDE9C01200F311FC9011F913D
:102DF0000F91FF90EF900895F9CE0895EF92FF9212
:102E00000F931F937C01F8DF8C01C701C9DE9C0181
:102E1000200F311FC9011F910F91FF90EF9008956E
:102E2000CF93DF93EC0196DA688779878A879B874F
:102E3000E881F9810084F185E02DCE0109959C019E
:102E400097FF14C087DA288539854A855B85621B20
:102E5000730B840B950B2C813D814E815F81621732
:102E600073078407950720F32FEF3FEFC901DF9128
:102E7000CF910895CF93DF93EC01CE01D1DF9C0178
:102E800097FD0EC08D32910559F0C0970A9740F01A
:102E9000E881F9810680F781E02DCE010995EDCF1B
:102EA000C901DF91CF910895A0E0B0E0E9E5F7E135
:102EB0004AC36C01B62EDEDFEC0197FF04C0EE249E
:102EC000FF24870148C09924EE24FF248701AB2CFE
:102ED000BB24CA15DB0521F1CD32D10519F49924A3
:102EE00093941EC0CE01C0970A97D0F4C801B701D1
:102EF0002AE030E040E050E0C3D27B018C01CE01FB
:102F0000AA2797FDA095BA2FE80EF91E0A1F1B1FCE
:102F100080ED9FEFAFEFBFEFE80EF91E0A1F1B1FFA
:102F2000D601ED91FC910680F781E02DC60109954F
:102F3000C60176DFEC01C0970A9758F2CA15DB0587
:102F400041F2992041F010950095F094E094E11C35
:102F5000F11C011D111DB701C801CDB7DEB7EBE0B3
:102F60000EC361E0A1CFCF93DF9354DA0E94AD0688
:102F7000C2EAD4E10E9450072097E1F3E3DCFACFE4
:102F80005058BB27AA270ED075C166D130F06BD13F
:102F900020F031F49F3F11F41EF45BC10EF4E09574
:102FA000E7FB51C1E92F77D180F3BA1762077307A6
:102FB0008407950718F071F49EF58FC10EF4E09523
:102FC0000B2EBA2FA02D0B01B90190010C01CA01E3
:102FD000A0011124FF27591B99F0593F50F4503E8E
:102FE00068F11A16F040A22F232F342F4427585F80
:102FF000F3CF469537952795A795F0405395C9F798
:103000007EF41F16BA0B620B730B840BBAF091504F
:10301000A1F0FF0FBB1F661F771F881FC2F70EC0EE
:10302000BA0F621F731F841F48F4879577956795C1
:10303000B795F7959E3F08F0B3CF9395880F08F0AA
:103040009927EE0F979587950895D9D008F481E0D8
:1030500008950CD00FC107D140F0FED030F021F41C
:103060005F3F19F0F0C0511139C1F3C014D198F38A
:103070009923C9F35523B1F3951B550BBB27AA27F9
:1030800062177307840738F09F5F5F4F220F331F6B
:10309000441FAA1FA9F333D00E2E3AF0E0E830D037
:1030A00091505040E695001CCAF729D0FE2F27D03A
:1030B000660F771F881FBB1F261737074807AB0708
:1030C000B0E809F0BB0B802DBF01FF2793585F4F7D
:1030D0002AF09E3F510568F0B6C000C15F3FECF397
:1030E000983EDCF3869577956795B795F7959F5F42
:1030F000C9F7880F911D9695879597F90895E1E096
:10310000660F771F881FBB1F621773078407BA07F4
:1031100020F0621B730B840BBA0BEE1F88F7E0954F
:10312000089504D06894B111D9C00895BCD088F036
:103130009F5790F0B92F9927B751A0F0D1F0660FA3
:10314000771F881F991F1AF0BA95C9F712C0B130BE
:1031500081F0C3D0B1E00895C0C0672F782F8827D1
:10316000B85F39F0B93FCCF3869577956795B395FD
:10317000D9F73EF490958095709561957F4F8F4F6C
:103180009F4F0895E89409C097FB3EF49095809571
:10319000709561957F4F8F4F9F4F9923A9F0F92F1D
:1031A00096E9BB279395F695879577956795B7959B
:1031B000F111F8CFFAF4BB0F11F460FF1BC06F5F81
:1031C0007F4F8F4F9F4F16C0882311F096E911C093
:1031D000772321F09EE8872F762F05C0662371F0B4
:1031E00096E8862F70E060E02AF09A95660F771FC8
:1031F000881FDAF7880F9695879597F90895990FA4
:103200000008550FAA0BE0E8FEEF16161706E807B0
:10321000F907C0F012161306E407F50798F0621BD1
:10322000730B840B950B39F40A2661F0232B242BA6
:10323000252B21F408950A2609F4A140A6958FEFC5
:10324000811D811D089597F99F6780E870E060E017
:1032500008959FEF80EC089500240A94161617062F
:1032600018060906089500240A9412161306140677
:1032700005060895092E0394000C11F4882352F0DA
:10328000BB0F40F4BF2B11F460FF04C06F5F7F4F92
:103290008F4F9F4F089557FD9058440F551F59F079
:1032A0005F3F71F04795880F97FB991F61F09F3F33
:1032B00079F087950895121613061406551FF2CF5C
:1032C0004695F1DF08C0161617061806991FF1CFAC
:1032D00086957105610508940895E894BB276627D3
:1032E0007727CB0197F908958ADF08F48FEF0895C7
:1032F0000BD0C0CFB1DF28F0B6DF18F0952309F06E
:10330000A2CFA7CF1124EACFC6DFA0F3959FD1F3B8
:10331000950F50E0551F629FF001729FBB27F00D83
:10332000B11D639FAA27F00DB11DAA1F649F6627D8
:10333000B00DA11D661F829F2227B00DA11D621F27
:10334000739FB00DA11D621F839FA00D611D221FE1
:10335000749F3327A00D611D231F849F600D211DC5
:10336000822F762F6A2F11249F5750408AF0E1F068
:1033700088234AF0EE0FFF1FBB1F661F771F881FB1
:1033800091505040A9F79E3F510570F05CCFA6CFF9
:103390005F3FECF3983EDCF3869577956795B7959C
:1033A000F795E7959F5FC1F7FE2B880F911D9695C6
:1033B000879597F9089511F40EF44BCF4AC073DF47
:1033C000D0F39923D9F3CEF39F57550B87FF51D0F4
:1033D00056959795B0E020F4660F771F881FBB1FA6
:1033E0001F930F9300249001A0018001F001A0E839
:1033F0000E0F1F1F0A1E511D601B710B8009B50B9C
:1034000048F4600F711F801DB51F0E1B1F0B0A0AA9
:10341000510907C02E0F3F1F4A1F0E0F1F1F0A1E04
:10342000511D660F771F881FBB1FA695F795E7955F
:10343000F8F60617170708065B07211D311D411D09
:103440000F911F91B901842F9158880F96958795F8
:1034500008959F3F49F0915028F486957795679598
:10346000B7959F5F80389F4F880F9695879597F9FE
:10347000089591505040660F771F881FD2F7089526
:10348000629FD001739FF001829FE00DF11D649F48
:10349000E00DF11D929FF00D839FF00D749FF00DD4
:1034A000659FF00D9927729FB00DE11DF91F639F75
:1034B000B00DE11DF91FBD01CF0111240895A1E256
:1034C0001A2EAA1BBB1BFD010DC0AA1FBB1FEE1F9E
:1034D000FF1FA217B307E407F50720F0A21BB30BE9
:1034E000E40BF50B661F771F881F991F1A9469F765
:1034F00060957095809590959B01AC01BD01CF01C1
:10350000089597FB092E05260ED057FD04D0D7DF6E
:103510000AD0001C38F450954095309521953F4FC6
:103520004F4F5F4F0895F6F7909580957095619590
:103530007F4F8F4F9F4F08952F923F924F925F92F0
:103540006F927F928F929F92AF92BF92CF92DF92B3
:10355000EF92FF920F931F93CF93DF93CDB7DEB718
:10356000CA1BDB0B0FB6F894DEBF0FBECDBF0994AC
:103570002A88398848885F846E847D848C849B8403
:10358000AA84B984C884DF80EE80FD800C811B8111
:10359000AA81B981CE0FD11D0FB6F894DEBF0FBE40
:1035A000CDBFED010895EE0FFF1F0590F491E02DC2
:1035B0000994911114C080538A50E0F70895911135
:1035C0000EC0803219F089508550D0F708959111BE
:1035D000089581568A5108F4805285580895992794
:0835E00088270895F894FFCF3D
:1035E800003A2000204F4B00204572726F72003065
:1035F8003A2047657444617461204F4B3A20006C4F
:10360800696E652800293A00577269746520454536
:1036180050524F4D000A27003C3D00270056657266
:10362800626F7365206F6E2E005365742056657245
:10363800626F736500706F776572206C6576656C74
:10364800203D2000537461747573313276007365C0
:103658006E7365280029203D2000537461747573CA
:10366800446F6F7200537461747573446F6F722086
:10367800447261776572204F70656E005365744CB3
:10368800454420477265656E005365744C45442077
:10369800426C75650073746570436F756E74203D78
:1036A8002000536F756E644669744D6963726F5874
:1036B8002E696E6F0066616C736500486F6D6500FA
:1036C800656C65766174696E6720746F200020648C
:1036D800656772656573202873746570200029001A
:1036E800726F746174696E6720746F20005365741B
:1036F8004C4544204F666600436865636B526561BC
:10370800647920313276206661696C757265004390
:103718006865636B526561647920446F6F72204FEE
:1037280070656E206661696C7572650043686563D3
:103738006B5265616479005365744C454420526549
:103748006400526573657400526573657474696EBC
:10375800672E200043616C6962726174696E672E1E
:1037680020003E20002E003F2000456C65766174E5
:103778006500456C65766174696F6E20486F6D658C
:103788006400456C65766174696F6E206E6F742095
:10379800486F6D656400496D6167696E67204F66A3
:1037A80066003F00536574496D6167696E67285804
:1037B8002900496D6167696E67204F6E005B52474B
:1037C800424F5D3F00526F7461746500526F7461BF
:1037D80074696F6E20486F6D656400526F74617410
:1037E800696F6E206E6F7420486F6D6564004D615F
:1037F800796265206C6174657200272E20205479E7
:103808007065203F20666F72206D6F726520696E4B
:10381800666F2E00322E3034640034030019324AA9
:1038280062788DA2B4C5D4E1ECF4FAFDFF016375AA
:103838006265486F6D65456C65766174696F6E0089
:1038480063756265486F6D65526F746174696F6EF8
:1038580000000000006E0D4A0D840D950BDB0BB4C3
:103868000DF30B330C680CA80C0C0D0000000002C3
:0C3878001586159114C914A914F214004F
:00000001FF
