:100000004AC1000070C100006EC100006CC1000058
:100010006AC1000068C1000066C1000064C1000040
:1000200062C1000060C100005EC100005CC1000050
:100030005AC1000058C1000056C1000054C1000060
:100040000C94B10F50C100000C94B3110C94EE113C
:100050004AC1000048C1000046C1000044C1000080
:1000600042C1000040C100006E0B730B780B7D0B8A
:10007000820B870B8C0B910B680E6A0E6C0E6E0E4A
:100080006F0E710E740E730E6563686F203D200055
:100090006465627567203D2000766572626F7365E6
:1000A000203D20007A202D2D204E5620726574723E
:1000B000696576650A005A3C737472696E672076CA
:1000C000616C75653E202D2D204E562073746F7225
:1000D0006500583C7661723E3D3C76616C75653ECC
:1000E000202D2D20736574207661726961626C65C4
:1000F0000046202D2D206C616D7073206F466600C8
:100100004E202D2D206C616D7073206F4E00563087
:10011000202D2D20736574206E6F6E2D56657262D2
:100120006F7365005631202D2D2073657420566540
:1001300072626F736500456E6E6E202D2D20654CCA
:10014000657661746520746F206E6E6E2028746F02
:1001500070203D20302900526E6E6E202D2D2052D1
:100160006F7461746520746F206E6E6E0053202D65
:100170002D20726553657400436F6D6D616E6473FD
:100180003A0A00756E7265636F676E697A656420FE
:10019000636F6D6D616E6420270020646567726512
:1001A00065732066726F6D20746F702E00456C65EC
:1001B0007661746520746F2000566572626F736596
:1001C000206F6E2E002075702E0020737461727483
:1001D000696E67003539353A3539374D0066726FCB
:1001E0006D2073766E200031333A30333A3134006B
:1001F00020004D61792020352032303134002062DA
:1002000075696C7420000A0A0A5375676172437538
:1002100062652076003A76657273696F6E20003AE7
:1002200076657273696F6E20006672656520524153
:100230004D203D200000000000240027002A00007F
:10024000000000250028002B0000000000230026ED
:10025000002900040404040404040402020202024B
:10026000020303030303030102040810204080017A
:1002700002040810200102040810200000000700FA
:10028000020100000304060000000000000000005E
:10029000A001520D911311241FBECFEFD8E0DEBF95
:1002A000CDBF12E0A0E0B1E0ECEFF3E302C00590B7
:1002B0000D92AA39B107D9F713E0AAE9B2E001C05B
:1002C0001D92A83FB107E1F712E0C6E9D2E004C0F1
:1002D0002297FE010E94E719C039D107C9F70E9491
:1002E000B6160C94FC198CCEFC018191861721F076
:1002F0008823D9F7992708953197CF010895FC01F4
:1003000001900020E9F7809590958E0F9F1F08952A
:10031000A2E0B0E0EEE8F1E00C94BE198091F403A5
:100320009091F503009711F488EF93E09E012F5F01
:100330003F4F281B390BC9012296E2E00C94DA19D1
:100340008EE992E060E370E041E00E94520F8AEA99
:1003500092E068EC70E042E00E94520F86EB92E07F
:100360006AEC73E040ED53E075D78AEF92E06EEBF4
:1003700073E044EC53E06EC7BC0180919B0288237C
:1003800021F082ED93E00C944B15089582ED93E0FB
:100390000E94E012892BD1F3089504C082ED93E00E
:1003A0000E94181382ED93E00E94E012892BB1F7AE
:1003B0000895BC0180919B02882331F082ED93E087
:1003C0004AE050E00C9427150895682F80919A0216
:1003D000882321F082ED93E00C9417140895EF9296
:1003E000FF920F931F93CF93DF937C01EB0100E00B
:1003F00082ED93E00E94E012892BD1F382ED93E02D
:100400000E941813182FE1DFF701E00FF11D108390
:100410001A3059F01D3049F0202F2F5F822F90E0C5
:100420008C179D0714F4022FE3CF1082802F90E0E9
:10043000CDB7DEB7E6E00C94D619BC0180919B02E3
:10044000882321F082ED93E00C9401160895AFEF1C
:10045000B0E0EDE2F2E00C94BA1900E010E07E01A9
:100460000894E11CF11C8EE393E0B8016DD5F7010F
:10047000E00FF11F8083882329F00F5F1F4F0F3F8C
:10048000110589F782ED93E060E071E00E944B1561
:1004900082ED93E0BE016F5F7F4F0E944B1582EDAE
:1004A00093E060E071E00E94011680E090E0C150AE
:1004B000DF4FE6E00C94D619AFEFB0E0E2E6F2E0F1
:1004C0000C94BA197E010894E11CF11CC7016FEF6E
:1004D00070E085DFC7016DE370E006DFFC0111927B
:1004E0008F0182E091E048DFC70146DF85E091E0BF
:1004F00043DFC80141DF80E091E09FDFC150DF4F63
:10050000E6E00C94D6198EE060E070E00E94B61030
:1005100080E090E008958EE06FEF70E00E94B610EA
:1005200080E090E0089582E060E00E94801183E026
:1005300060E070E00E94B61089E060E070E00C942A
:10054000B6101F93182FEFDF82E0612F0E948011F9
:100550001F9108950F931F938C01E5DF83E0B8018D
:100560000E94B6101F910F9108950F931F93CF9380
:10057000DF93182F092F0E949410EC0180919C02A8
:10058000882371F088E091E0F7DE812F902F11DF52
:100590008FE091E0F1DECE010CDF84E191E04DDFF0
:1005A00080E0C558D3400CF081E0DF91CF911F91DE
:1005B0000F9108951F93CF93DF93C0E0D0E08FE0B9
:1005C00090E0D3DF182F8823A1F48EE992E061E058
:1005D00070E042E021E00E947F0E219685E191E0EB
:1005E000CBDECE01E6DE84E191E027DFC83CD10519
:1005F00031F78EE992E00E94220F112319F020E0DA
:1006000030E002C023E630E0C13CD10514F025E023
:1006100030E0C901DF91CF911F9108951F93CF93CF
:10062000DF93C0E0D0E080E190E09FDF182F8823C7
:10063000B1F48AEA92E061E070E041E023E00E94D8
:100640007F0E219680919C028823F1F085E191E054
:1006500093DECE01AEDE84E191E0EFDE15C08AEAE2
:1006600092E00E94220F112319F020E030E002C036
:1006700023E630E0C93CD10514F023E030E0C901A5
:10068000DF91CF911F910895C83CD10561F6E7CF66
:10069000EF92FF920F931F937C0182E291E06CDE58
:1006A000C70187DE80E391E067DE0027F7FC009555
:1006B000102FC801B7010E94C71727E435E545E3AD
:1006C00050E40E948A1820E030E040E05FE30E949E
:1006D000C4160E949417DC01CB017C016ADE80E421
:1006E00091E0ABDE0027F7FC0095102F86EB92E03F
:1006F000B801A7010E94260D80E090E01F910F91A4
:10070000FF90EF900895EF92FF920F931F937C015B
:1007100082E491E031DEC7014CDE80E391E02CDE23
:100720000027F7FC0095102FC801B7010E94C717DA
:100730002AED38E34EE85FE30E948A1820E030E0BB
:1007400040E05FE30E94C4160E949417DC01CB01D5
:100750007C012FDE80E491E070DE0027F7FC00953D
:10076000102F8AEF92E0B801A7010E94260D80E0C9
:1007700090E01F910F91FF90EF9008958AEA92E028
:1007800062E043E00C949B0D8AEA92E061E043E072
:100790000C949B0D8EE992E061E043E00C949B0D7C
:1007A0008EE992E062E043E00C949B0D0F931F935F
:1007B00002ED13E0C80169E272E00E94F713A8DDC0
:1007C000BC01C8014AE050E00E9439151F910F9109
:1007D0000895AFEFB0E0EFEEF3E00C94B8198E019E
:1007E0000F5F1F4FC8016FEF70E0F9DD6C018FE400
:1007F00091E0C2DDC601DDDD85E591E01EDEC801C8
:100800001CDED4DFEE24FF240BC0F801EE0DFF1D2B
:100810008EE393E0B70140819ED30894E11CF11C64
:10082000CE14DF0494F780E090E0C150DF4FE8E0A1
:100830000C94D4190F931F93CF93DF93EC018B018A
:1008400080919B02882331F082ED93E064E171E0B6
:100850000E94011682ED93E0BE014AE050E00E9442
:10086000271582ED93E068E571E00E944B1582ED5B
:1008700093E0B8010E944B15209729F482ED93E094
:100880006BE571E004C082ED93E06FE571E00E94DA
:10089000011680919C02882309F088DF82ED93E0A5
:1008A0000E944113CE01DF91CF911F910F910895C6
:1008B0006DDD82ED93E00E94F8120E94EB19892B06
:1008C00039F082ED93E00E94B41660939B0208C059
:1008D00090E080919B02882309F491E090939B0221
:1008E00080919B02882331F082ED93E069EB71E007
:1008F0000E94F71380E090E066E671E09BCF809164
:100900009B028823A1F082ED93E06FE172E00E94E8
:10091000F71382ED93E04CE954EC60E070E422E0E0
:1009200030E00E94EF1582ED93E00E94411380E0D9
:1009300090E066E771E07EDF82ED93E065E172E0D2
:100940000E94F71382ED93E04CE954EC60E070E410
:1009500022E030E00E94ED1582ED93E00C9441130B
:100960001F93CF93DF93182F81E10E949410EC0125
:1009700080919C02882329F084E891E0FDDCCE017F
:1009800018DDC55FD1401CF4C2E0D0E002C0C0E079
:10099000D0E0112321F0CE0163E971E04BDFCE01FD
:1009A000DF91CF911F9108951F93CF93DF93182F5D
:1009B00082E190E0DADD882319F4C7E0D0E002C0DC
:1009C000C0E0D0E0112359F0209729F480E090E0B6
:1009D0006DE971E003C0CE0168EA71E02BDFCE0162
:1009E000DF91CF911F91089582E061E070E00E9455
:1009F000B61080E0B5DF009719F067EC71E00BC02E
:100A000089E068EC70E00E94B61080E0CDDF0097CE
:100A100019F06FED71E00ECF83E068EC70E00E949A
:100A2000B61080E090E06DEF71E004CF1F93CF939C
:100A3000DF93182FBFDDEC01009711F4EFDDEC011F
:100A4000112321F0CE0169E072E0F4DECE01DF91E6
:100A5000CF911F910895CF93DF9380E081DFEC0168
:100A6000009769F480E0E2DFEC01009741F44BDD90
:100A7000EC01009721F48FEF90E06CDD03C08FEF65
:100A800090E05FDDCE016EE072E0D4DEDF91CF91C9
:100A90000895EF92FF920F931F93CF93DF9380916E
:100AA0009B02882351F082ED93E064E172E00E94A2
:100AB0004B1582ED93E00E94411382ED93E00E947A
:100AC000E01218161906CCF782ED93E00E94181375
:100AD000EC0180919C02882341F0CE010E94F11923
:100AE000892B19F087E192E047DCCE010E94F119D1
:100AF000892B19F7EC2E8C2F68DC80919D028823BE
:100B000029F0CD35D10511F410929D0280919D02FE
:100B1000882309F043C1C835D10509F4ACC0C935F3
:100B2000D105E4F4CE34D10509F494C0CF34D10515
:100B30004CF4C534D10509F455C0C634D10509F0CB
:100B4000A7C081C0C335D105B9F1C635D10509F4B7
:100B500088C0C235D10509F09BC033C0C336D1056A
:100B600021F1C436D10584F4CA35D10509F489C010
:100B7000CA35D1050CF48CC0CB35D10591F0CD35FB
:100B8000D10509F085C00AC1C837D10509F475C07F
:100B9000CA37D10509F477C0C637D10509F078C046
:100BA00065C081E080939D02F9C084E191E045DC5D
:100BB0001BDF69E172E014C084E191E03EDC4BDFB1
:100BC000EDC084E292E0D8DB82ED93E00E94B4169F
:100BD0007B018C01CB01EDDBC70195DD67E272E0A3
:100BE00029DEDCC084E292E0C7DB82ED93E00E9464
:100BF000B4169B01AC01EB0180919B02882339F074
:100C000082ED93E0B9014AE050E00E9427158091FF
:100C10009B02882399F082ED93E06DEA71E00E94D7
:100C2000F71382ED93E0BE014AE050E00E942715E1
:100C300082ED93E06AE971E00E943314CE0128DD71
:100C40006EE272E0CDCF84E191E0F7DB5CDC66E33D
:100C500072E0C6CF84E191E0F0DB5DDC62E472E03B
:100C6000BFCF84E191E0E9DB23DE98C084E191E02D
:100C7000E4DB45DE93C020DC91C084E191E0DDDB64
:100C80008DC0A7DD8BC084E191E0D7DBE0DB86C0BF
:100C900084E191E0D2DBCF33D105A1F0C836D10594
:100CA00089F082ED93E063E871E00E94F71382ED32
:100CB00093E06E2D0E94171482ED93E06DE472E0D4
:100CC0000E94011682ED93E068E771E00E94331400
:100CD00082ED93E06DE671E00E94331482ED93E0C3
:100CE00067E571E00E94331482ED93E066E371E002
:100CF0000E94331482ED93E064E271E00E943314A9
:100D000082ED93E06EE071E00E94331482ED93E097
:100D100060E071E00E94331482ED93E061EF70E0D7
:100D20000E94331482ED93E062ED70E00E94331470
:100D300082ED93E066EB70E00E94331482ED93E065
:100D400064EA70E00E94331482ED93E069E970E098
:100D50000E94F71382ED93E060919B024AE050E01D
:100D60000E94E41482ED93E060E970E00E94F713C2
:100D700082ED93E060919C024AE050E00E94E4140E
:100D800082ED93E068E870E00E94F71382ED93E053
:100D900060919A024AE050E00E94E41461E070E041
:100DA00080E090E00E942D10CDB7DEB7E6E00C9415
:100DB000D619EF92FF920F931F9302ED13E0C80133
:100DC00040E855E260E070E00E945A12E6DAC8019D
:100DD00066E072E00E94F713C8014CE954EC60E051
:100DE00070E422E030E00E94ED15C8016EEF71E082
:100DF0000E94F713C80162EF71E00E94F713C80167
:100E000060EF71E00E94F713C80167EE71E00E9485
:100E1000F713C8016DED71E00E94F713C80164ED8E
:100E200071E00E94F713C8016AEC71E00E94F713A9
:100E30008EE992E062E370E015D68AEA92E069E119
:100E400070E010D69AEFE92E92E0F92EC70140E04B
:100E500050E068E473E465D2C70140E050E068E424
:100E600074E40DD586EBE82E82E0F82EC70140E051
:100E700050E068E473E455D2C70140E050E068E414
:100E800074E4FDD48FE060E00E94141180E160E022
:100E90000E94141181E160E00E94141182E160E07F
:100EA0000E9414118EE061E00E94141182E061E062
:100EB0000E94141183E061E00E94141189E061E056
:100EC0000E94141182E061E00E94801162E370E0F0
:100ED00080E090E00E942D1089E068EC70E00E94B4
:100EE000B61062E370E080E090E00E942D1083E095
:100EF00068EC70E00E94B61062E370E080E090E081
:100F00000E942D1082E060E070E00E94B61062E363
:100F100070E080E090E00E942D1083E068EC70E0CB
:100F20000E94B6106AE070E080E090E00E942D1010
:100F3000C80165EC71E00E94331438DC8CDD1F9130
:100F40000F91FF90EF900895F999FECF72BD61BDAA
:100F5000F89A80B50895F999FECF1FBA72BD61BDA8
:100F600040BD0FB6F894FA9AF99A0FBE0895FC01A5
:100F7000278530894189528983859485A585B685E1
:100F8000281B390B4A0B5B0BB901CA010895A0E07D
:100F9000B0E0EDECF7E00C94B219EC01E8DF5B0196
:100FA0006C012B893C894D895E89CA01B9010E9477
:100FB0008A187B018C012B8D3C8D4D8D5E8DCA0175
:100FC000B9010E94C4169B01AC01C801B7010E947F
:100FD0002C170E9494179B01AC01A114B104C10409
:100FE000D104B9F462307105810591050CF085C01A
:100FF0001BA21CA21DA21EA280E090E0A0E0B0E017
:101000008B8B9C8BAD8BBE8B1BAA1CAA1DAA1EAA08
:101010000BC1EBA8FCA80DA91EA91A141B041C04E3
:101020001D0444F51E141F041006110674F46A15FD
:101030007B058C059D05B4F5CD5BDF4F8881C354DE
:10104000D040882309F059C02DC0E114F1040105F6
:10105000110509F452C06A157B058C059D050CF03D
:101060004CC0CD5BDF4F8881C354D040813009F044
:1010700044C038C01E141F0410061106DCF4882773
:101080009927DC018A199B09AC09BD092817390782
:101090004A075B073CF4CD5BDF4F8881C354D040E7
:1010A000813059F588279927DC01821B930BA40B0B
:1010B000B50B1FC0E114F10401051105F1F08827FB
:1010C0009927DC018A199B09AC09BD092817390742
:1010D0004A075B0794F4CD5BDF4F8881C354D0404F
:1010E000882359F488279927DC018E199F09A00BC2
:1010F000B10B8BAB9CABADABBEAB6BA87CA88DA88A
:101100009EA86114710481049104A9F48FA998AD7B
:10111000A9ADBAAD8BAF9CAFADAFBEAFFE01ED5B7D
:10112000FF4F10821A141B041C041D040CF049C04C
:1011300081E0808346C0ABACBCACCDACDEACC601BC
:10114000B50120E030E040E050EC0E948A187B01BD
:101150008C01C401B3010E94C71720E030E040E8D1
:1011600050E40E948A1820E030E040E85FE30E94EB
:10117000C4169B01AC01C801B7010E942C179B014A
:10118000AC01C601B5010E94C4167B018C016BAF96
:101190007CAF8DAF9EAFEF96A880B980CA80DB8010
:1011A000EF979501A6010E947718181624F4D8012C
:1011B000C70157016D01C501D6018BAF9CAFADAF23
:1011C000BEAF8BA99CA9ADA9BEA90196A11DB11D59
:1011D0008BAB9CABADABBEAB6BAD7CAD8DAD9EAD0B
:1011E0000E9499176BA37CA38DA39EA360E074E279
:1011F00084E799E42BAD3CAD4DAD5EAD0E942C175C
:101200009B01AC016B8B7C8B8D8B9E8BCD5BDF4F01
:101210008881C354D040882339F4DA01C901B05819
:101220008B8B9C8BAD8BBE8BCDB7DEB7EEE00C9479
:10123000CE19FC0187859089A189B2898417950709
:10124000A607B70731F04787508B618B728BCF01B0
:101250009ECE0895CF92DF92EF92FF920F931F934D
:10126000FC0184E792E091838083128213861486C6
:10127000158616861786108A118A128A0F2EF0E0BC
:10128000CF2EF0E0DF2EF0E0EF2EF0E0FF2EF02D7D
:10129000C38AD48AE58AF68A00E010E020E83FE3BA
:1012A000078B108F218F328F038F148F258F368FEE
:1012B000078F10A321A332A313A214A215A216A272
:1012C00081E090E094A783A78FEF86A717A210A6CE
:1012D00011A612A6138214821582168270AB67A71C
:1012E00052AB41AB13AA14AA15AA16AAC7AAD0AE2C
:1012F000E1AEF2AEC3AED4AEE5AEF6AEFF9601936C
:101300001193219331931082E354F0401782108699
:10131000118612861F910F91FF90EF90DF90CF9072
:101320000895EF92FF920F931F93CF93DF93EC01F9
:101330007A018B016F89788D898D9A8DA80197012B
:101340000E9428178823D9F1EF8AF88E098F1A8F07
:10135000EF9660E074E284E799E4A80197010E94A7
:101360002C17688379838A839B83EF978BA99CA929
:10137000ADA9BEA9181619061A061B0604F52B8975
:101380003C894D895E89CA01B9010E948A187B0196
:101390008C012B8D3C8D4D8D5E8DCA01B9010E9453
:1013A000C4169B01AC01C801B7010E942C170E9412
:1013B00094176BAB7CAB8DAB9EABCE01E8DDCDB7AC
:1013C000DEB7E6E00C94D619DC0112968C911297E8
:1013D000833001F1843040F4813089F0ED91FC914B
:1013E0001197823098F407C0863011F1883049F1A6
:1013F000843079F516C00084F185E02D1FC0ED9191
:10140000FC9111970284F385E02D18C00484F585C2
:10141000E02D14C0ED91FC9111970684F785E02D25
:101420000DC0ED91FC9111970088F189E02D06C067
:10143000ED91FC9111970288F389E02DCD0109957A
:101440000895ED91FC9111970488F589E02DCD0167
:1014500009950895CF93DF93EC016B897C898D8981
:101460009E8920E030E040E050E00E947718181696
:101470001CF4EFA5F8A902C0E9A9FAA90995DF9122
:10148000CF910895DC0143705070607070704130EE
:10149000510561057105F1F0423051056105710595
:1014A00034F4411551056105710561F0089542302C
:1014B000510561057105B1F04330510561057105B4
:1014C00001F518C0ED91FC9111970480F581E02D94
:1014D00062E00EC0ED91FC9111970480F581E02D42
:1014E00063E006C0ED91FC910480F581E02D61E0A0
:1014F00009950895ED91FC910480F581E02D60E05F
:1015000009950895CF93DF93EC01CB01BA0123E055
:1015100030E040E050E00E94931961307105810590
:10152000910591F06230710581059105A9F0611571
:10153000710581059105C1F4E881F9810480F58187
:10154000E02DCE0164E00FC0E881F9810480F581CF
:10155000E02DCE0161E007C0E881F9810480F581CA
:10156000E02DCE0162E00995DF91CF910895DC0175
:1015700043705070607070704130510561057105A5
:10158000F1F0423051056105710534F44115510502
:101590006105710561F008954230510561057105DD
:1015A000B1F0433051056105710501F518C0ED91A9
:1015B000FC9111970480F581E02D65E00EC0ED915E
:1015C000FC9111970480F581E02D66E006C0ED9155
:1015D000FC910480F581E02D6AE009950895ED9174
:1015E000FC910480F581E02D69E009950895CF9381
:1015F000DF93EC01CB01BA0126E030E040E050E09F
:101600000E949319623071058105910589F163305B
:1016100071058105910564F46115710581059105D8
:10162000B9F0613071058105910509F041C018C01C
:10163000643071058105910559F1643071058105AA
:101640009105F4F0653071058105910589F528C093
:10165000E881F9810480F581E02DCE0164E027C0A6
:10166000E881F9810480F581E02DCE0165E01FC09D
:10167000E881F9810480F581E02DCE0161E017C099
:10168000E881F9810480F581E02DCE0163E00FC08F
:10169000E881F9810480F581E02DCE0162E007C088
:1016A000E881F9810480F581E02DCE0166E009959D
:1016B000DF91CF910895CF93DF93DC014770507095
:1016C00060707070CA014830510580F58C5C9F4F86
:1016D000CD91DC911197FC010C94E519EC81FD8111
:1016E000CD0161E022C0EC81FD81CD0165E01DC02E
:1016F000EC81FD81CD0164E018C0EC81FD81CD015C
:1017000066E013C0EC81FD81CD0162E00EC0EC818A
:10171000FD81CD016AE009C0EC81FD81CD0168E069
:1017200004C0EC81FD81CD0169E00995DF91CF9185
:101730000895CF93DF93EC018A818823D9F08B81C0
:1017400061E072D58C8161E06FD58A81843011F0BF
:10175000883031F48D8161E067D58E8161E064D598
:101760008EA58F3F39F061E05FD56DA581E06827D8
:101770008EA5C6D5DF91CF910895CF93DF93EC016D
:101780008A81882369F0E881F9810480F581E02D60
:10179000CE0160E009958EA58F3F11F06DA5B0D503
:1017A000DF91CF910895A0E0B0E0E9EDFBE00C946B
:1017B000B819FC012281243029F0283019F092E078
:1017C000D92E02C084E0D82E8F01C0E0D0E0E62EF2
:1017D000FF24CC24C394F8012381C7010C2E02C03E
:1017E000959587950A94E2F7678180FD6C25822F95
:1017F00087D521960F5F1F4FCD1568F3CDB7DEB7A4
:10180000E8E00C94D419CF93DF93EC01E881F981DF
:101810000480F581E02DCD5BDF4F8881C354D0403B
:10182000882311F460E001C062E0CE010995E881EF
:10183000F9810480F581E02DCD5BDF4F8881C354B1
:10184000D040882311F461E001C063E0CE01099526
:101850008BA59CA524D4E881F9810480F581E02D35
:10186000CD5BDF4F8881C354D040882311F460E002
:1018700001C062E0CE010995DF91CF910895A0E00B
:10188000B0E0E5E4FCE00C94B219EC013A014B0144
:10189000CB01BA0120E030E040E050E00E94281780
:1018A000882309F440C0AB8CBC8CCD8CDE8CC60187
:1018B000B501A40193010E9428178823A1F16BA907
:1018C0007CA98DA99EA90E94C7177B018C01C60126
:1018D000B501A40193010E942C179B01AC01C80122
:1018E000B7010E948A180E9494176BAB7CAB8DAB3A
:1018F0009EAB60E070E080E090E4A40193010E9460
:101900002C170E94F11820E034E244E759E40E94C9
:101910008A186FAB78AF89AF9AAF6B8E7C8E8D8E45
:101920009E8ECE0134DBCDB7DEB7EEE00C94CE193F
:10193000EF92FF920F931F93CF93DF93EC018BA154
:101940009CA1ADA1BEA10097A105B10509F44DC0B0
:101950005ED37B018C012FA138A549A55AA58BA187
:101960009CA1ADA1BEA1820F931FA41FB51F82171A
:101970009307A407B50730F0E816F9060A071B0716
:1019800058F405C0E816F9060A071B0770F1E216BD
:10199000F3060407150748F5CD5BDF4F8881C35474
:1019A000D0402B853C854D855E85813029F42F5FA5
:1019B0003F4F4F4F5F4F04C0215030404040504098
:1019C0002B873C874D875E87E881F9814B855C8555
:1019D0006D857E850680F781E02DCE010995EFA209
:1019E000F8A609A71AA781E001C080E0CDB7DEB74D
:1019F000E6E00C94D619CF93DF93EC0199DF8823AE
:101A000011F0CE01C4DA6B897C898D899E8920E032
:101A100030E040E050E00E942817882341F4CE01D6
:101A2000A6DA20E0611571058105910509F021E034
:101A3000822FDF91CF910895CF93DF93EC01CE01F8
:101A4000DADF8823E1F7DF91CF9108950F931F9399
:101A50008C01EFDBC801F0DF1F910F910895FC01AD
:101A6000108208950F931F938C0180E090E0F8019D
:101A70002081318140E050E00E9452199B01AC016D
:101A800060E077E883E993E00E947119F80123830D
:101A900034834583568317821086118612861F91E0
:101AA0000F9108958FE393E0DACFE0EBF0E09081BF
:101AB0009368908387708093B1001092B3008BE09D
:101AC00061E0B2C3E0EBF0E09081936290838770B5
:101AD0008093B1001092B40083E061E0A5C3CF937E
:101AE000DF938CE060E00CD488E060E009D4C7E0CC
:101AF000D0E084E060E004D48091400390E00C2EBC
:101B000002C0959587950A94E2F780FF03C088E0AC
:101B100061E002C088E060E0F3D384E061E0F0D3EC
:101B200021978FEFCF3FD80721F78CE061E0E8D312
:101B3000DF91CF9108951F93CF93DF93EC018A81BA
:101B4000813029F414E072E058E030E108C08230BE
:101B500011F080E0D0C010E271E050E830E4413094
:101B600041F49B85892F86958695869580FF10C0C8
:101B700009C04230A1F49B85892F8695869586956C
:101B800080FD06C0613011F4985F05C0985003C015
:101B9000613019F4905F9B8752C09051FCCF433065
:101BA00041F48B85613011F4885F01C088508B87C8
:101BB00046C0443009F043C08B85613011F48F5F1B
:101BC00001C081508B87AB85AF73AB87A03148F4E0
:101BD000B0E0EEE6F2E0EA1BFB0B2081A25ABD4F1B
:101BE00019C08A2F8051803148F48A2F90E0FC017F
:101BF000E25BFD4F2081EEE7F2E01DC08A2F8052AC
:101C0000803150F4B0E0EEE8F2E0EA1BFB0B2081FB
:101C1000A25CBD4F8C9115C08A2F8053803118F083
:101C200080E020E00EC08A2F90E0FC01E25DFD4FD5
:101C30002081EEE9F2E0E81BF90B808102C08FEF12
:101C40002FEFEB85EF73EB879A81913029F4209386
:101C5000B3008093B40004C0923011F427BD88BD56
:101C6000272F212B932F952B922B9095809140031A
:101C7000982390934003443019F5E03118F4922BE7
:101C8000909340038E2F8051803130F4752B8091DA
:101C90004003872B809340038E2F8052803130F495
:101CA000532B80914003852B80934003E053E03118
:101CB000F0F4312B80914003832B8093400317C0B5
:101CC000E695E695E695F0E0E45CFF4F0C94E519A7
:101CD000912B0BC0922B09C0972B07C0572B952B2C
:101CE00004C0352B01C0312B932B909340038FE31D
:101CF00093E0F5DE8B85DF91CF911F910895A0E0F1
:101D0000B0E0E5E8FEE00C94B119EC016B01542E53
:101D1000A22EEB80FC800D811E8123E0A216D1F45F
:101D200016950795F794E794C801B70128EE33E0BC
:101D300040E050E00E94711939014A01C801B70121
:101D400028EE33E040E050E00E9471197B018C01E5
:101D5000BB243DC084E0A81639F794E0169507959A
:101D6000F794E7949A95D1F784E0CC0CDD1C8A9522
:101D7000E1F7DACFCE01652D4A2DDDDEB82EB301B5
:101D8000C4016BD18F819885A985BA858E0D9F1D61
:101D9000A01FB11F8F839887A987BA87885E934059
:101DA000A040B04088F061E070E080E090E055D164
:101DB0008F819885A985BA85885E9340A040B04000
:101DC0008F839887A987BA870894C108D108C1145E
:101DD000D10481F684E0A81681F52AC0CE01652DD4
:101DE00044E0A9DEB82EB301C40137D18F819885B4
:101DF000A985BA858E0D9F1DA01FB11F8F8398875F
:101E0000A987BA87885E9340A040B04088F061E01F
:101E100070E080E090E021D18F819885A985BA8516
:101E2000885E9340A040B0408F839887A987BA8787
:101E3000BB2019F080E1B81689F6CDB7DEB7EFE028
:101E40000C94CD19FC018281813041F480914003D2
:101E5000817E809340038FE393E041CE823041F452
:101E6000809140038E71809340038FE393E037CEDF
:101E700008950F931F938C018CE061E0D5D187E02A
:101E800061E0D2D188E061E0CFD184E061E0CCD1E3
:101E900010924003C80123DE87E060E031D21F9139
:101EA0000F910895DF92EF92FF920F931F938C0191
:101EB0007B01D42E8FE393E0DCDFF801F182E08236
:101EC000D2821386F1E0DF16F1F480914003817E27
:101ED000809340038FE393E002DE8BE061E0A4D1C6
:101EE00083E061E0A1D18BE061E00AD283E061E0B0
:101EF00007D281E0DADD81E0E5DD8FEF8093B3008A
:101F00008093B40028C082E0D81629F58091400360
:101F10008E71809340038FE393E0E1DD85E061E023
:101F200083D186E061E080D185E061E0E9D186E09F
:101F300061E0E6D184B5836884BD17BC86E061E0CA
:101F400073D184B5836284BD18BC85E061E06CD137
:101F50008FEF87BD88BD1F910F91FF90EF90DF90AD
:101F600008951F920F920FB60F9211242F933F9353
:101F70008F939F93AF93BF938091450390914603B6
:101F8000A0914703B0914803309149030196A11DE8
:101F9000B11D232F2D5F2D3720F02D570196A11D48
:101FA000B11D209349038093450390934603A0936A
:101FB0004703B09348038091410390914203A0915D
:101FC0004303B09144030196A11DB11D80934103C9
:101FD00090934203A0934303B0934403BF91AF9106
:101FE0009F918F913F912F910F900FBE0F901F9057
:101FF00018958FB7F894209145033091460340918E
:102000004703509148038FBFB901CA0108959FB794
:10201000F894209141033091420340914303509141
:10202000440386B5A89B06C08F3F21F02F5F3F4F2A
:102030004F4F5F4F9FBF542F432F322F2227280F20
:10204000311D411D511D82E0220F331F441F551FBA
:102050008A95D1F7B901CA010895EF92FF920F93C3
:102060001F93CF93DF937B018C01D1DFEB010DC078
:10207000CEDF6C1B7D0B685E7340D0F30894E108E3
:10208000F10801091109C851DC4FE114F1040105FF
:10209000110571F7CDB7DEB7E6E00C94D6190197BC
:1020A00039F0880F991F880F991F02970197F1F750
:1020B0000895789484B5826084BD84B5816084BDC0
:1020C00085B5826085BD85B5816085BDEEE6F0E0B1
:1020D000808181608083E1E8F0E01082808182600D
:1020E0008083808181608083E0E8F0E0808181608E
:1020F0008083E1EBF0E0808184608083E0EBF0E0BE
:10210000808181608083EAE7F0E080818460808361
:10211000808182608083808181608083808180680B
:1021200080831092C1000895982F8E3008F09E5041
:10213000977080916F028295880F880F807C892B21
:1021400080937C0080917A00806480937A008091F3
:102150007A0086FDFCCF2091780040917900942F81
:1021600080E030E0282B392BC90108951F93CF93CD
:10217000DF93182FEB0161E057D0209709F44AC094
:10218000CF3FD10509F449C0E12FF0E0E558FD4FFC
:1021900084918330C1F0843028F4813051F0823052
:1021A000B1F50CC0863019F1873049F1843079F5EA
:1021B00014C084B5806884BDC7BD32C084B5806258
:1021C00084BDC8BD2DC08091800080688093800050
:1021D000D0938900C093880023C0809180008062E2
:1021E00080938000D0938B00C0938A0019C08091A7
:1021F000B00080688093B000C093B30011C080919C
:10220000B00080628093B000C093B40009C0C038B1
:10221000D1051CF4812F60E002C0812F61E070D0F5
:10222000DF91CF911F910895CF93DF93482F50E016
:10223000CA0189599D4FFC0134914D5A5D4FFA01F5
:102240008491882369F190E0880F991FFC01EB5C71
:10225000FD4FA591B491FC01E15CFD4FC591D49176
:10226000662351F42FB7F8948C91932F909589237E
:102270008C93888189230BC0623061F42FB7F89466
:102280008C91932F909589238C938881832B8883BD
:102290002FBF06C09FB7F8948C91832B8C939FBF60
:1022A000DF91CF910895833071F0843028F481302C
:1022B000A1F0823021F514C08630B1F08730D1F022
:1022C0008430E9F404C0809180008F7703C080914E
:1022D00080008F7D80938000089584B58F7702C041
:1022E00084B58F7D84BD08958091B0008F778093F1
:1022F000B00008958091B0008F7D8093B000089564
:10230000FF920F931F93F62E482F50E0CA01855875
:102310009D4FFC012491CA0189599D4FFC011491E4
:102320004D5A5D4FFA0104910023C1F0222311F0B0
:10233000822FB9DFE02FF0E0EE0FFF1FE15CFD4FD1
:10234000A591B4919FB7F894FF2021F48C9110953A
:10235000812302C08C91812B8C939FBF1F910F9181
:10236000FF90089508951F920F920FB60F921124B7
:102370002F933F934F938F939F93EF93FF9380916E
:10238000C00082FD1DC04091C60020918A0330919B
:102390008B032F5F3F4F2F73307080918C03909190
:1023A0008D032817390771F0E0918A03F0918B03B0
:1023B000E65BFC4F408330938B0320938A0302C07B
:1023C0008091C600FF91EF919F918F914F913F9126
:1023D0002F910F900FBE0F901F9018951F920F9284
:1023E0000FB60F9211242F933F938F939F93EF93E8
:1023F000FF932091CE033091CF038091D003909131
:10240000D1032817390731F48091C1008F7D809363
:10241000C10014C0E091D003F091D103E257FC4F0A
:1024200020818091D0039091D10301968F73907099
:102430009093D1038093D0032093C600FF91EF9136
:102440009F918F913F912F910F900FBE0F901F90F2
:102450001895A0E0B0E0EEE2F2E186C7FC0113823D
:10246000128288EE93E0A0E0B0E084839583A68397
:10247000B7838EE892E0918380837587648757875E
:102480004687318B208B138B028BF58AE48AD78A9F
:10249000C68AB18EA08E938E828E8F85848F888916
:1024A000858F8989868F8A89878F8B8980A32096DB
:1024B000ECE076C7AF92BF92DF92EF92FF920F935C
:1024C0001F93CF93DF93EC017A018B01DD24403021
:1024D00081EE580780E0680780E0780711F0DD247E
:1024E000D39491E0A92EB12CEC89FD89DD2069F00F
:1024F000C50108A002C0880F991F0A94E2F78083E3
:1025000060E079E08DE390E005C0108260E874E857
:102510008EE190E0A8019701E4D621503040404080
:102520005040569547953795279580E120303807DC
:1025300020F0DD2011F0DD24D7CFE889F989308340
:10254000EA89FB89208319A2EE89FF89408121E075
:1025500030E0C9010C8C02C0880F991F0A94E2F781
:10256000482B4083EE89FF894081C9010D8C02C050
:10257000880F991F0A94E2F7482B4083EE89FF8960
:102580004081C9010E8C02C0880F991F0A94E2F79E
:10259000482B4083EE89FF8980810F8C02C0220F77
:1025A000331F0A94E2F7209528232083DF91CF91EF
:1025B0001F910F91FF90EF90DF90BF90AF90089523
:1025C000DC011C96ED91FC911D97E05CFF4F219181
:1025D000319180819181281B390B2F733070C90193
:1025E000089582ED93E0ECDF892B09F0BBCE0895CE
:1025F000DC011C96ED91FC911D97E05CFF4F208162
:102600003181E054F040DF01AE5BBF4F8D919C9172
:1026100011972817390719F42FEF3FEF07C08D9155
:102620009C91E80FF91F8081282F30E0C90108959F
:10263000DC011C96ED91FC911D97E05CFF4F208121
:102640003181E054F040DF01AE5BBF4F8D919C9132
:1026500011972817390719F42FEF3FEF10C08D910C
:102660009C911197E80FF91F20818D919C911197F2
:1026700001968F73907011969C938E9330E0C901F0
:102680000895DC0191968C919197882339F05496A6
:10269000ED91FC915597808186FFF9CF91961C9220
:1026A0000895CF93DF93EC01EE85FF85E05CFF4F4B
:1026B00020813181E054F0402F5F3F4F2F73307005
:1026C000DF01AE5BBF4F8D919C91119728173907A1
:1026D000D1F3E05CFF4F80819181E054F040E80F3E
:1026E000F91F6083EE85FF85E05CFF4F3183208317
:1026F000EE89FF89208181E090E00F8C02C0880F75
:10270000991F0A94E2F7282B208381E089A3EC89A2
:10271000FD8980818064808381E090E0DF91CF91AA
:1027200008958F929F92AF92BF92CF92DF92EF92D5
:10273000FF920F931F9300D000D00F92EDB7FEB71A
:10274000319684E0ADB7BEB711968C9383E0818358
:1027500087E0828385E0838381E0848382ED93E058
:102760006AE473E04EE853E025EC30E004EC10E05E
:10277000B0ECEB2EF12CA1ECCA2ED12CF2ECAF2E4A
:10278000B12CE6EC8E2E912C64DE0F900F900F9002
:102790000F900F901F910F91FF90EF90DF90CF90CF
:1027A000BF90AF909F908F900895A0E0B0E0EAEDC9
:1027B000F3E1DEC57C016B018A01C0E0D0E00FC00F
:1027C000D6016D916D01D701ED91FC910190F081E1
:1027D000E02DC7010995C80FD91F01501040011500
:1027E000110571F7CE01CDB7DEB7E8E0DDC5EF9298
:1027F000FF920F931F93CF93DF937C018B01C0E077
:10280000D0E0F8010F5F1F4F6491662359F0D701A4
:10281000ED91FC910190F081E02DC7010995C80F61
:10282000D91FEFCFCE01CDB7DEB7E6E0BFC5DC01E3
:10283000ED91FC910190F081E02D09950895EF92C2
:10284000FF920F931F938C016DE0F1DF7C01C801B3
:102850006AE0EDDF9C012E0D3F1DC9011F910F9114
:10286000FF90EF900895EF92FF920F931F937C01DA
:10287000BEDF8C01C701E3DF9C01200F311FC901BE
:102880001F910F91FF90EF9008950F931F93CF9397
:10289000DF938C01EB016115710519F420E030E044
:1028A0000EC0CB010E947F01AC01D801ED91FC91DB
:1028B0000280F381E02DC801BE0109959C01C90188
:1028C000DF91CF911F910F9108954F925F927F9268
:1028D0008F929F92AF92BF92CF92DF92EF92FF9230
:1028E0000F931F93DF93CF93CDB7DEB7A1970FB6AA
:1028F000F894DEBF0FBECDBF2C01742ECB01223069
:1029000008F42AE019A231E2C32ED12CCC0EDD1E30
:10291000822E9924AA24BB24672D752FA50194012A
:10292000E0D479018A01C801B701A5019401BAD4A4
:10293000472D461B0894C108D1084A3010F4405D69
:1029400001C0495CF6014083E114F1040105110561
:1029500021F07E2C5F2DC801DFCFC201B60195DFCB
:10296000A1960FB6F894DEBF0FBECDBFCF91DF9119
:102970001F910F91FF90EF90DF90CF90BF90AF909D
:102980009F908F907F905F904F900895DC0121156C
:10299000310541F4ED91FC910190F081E02D642F1F
:1029A0000995089592CFEF92FF920F931F939A018A
:1029B000E62EFF2400E010E0B801A701E7DF1F9139
:1029C0000F91FF90EF900895EF92FF920F931F9356
:1029D0007C01E9DF8C01C70132DF9C01200F311F30
:1029E000C9011F910F91FF90EF900895A0E0B0E012
:1029F000EBEFF4E1BDC4EC016A017B012115310567
:102A000041F4E881F9810190F081E02D642F09956E
:102A100018C02A303105A1F477FF11C06DE207DF3D
:102A20008C0144275527BA014C195D096E097F09AD
:102A3000CE012AE04ADF9C01200F311F03C02AE0AB
:102A400044DF9C01C901CDB7DEB7E8E0ADC4EF9229
:102A5000FF920F931F937B019A010027F7FC0095CB
:102A6000102FB801A701C2DF1F910F91FF90EF90C7
:102A70000895EF92FF920F931F937C01E8DF8C0182
:102A8000C701DDDE9C01200F311FC9011F910F918D
:102A9000FF90EF900895F9CE0895A0E0B0E0E2E550
:102AA000F5E161C44C017A018B01722ECB01BA01B0
:102AB0002BD3892B21F0C40160E572E008C0C80166
:102AC000B70119D3892B31F0C40164E572E0E3DF6B
:102AD000EC017EC0C801B7012FEF3FEF4FE75FE485
:102AE00006D318164CF0C801B7012FEF3FEF4FE7A0
:102AF0005FECAED1882324F4C40168E572E0E7CF2F
:102B0000C801B70120E030E040E050E0A1D187FDEE
:102B100003C0C0E0D0E008C0C4016DE288DEEC0173
:102B200017FB109517F9109520E030E040E05FE3C7
:102B3000AA240AC0CA01B90120E030E040E251E411
:102B40008BD19B01AC01A394A714A0F3C801B701DA
:102B50001BD15B016C01EDD17B018C01C401B8017B
:102B6000A7012AE030E012DFC80FD91F772031F02B
:102B7000C4016CE572E08FDFC80FD91FC801B7012F
:102B800004D29B01AC01C601B501FDD01FC020E0FD
:102B900030E040E251E4BED25B016C01C5D19B0143
:102BA000AC017B01C401B9014AE050E050DFC80F1D
:102BB000D91F0027F7FC0095102FC801B701E7D1F6
:102BC0009B01AC01C601B501DED07A947720F9F6FD
:102BD000CE01CDB7DEB7EDE0E2C35FCF0895EF924F
:102BE000FF920F931F937C01F8DF8C01C70127DE52
:102BF0009C01200F311FC9011F910F91FF90EF9091
:102C00000895EF92FF920F931F937C0144DF8C0194
:102C1000C70115DE9C01200F311FC9011F910F91C3
:102C2000FF90EF900895CF93DF93EC01E2D968878E
:102C300079878A879B87E881F9810084F185E02D77
:102C4000CE0109959C0197FF14C0D3D928853985F9
:102C50004A855B85621B730B840B950B2C813D8130
:102C60004E815F81621773078407950720F32FEF6A
:102C70003FEFC901DF91CF910895CF93DF93EC012E
:102C8000CE01D1DF9C0197FD0EC08D32910559F028
:102C9000C0970A9740F0E881F9810680F781E02D1E
:102CA000CE010995EDCFC901DF91CF910895A0E044
:102CB000B0E0ECE5F6E159C36C01B62EDEDFEC01C5
:102CC00097FF04C0EE24FF24870148C09924EE2416
:102CD000FF248701AB2CBB24CA15DB0521F1CD32C3
:102CE000D10519F4992493941EC0CE01C0970A9778
:102CF000D0F4C801B7012AE030E040E050E0D2D281
:102D00007B018C01CE01AA2797FDA095BA2FE80E72
:102D1000F91E0A1F1B1F80ED9FEFAFEFBFEFE80EFC
:102D2000F91E0A1F1B1FD601ED91FC910680F78149
:102D3000E02DC6010995C60176DFEC01C0970A9720
:102D400058F2CA15DB0541F2992041F01095009523
:102D5000F094E094E11CF11C011D111DB701C801A4
:102D6000CDB7DEB7EBE01DC361E0A1CFCF93DF931A
:102D7000A0D90E94D906C1EFD2E10E94490520974F
:102D8000E1F32FDCFACF5058BB27AA270ED075C12C
:102D900066D130F06BD120F031F49F3F11F41EF476
:102DA0005BC10EF4E095E7FB51C1E92F77D180F3C9
:102DB000BA17620773078407950718F071F49EF538
:102DC0008FC10EF4E0950B2EBA2FA02D0B01B90187
:102DD00090010C01CA01A0011124FF27591B99F091
:102DE000593F50F4503E68F11A16F040A22F232F9D
:102DF000342F4427585FF3CF469537952795A795ED
:102E0000F0405395C9F77EF41F16BA0B620B730B93
:102E1000840BBAF09150A1F0FF0FBB1F661F771F04
:102E2000881FC2F70EC0BA0F621F731F841F48F4B9
:102E3000879577956795B795F7959E3F08F0B3CF3F
:102E40009395880F08F09927EE0F97958795089529
:102E5000D9D008F481E008950CD00FC107D140F01B
:102E6000FED030F021F45F3F19F0F0C0511139C1AC
:102E7000F3C014D198F39923C9F35523B1F3951BEB
:102E8000550BBB27AA2762177307840738F09F5F8B
:102E90005F4F220F331F441FAA1FA9F333D00E2EFA
:102EA0003AF0E0E830D091505040E695001CCAF767
:102EB00029D0FE2F27D0660F771F881FBB1F26172C
:102EC00037074807AB07B0E809F0BB0B802DBF01FF
:102ED000FF2793585F4F2AF09E3F510568F0B6C018
:102EE00000C15F3FECF3983EDCF3869577956795DC
:102EF000B795F7959F5FC9F7880F911D96958795B0
:102F000097F90895E1E0660F771F881FBB1F6217CE
:102F100073078407BA0720F0621B730B840BBA0B8C
:102F2000EE1F88F7E095089504D06894B111D9C0D8
:102F30000895BCD088F09F5790F0B92F9927B751CA
:102F4000A0F0D1F0660F771F881F991F1AF0BA956D
:102F5000C9F712C0B13081F0C3D0B1E00895C0C04C
:102F6000672F782F8827B85F39F0B93FCCF3869563
:102F700077956795B395D9F73EF4909580957095C0
:102F800061957F4F8F4F9F4F0895E89409C097FB3D
:102F90003EF490958095709561957F4F8F4F9F4F30
:102FA0009923A9F0F92F96E9BB279395F695879574
:102FB00077956795B795F111F8CFFAF4BB0F11F437
:102FC00060FF1BC06F5F7F4F8F4F9F4F16C08823DE
:102FD00011F096E911C0772321F09EE8872F762F14
:102FE00005C0662371F096E8862F70E060E02AF055
:102FF0009A95660F771F881FDAF7880F9695879541
:1030000097F90895990F0008550FAA0BE0E8FEEF15
:1030100016161706E807F907C0F012161306E4079C
:10302000F50798F0621B730B840B950B39F40A2695
:1030300061F0232B242B252B21F408950A2609F473
:10304000A140A6958FEF811D811D089597F99F6777
:1030500080E870E060E008959FEF80EC0895002420
:103060000A941616170618060906089500240A94ED
:1030700012161306140605060895092E0394000C73
:1030800011F4882352F0BB0F40F4BF2B11F460FF02
:1030900004C06F5F7F4F8F4F9F4F089557FD90582B
:1030A000440F551F59F05F3F71F04795880F97FB0C
:1030B000991F61F09F3F79F08795089512161306C6
:1030C0001406551FF2CF4695F1DF08C016161706F5
:1030D0001806991FF1CF869571056105089408952A
:1030E000E894BB2766277727CB0197F908958ADFF5
:1030F00008F48FEF0895DADF80E090E020F419F40F
:103100000EF4029783950895D1DF80E090E009F0F6
:10311000881F08950BD0B1CFA2DF28F0A7DF18F0E9
:10312000952309F093CF98CF1124DBCFB7DFA0F31D
:10313000959FD1F3950F50E0551F629FF001729F4C
:10314000BB27F00DB11D639FAA27F00DB11DAA1F6B
:10315000649F6627B00DA11D661F829F2227B00DB8
:10316000A11D621F739FB00DA11D621F839FA00D43
:10317000611D221F749F3327A00D611D231F849F93
:10318000600D211D822F762F6A2F11249F575040EA
:103190008AF0E1F088234AF0EE0FFF1FBB1F661F85
:1031A000771F881F91505040A9F79E3F510570F03E
:1031B0004DCF97CF5F3FECF3983EDCF38695779544
:1031C0006795B795F795E7959F5FC1F7FE2B880F39
:1031D000911D9695879597F9089511F40EF43CCFBB
:1031E0004AC064DFD0F39923D9F3CEF39F57550B30
:1031F00087FF51D056959795B0E020F4660F771F62
:10320000881FBB1F1F930F9300249001A001800112
:10321000F001A0E80E0F1F1F0A1E511D601B710B4D
:103220008009B50B48F4600F711F801DB51F0E1B80
:103230001F0B0A0A510907C02E0F3F1F4A1F0E0F0E
:103240001F1F0A1E511D660F771F881FBB1FA695E3
:10325000F795E795F8F60617170708065B07211D8F
:10326000311D411D0F911F91B901842F9158880F75
:103270009695879508959F3F49F0915028F486953B
:1032800077956795B7959F5F80389F4F880F969584
:10329000879597F9089591505040660F771F881FC2
:1032A000D2F70895629FD001739FF001829FE00DD5
:1032B000F11D649FE00DF11D929FF00D839FF00DB5
:1032C000749FF00D659FF00D9927729FB00DE11D61
:1032D000F91F639FB00DE11DF91FBD01CF0111243E
:1032E0000895A1E21A2EAA1BBB1BFD010DC0AA1F47
:1032F000BB1FEE1FFF1FA217B307E407F50720F05F
:10330000A21BB30BE40BF50B661F771F881F991FD9
:103310001A9469F760957095809590959B01AC0122
:10332000BD01CF01089597FB092E05260ED057FD4C
:1033300004D0D7DF0AD0001C38F450954095309562
:1033400021953F4F4F4F5F4F0895F6F79095809529
:10335000709561957F4F8F4F9F4F08952F923F92A9
:103360004F925F926F927F928F929F92AF92BF9295
:10337000CF92DF92EF92FF920F931F93CF93DF9341
:10338000CDB7DEB7CA1BDB0B0FB6F894DEBF0FBE9E
:10339000CDBF09942A88398848885F846E847D84EB
:1033A0008C849B84AA84B984C884DF80EE80FD80ED
:1033B0000C811B81AA81B981CE0FD11D0FB6F89463
:1033C000DEBF0FBECDBFED010895EE0FFF1F0590CC
:1033D000F491E02D099491110CC080538A50E0F7CC
:1033E0000895911106C0803219F089508550D0F7A8
:0C33F0000895992788270895F894FFCFCE
:1033FC0027000A27003C3D0073656E736528002981
:10340C00203D20000073746570436F756E74203D11
:10341C002000656C65766174696E6720746F20009E
:10342C00206465677265657320287374657020006D
:10343C002900726F746174696E6720746F20006C60
:10344C00696E652800293A003A2000204F4B002075
:10345C004572726F7200746F67676C655665726245
:10346C006F73652829007374617475735665727374
:10347C00696F6E00706F776572206C6576656C2075
:10348C003D2000537461747573313276005374614E
:10349C00747573446F6F7200537461747573446FF9
:1034AC006F7220447261776572204F70656E206672
:1034BC0061696C75726500537461747573526561E2
:1034CC00647920313276206661696C7572650053BF
:1034DC007461747573526561647920446F6F7220E6
:1034EC004F70656E206661696C757265005374610E
:1034FC00747573526561647900486F6D650052652F
:10350C00736574003E20002E00436865636B526542
:10351C00616479003F2000526F7461746500456CE2
:10352C00657661746500496D6167696E67204F66E9
:10353C006600496D6167696E67204F6E00272E002B
:10354C006E616E00696E66006F7666002E00001963
:10355C00324A62788DA2B4C5D4E1ECF4FAFDFF01D5
:10356C0000000000BD0B990BD30BE4092A0A030CD5
:10357C00420A820AB70AF70A5B0B000000005113DB
:0A358C00D513E0121813F8124113D2
:00000001FF
